:020000022000DC
:1060000000000120756302005D6302005F6302000F
:106010006163020063630200656302000000000028
:1060200000000000000000000000000067630200A4
:1060300069630200000000006B6302006D630200F0
:106040005D8A02006F630200698E02006F630200C6
:106050006F6302006F630200198D02006F6302001C
:106060006F6302006F6302006F6302006F630200E0
:106070006F6302006F6302006F6302006F630200D0
:106080006F630200D97802006F6302006F63020041
:106090006F6302006F63020095B902006F63020034
:1060A0006F6302006F6302006F6302006F630200A0
:1060B0006F6302006F630200000000000000000038
:1060C0006F6302006F6302006F6302006F63020080
:1060D0006F6302006F6302006F6302000000000044
:1060E00000000000000000000000000000000000B0
:1060F00000000000000000000000000000000000A0
:10610000000000000000000000000000000000008F
:10611000000000000000000000000000000000007F
:10612000000000000000000000000000000000006F
:10613000000000000000000000000000000000005F
:10614000000000000000000000000000000000004F
:10615000000000000000000000000000000000003F
:10616000000000000000000000000000000000002F
:10617000000000000000000000000000000000001F
:10618000000000000000000000000000000000000F
:1061900000000000000000000000000000000000FF
:1061A00000000000000000000000000000000000EF
:1061B00000000000000000000000000000000000DF
:1061C00000000000000000000000000000000000CF
:1061D00000000000000000000000000000000000BF
:1061E00000000000000000000000000000000000AF
:1061F000000000000000000000000000000000009F
:10620000354936480A1A02D0072291438D4634494F
:1062100034480A1A06D00722914381F309880222E2
:1062200082F3148830483149314A00F044F831484B
:106230003149324A00F03FF831483249324A00F0E1
:106240003AF832483249334A00F035F83248334997
:10625000334A00F030F833483349344A00F02BF821
:1062600033483449344A00F026F83448344900228F
:1062700000F02CF833483449002200F027F8334866
:106280003349091A082902DB002202604160314AC1
:1062900090471F481F49884205D00268043003B464
:1062A000904703BCF7E700208646EC46002000211B
:1062B000294A9047FEE7884207D0521A05D0037852
:1062C00001300B700131013AF9D17047884202D098
:1062D00002700130FAE770470000012000E0002062
:1062E00000000120000001200CDA0200282A002012
:1062F0004C300020D0630200D0630200CCC6020004
:106300000CDA0200282A0020282A00200CC80200EB
:106310000CC802000CC802000CC802000CC8020025
:106320000CC802000CC802000CC802000BDA020004
:1063300030E002004C3000204C3000204C30002077
:10634000584000205840002058400020584000206D
:10635000586000209D63020031A10200FEE7FEE7C5
:10636000FEE7FEE7FEE7FEE7FEE7FEE7FEE7FEE705
:1063700000F002B8FFF7FCBF0F484FF00701884359
:1063800085460E4880470E48016841F4700101605F
:10639000BFF34F8FBFF36F8FFFF732BF09480A4932
:1063A0000A4A884207D0521A05D0037801300B7090
:1063B0000131013AF9D1704700000120198402002F
:1063C00088ED00E00CC80200282A0020282A0020BE
:1063D0007047000007B5044B0093044A402300F0C7
:1063E00032F803B05DF804FBF16302004D30002089
:1063F0002DE9F84388461446B2B10F4B0F4E0325E2
:10640000002743F00109224608EB0701002003F0B2
:10641000DDFF0744241A48B933782BB14FF47A4092
:10642000C847013D02D13570BDE8F88301233370C0
:10643000002CE8D1F8E700BF10C802004C30002063
:10644000704703F0F7BFF0B595B01D4616460846F5
:106450000C4601F0CBFD1A9B0D93CDE90865002594
:106460002B46082205A920460A958DF82C500C953C
:1064700001F0D9FD079B0293069B03939DF814300E
:106480008DF8115003F00302012A1DD1BDF814202C
:10649000059DC3F3C203C2F383168DF81030B2001A
:1064A00008230EA9204601F0BEFDC5F3952508ABD3
:1064B0000093324602AB0EA9284600F045FB204669
:1064C00001F098FD15B0F0BD022AF8D1BDF81650C4
:1064D000C3F3C203C5F389158DF810300827082DC2
:1064E0002E4628BF08263B4632460EA9204601F01C
:1064F0009AFDAD1B08AB02AA31460EA8374400F046
:1065000087FB002DEBD1DAE708B5FFF79AFF0448C7
:10651000042100F083FA034B01225A7108BD00BF29
:10652000FCC70200282A0020037813F0040216D0CA
:1065300003F00303012B03D0022B09D00120704785
:106540000A6800880232C0F3831002440A60F5E74B
:106550000B684288023303EB92130B60EEE71046A0
:10656000704700002DE9F04F87B000230446861CD9
:106570000DF107000F4615468DF8073001F03EF883
:10658000404A51683960936803F580735B1A9246FC
:1065900002F21C4702F5836902F21448B3421AD38F
:1065A0000020002D69D004F00F039B0143F0050388
:1065B00063F30F00DAF80430DAB203321E444AF80B
:1065C00022009DF80700CAF8046001F03BF80120A2
:1065D00007B0BDE8F08F0121384601F032FA484695
:1065E00001F047FA404601F044FADAF80800029058
:1065F000C0B203300AEB800002A9FFF795FF029BAF
:1066000030BBDAB20AEB8202D16803919A1C0133E3
:10661000DBB20AEB83030292D3F80CB001F0030360
:10662000012B22D0022B15D08346404601F024FADC
:1066300010B1029BCAF808305946384601F001FAF9
:10664000DAF80830DAF8042003F580739B1AA5E71E
:10665000D8B2CEE7BDF80E30C3F3891303334FEA47
:106660001B4B02EB93030293DFE7BDF80C30C3F33F
:1066700083134FEA1B4B1344F5E7A40544F00600CF
:1066800098E700BF60310020064B074810B5002294
:106690001A7001F064FC044610B9044801F022FEAF
:1066A000204610BD6031002070C702004CC80200B7
:1066B00030B50A4C71B10A4A0A49121BD2080023AC
:1066C0009A4201D1002030BD31F82350854202D0DA
:1066D0000133F5E7034654F83300F4E7D8C6020067
:1066E00070C70200282A0020094B013903EBC000C3
:1066F000032909D8DFE801F00A02040604207047E4
:106700000079704740797047002070470220704739
:10671000D8C60200034BD3E90130C31A584258418E
:10672000704700BF603100202DE9F04186B0FFF7CF
:10673000F1FF0546002840F0E680744CC4F81804C8
:10674000BFF34F8FA3680293DBB2033304EB8300E4
:1067500002A9FFF7E9FE029B18B1D4F81824002A19
:1067600055D0DAB2991C013304EB8202DBB204EBA0
:106770008303D268DB68049302F00303022B0392C5
:1067800002914FD1BDF80E306148C3F38917502FE5
:106790003E4628BF502666F38F1306F10801ADF878
:1067A0000E3001F0F4FB0546002800F0978001F060
:1067B0001DFC002303A90822284601F02AFC0299A7
:1067C000CB43DBB20133C9B20331B6EB830F4FEADF
:1067D000830804EB810122D908234246A6EB080670
:1067E000284601F016FCF6B24A4908F10803324681
:1067F000284601F00EFC029B033703EB9707029734
:10680000D4F81834002B41D1D4F8106451E06268F8
:106810009A4299D8A260284606B0BDE8F0810823C4
:106820003246E5E7012B59D1BDF80C303848C3F3A7
:106830008311062928BF062161F3891302318900DB
:10684000ADF80C3001F0A3FB0546002846D001F05E
:10685000CDFB0023082203A9284601F0DAFB00261D
:10686000BDF80C20C2F38312B300964203F1080373
:10687000C6D202994A1CC9B20331029204EB8101CB
:106880000422284601F0C5FB0136E9E7284601F05D
:10689000B1FBFFF73FFF80F00100C5B2BBE7F36833
:1068A0005B7923B1336829461B6830469847F36803
:1068B0001E68002EF3D1284601F09CFB0DF1070065
:1068C0008DF8076000F09AFED4F818340BB9029BDB
:1068D000A3609DF8070000F0B5FEDAE7D4F8104495
:1068E00054B90D4B0D480E49C01AC008000440F0C1
:1068F000020000F05DF8CCE7236820469B689847CB
:10690000E3681C68ECE7002585E700BF60310020E4
:1069100070C702006C310020D8C6020000C7020018
:1069200034C802002DE9F34704460E46924601A9F9
:10693000012218469946FFF715FE1B4F10B3019D23
:106940004FF00008AA1CC84508EB020123D11748E4
:10695000002101F053F880F31000000440EA1440D5
:10696000E4006B1C04F03804DBB2EDB244F0010427
:1069700007EB8303033544EA881444EA8624D8608D
:1069800047F825403B781BB1FFF7CEFE0028FBD12E
:1069900002B0BDE8F087C9B207EB81015AF8283090
:1069A000CB6008F10108CEE7603100207C35002083
:1069B00000231A46FFF7B6BF07B50123019201AACB
:1069C000FFF7B0FF03B05DF804FB07B5CDE9002386
:1069D00002236A46FFF7A6FF03B05DF804FB1FB56C
:1069E000CDE90123069B039301AA0323FFF79AFF36
:1069F00005B05DF804FB7FB5CDE90023089B029349
:106A0000099B03930A9B04930B9B05936A460623F9
:106A1000FFF788FF07B05DF804FB000030B50F49B1
:106A2000D1F8102403460020144634B9DC682071E4
:106A30004AB9C1F81034226030BDE4682579854236
:106A400006D02468F1E7D268116821601360F3E78B
:106A500001300A28E8D14FF0FF30EDE76031002027
:106A6000084A38B50123D2F8104413701D4604B902
:106A700038BDE3685D71236820465B689847E3682A
:106A80001C68F4E76031002007B503460846197A10
:106A9000052911D05B7A2BB1094A0A49019001F00E
:106AA0004EF801980849019001F049F8019803B0A7
:106AB0005DF804EB01F038B8002AF8D0F2E700BF27
:106AC00058C802005DC8020013D1020030B5C38867
:106AD00085B004460D4633B1144A00921449154A54
:106AE000284601F02CF8217A05291DD0637A4BB194
:106AF000A088FFF7F9FD104B104953F820202846D5
:106B000001F01DF8227A0E4BA08853F82220039240
:106B10000021FFF7CDFD039A0A490346284605B038
:106B2000BDE8304001F00BB805B030BD58C80200D8
:106B300068C8020060C80200E4C802005DC8020024
:106B400008C9020080C802002DE9F04385B01F4645
:106B50000C9D002395F80C902B7306460C4690462E
:106B600029463846FFF7B2FFB8F1060F09D8DFE82B
:106B700008F00412181F283340003146284600F060
:106B8000DEFF002229463846FFF77EFF85F80C908D
:106B900005B0BDE8F08322683146284600F0CFFFFB
:106BA000EFE7D4E900233146284600F0C8FFE8E7C4
:106BB000A36800933146D4E90023284600F0BFFFC4
:106BC000DFE7E3680193A36800933146D4E900232B
:106BD000284600F0B4FFD4E723690293E3680193E9
:106BE000A36800933146D4E90023284600F0A7FFAC
:106BF000C7E76369039323690293E3680193A3687A
:106C000000933146D4E90023284600F098FFB8E706
:106C100008292DE9F74F80460E4617461C463CD8FA
:106C2000002593F80C901D7319461046FFF74EFF90
:106C3000DFF888A0DFF888B0AE4231D918F8052017
:106C40005946204600F07BFF0135082DF4D1194943
:106C5000194DDFF870A0204600F071FF4FF0000BD7
:106C60005E4522D918F80B207E2A05D810460192DD
:106C700005F0F8F8019A00B92E225146204600F09E
:106C80005EFF0BF1010BBBF1080FE9D10122214698
:106C90003846FFF7F9FE84F80C9003B0BDE8F08F9A
:106CA0005146204600F04BFFCEE72946204600F033
:106CB00046FFE6E794C8020092C8020090C80200AE
:106CC0008AC8020096C80200C30710B507D4F02393
:106CD000054A4008145C23401943115410BD0901B2
:106CE000C9B20F23F4E700BF4836002030B5094B86
:106CF0001C78094B196800239C4202DC00221046D4
:106D000030BD11F83350854201EBC302F7D0013397
:106D1000F2E700BF183600205836002013B50446AD
:106D20000191FFF7E3FF38B143682BB10199204689
:106D300002B0BDE81040184702B010BD034B044834
:106D400019680022490800F05CBA00BF1C36002018
:106D50002036002010B5C0B2FFF7C8FF0446007807
:106D600001F0D0FF63785A1E53425341834208D149
:106D7000044BD3E90023134303D1BDE81040FFF7D0
:106D8000DDBF10BD4036002037B54308354AD35C1F
:106D9000C2074CBF1B0903F00F0304460D46042B2A
:106DA00035D8DFE803F003252C383C0079B3012106
:106DB000FFF78AFF00230DF107008DF8073000F080
:106DC0001DFC0120A4F12003C4F12001264A20FA71
:106DD00001F100FA03F30B43A040D2E90041204344
:106DE0000B43C2E900039DF8070000F02BFC0EE006
:106DF000002918BF02212046FFF766FF07E041B1D6
:106E00000321FFF761FF01212046FFF787FF03B051
:106E100030BD0121EFE70029F9D10421EBE709B1E9
:106E20000321E8E7FFF750FF29462046FFF776FFEA
:106E30000DF107008DF8075000F0E0FB0120A4F1F0
:106E40002003C4F12001084A20FA01F100FA03F3FB
:106E50000B43A040D2E9004124EA000021EA0303E9
:106E6000BFE700BF48360020403600202DE9F04142
:106E7000124E134F00243378A34208DC114BD3E9A0
:106E80000023134318D0BDE8F041FFF757BF3D681A
:106E900005EBC40815F8340001F034FF98F8013010
:106EA0005A1E53425341181A4142414115F83400C9
:106EB000FFF76AFF0134DEE7BDE8F08118360020F5
:106EC0005836002040360020092AF7B505460C4602
:106ED00016463CD901F056FED8B11E4B1E481D6027
:106EE0001E4B1F4F1C701F4B002110221E6005F00F
:106EF0004BF81D4B00200021C3E90001013CE4B226
:106F00000326FF2C0BD1194A1948002100F06EF915
:106F100003E001F0F9FD0028DFD003B0F0BD9DF8DB
:106F2000063015F834008DF8046005EBC40223F038
:106F300007038DF8063001A993788DF805303A469D
:106F400001F02AFE013CE4B20028DAD0E5E7072090
:106F5000E3E700BF583600204836002018360020EE
:106F6000556D02001C360020403600206D6E020078
:106F700028C9020070B5084D084E00242B789C42A9
:106F800001D3002070BD3368012113F8340001F0F3
:106F900075FE0134F2E700BF183600205836002095
:106FA0001FB50021039001AA44F20100CDE90111AF
:106FB00000F004F805B05DF804FB000010B572B6EF
:106FC000FFF74EFDFFF7B0FB0028FBD1104B114C33
:106FD0001149E41AE408240444F00100FFF7E8FC36
:106FE0000E4B1B68DB0700D500BE0D4944F00200C4
:106FF000FFF7DEFCBFF34F8F0A490B4BCA6802F460
:10700000E0621343CB60BFF34F8F00BFFDE700BFCB
:10701000D8C6020000C702002CC90200F0ED00E053
:1070200038C9020000ED00E00400FA0549B152B190
:10703000531E1A4007D1826001608380C2601046EF
:1070400070470E2070470920704710B58468C268E9
:107050008388121B934208D3C26813400268D1543C
:10706000C3680133C360002010BD0420FCE78268C0
:10707000C3689A420AD08268838813400268D35C4E
:107080000B708368013383600020704705207047D0
:10709000D0E90223D1E90201994208BF90422CBFF6
:1070A000012000207047000008B50B4800F0FDFBF0
:1070B0000A4B0B49D3E900231218D1E9000143F12F
:1070C00000038B4208BF824203D212F1807243F167
:1070D00000031046194608BD302A00206036002003
:1070E000D836002037B505460C460A4801A900F0FD
:1070F00010FC60B10570446001A9064800F033FC43
:1071000018B1054800F0D6FB002003B030BD0420C4
:10711000FBE700BFC4360020302A002038B5184BEA
:107120001B78044613B90025284638BD0028FAD03C
:10713000037F03F0FF05002BF5D0FFF7B5FFD4E97F
:107140000223994208BF904214D3236903B92377DD
:10715000D4E90530984721690029E4D0237F03F062
:10716000FF05002BDFD0D4E90223521843F10003BE
:10717000C4E902230348214601F0D3F8D4E700BF55
:107180006836002054C9020013B5114B1149186824
:10719000019008231048582200F0A8FB044698B933
:1071A0000E4A0F4801A900F071FA044660B90C4874
:1071B000012100F05DFB01230A4A0948194600F04D
:1071C000BFFA094B01221A70204602B010BD00BF61
:1071D00050C902006C360020C43600204D720200F7
:1071E000302A0020FFFF7F00683600203AB1036894
:1071F0005A614A1E514251411961002070470720CF
:10720000704738B5037F04460D4683B98261FFF7A6
:107210004BFF2369401941F10001C4E9020103B1A8
:10722000256121460020BDE83840FFF75BBF002004
:1072300038BD0023014603770120FFF753BF00004C
:10724000014800F032BB00BF302A00202DE9F04F8A
:1072500085B0804600F014FB40B15A4AD2E90031B3
:1072600013F1807341F10001C2E900310021404671
:1072700000F015FB38B1544E336823B13068FFF786
:107280004DFF002333600121404600F008FB20B190
:10729000FFF70AFF4D4BC3E900014D484A4F4D4EE1
:1072A000DFF8389103A900F06EFB002845D1DFF824
:1072B0002491454EDFF828A1484601F048F833688C
:1072C000002875D07BB13368D0E90201D3E90223ED
:1072D000994208BF90422DD233681B7F1BB13168A1
:1072E000484601F01EF8484601F02BF8D0E902B3F9
:1072F00007460193FFF7D8FE019BBBEB000463EB4D
:107300000105012C75F1000345DBB4F5350F40D3C1
:10731000FFF796FF304A02444FF49603002150468F
:1073200000F02EFA00283ED1336813B9404600F031
:10733000FFF9376005B0BDE8F08F0378012B1DD051
:10734000022B09D14FF0000A304600F0FAFF002866
:1073500034D080F81CA0F7E73BB941680B7F23B914
:1073600001230B77304600F0DCFF03A9184800F03A
:1073700035FB03A9164800F006FB96E741683B6819
:10738000994202D100233B60EFE7304600F0E2FF74
:10739000EBE7BA68C0E70021504600F076FA3846BD
:1073A000FFF7BCFE01E00D28F9D00023336083E72E
:1073B000002BBFD1404600F0BFF9BBE7012389F89D
:1073C0000030D2E760360020E0360020D8360020BA
:1073D000C436002054C90200FFFFB4006836002004
:1073E000302A00200648074A03780749D35C012267
:1073F00013B1043002F088B90C3001F051BF00BF66
:10740000382A0020543700200C3700200648074A4D
:1074100003780749D35C012213B1043002F020B98C
:107420000C3001F0EBBE00BF382A0020543700209A
:107430000D37002037B50578012D0BD0022D2ED049
:1074400065B91E491E48FFF712FE002832D1FFF72A
:10745000DDFF03E0037A1BB9FFF7C4FF03B030BDC3
:107460004368184C19782046FFF7EFFD80B18DF87E
:1074700000500190144B68461B689847A168E36868
:10748000A2885B1A9A42E7D2104B01221A70E5E7F4
:10749000A268E3689A42F1D08DF80000EAE7C36879
:1074A0008DF800500193FFF79DFF074B68461B685E
:1074B0009847D3E703238DF80030F6E70D37002017
:1074C000FC360020E8360020E4360020F8360020A4
:1074D000F0B51F46234B89B004461A600D460029BB
:1074E0003DD08A8820480968FFF7A0FD002834D1E4
:1074F000AA89A9681D48FFF799FD00282DD11C4EC7
:107500000FCE6D460FC596E80F0085E80F00636942
:107510000693237C174A18488DF81C70003B18BF4F
:1075200001238DF81430637C002B14BF0E2300233D
:107530008DF81530E3680293A368039323680193E1
:1075400069466368009301F00FFA30B90B4B18706D
:107550002368013301D0FFF745FF09B0F0BD0720D4
:10756000FBE700BFE4360020E8360020FC360020B0
:1075700060C9020035740200382A0020F836002065
:1075800070B5084D014608482E78FFF770FD044697
:1075900036B100232B70FFF725FF08B1FFF700FD80
:1075A000204670BDF8360020E836002010B50146B0
:1075B0000E48FFF74AFD0446A8B90D480D4A037866
:1075C000D35C63B1043002F093F860B90A4907480C
:1075D000FFF74DFD38B9BDE81040FFF717BF0C307D
:1075E00001F052FEF1E7204610BD00BFFC3600203E
:1075F000382A0020543700200D37002070B5EFF3F3
:10760000108672B60C4A946801239CB993600B4BA8
:107610000B4DD3F8801029401160C3F88050D3F887
:10762000841051604FF0FF32C3F88420047006B913
:1076300062B670BD0370FAE71037002000E100E089
:10764000FC06FFBD084B9A6810B55AB150B9EFF36C
:10765000108172B6054A1C6814605C6854609860BA
:1076600001B962B610BD00BF1037002000E100E094
:10767000435882B03BB10023435043580193019BD0
:10768000012002B070471846FBE70000F8B5204B18
:107690004479204D43F824201F4A204B05EBC404B5
:1076A0009B1A2279DB081B0432B143F002001C490B
:1076B000FFF77EF90820F8BD02680C88C2F808457B
:1076C00090F904608A7804795201002ED2B219DB55
:1076D00014498F1987F800230122760904F01F044A
:1076E00002FA04F441F82640427905EBC201012474
:1076F00045F832000C7143F003000B49FFF758F9CD
:107700000020D8E7094904F00F040A55ECE700BF50
:10771000243700201C370020D8C6020010C7020002
:1077200080C9020000E100E0A2C9020014ED00E0FF
:10773000036801221A607047036801225A6070478B
:1077400073B501F15005AD000068ADB24FF480345F
:107750008C400026C0F80843C0F84843465101F564
:10776000A8714559019522F07F42019D40F82120E2
:10777000C0F844430BB1C0F8044302B070BD000030
:107780002DE9F74F0D4622F07F4402684FF4803711
:1077900005F150068F408046B60002EB8500C2F826
:1077A0004873B6B2C2F80873D2F8041599464FF080
:1077B000000BD0F84035C0F8401542F806B05B1A0F
:1077C0009259009223F07F43012B009A4FEA850AD9
:1077D0000CD1264B4FF4806043F001039847D8F852
:1077E000003043F806B09B590193019BD8F8001074
:1077F000D1F80465C1F84473A31B23F07F43012B28
:107800001CD11A4B05F5A875013443F0010341F86A
:1078100025404FF480609847D8F80030D3F80435FD
:107820009E4209D1D8F800300020C3F84473C3F851
:10783000047303B0BDE8F08F0D20FAE78A44C9F164
:10784000FF13CAF84045D1F80405221A013A22F084
:107850007F4203F57F439342EED3002AE2D1013405
:10786000CAF84045D1F804359842DAE7C0C90200A9
:1078700003680222C3F8442309B1C3F80423704704
:1078800000684FF48271FFF7F3BE4FF4803303FAC0
:1078900001F10368C3F84813C3F808137047503167
:1078A0008900006889B2FFF7E3BE0368D3F80405D6
:1078B0007047000090F90430002B09DB5A090121C0
:1078C00003F01F0301FA03F34032024941F822306A
:1078D000704700BF00E100E0024B034A1B681068DC
:1078E000184700BF243700201C37002010B561B1B5
:1078F000B2FBF3F403FB1424A4B244B9C0E90014AE
:1079000084608281C381204610BD0E20FCE70920DF
:10791000FAE737B550E8013F9DB2C4892544848910
:10792000A54228BF2D1B0489A54202BFBFF32F8F9C
:10793000002207E0C5EA030540E80154002CE9D124
:107940004FF001028DF803200193019B9DF8032065
:107950000B6002F0FF0322B10B880068184403B0EB
:1079600030BD1846FBE70A884B889A4209D150E897
:10797000012FC2EA024240E80123002BF7D1012087
:1079800070470020704737B550E8023F1FFAA3F553
:10799000C488A54202BFBFF32F8F00220DE0C48927
:1079A00025448489A54228BF2D1BC3EA054540E82C
:1079B0000254002CE8D14FF001028DF8032001930E
:1079C000019B9DF803200B6002F0FF0322B14B885E
:1079D0000068184403B030BD1846FBE70A884B889E
:1079E0009A4209D150E8022FC2EA224240E802231B
:1079F000002BF7D1012070470020704710B50346D7
:107A000053E8000F0A4643E8002494F0000FF7D132
:107A100010BD10B5034653E8002F42EA010043E8C9
:107A2000000494F0000FF6D110BD10B5034653E8E2
:107A3000000F00EA010243E8002494F0000FF6D1A1
:107A400010BD10B5034653E8002F02EB010043E8D8
:107A5000000494F0000FF6D110BD10B5034653E8B2
:107A6000002FA2EB010043E8000494F0000FF6D1D0
:107A700010BD0121FFF7CDBF0021FFF7D6BF10B524
:107A800090B1D0E9012301689B1ADBB20A60013B87
:107A9000DBB2FF2B026802D10020107110BD11680B
:107AA0004C1C14600B70F2E70E20F7E737B5054663
:107AB00000240DF107008DF80740FFF79FFD2A68AD
:107AC0006B68116899420ED9481E106011F8014C7C
:107AD000EB68298A01FB0434AB6811791B1ADBB20D
:107AE000994238BF13719DF80700FFF7ABFD2046A0
:107AF00003B030BD37B5054600230DF107000C4635
:107B00008DF80730FFF77AFD2A681368591C116059
:107B1000E968641A298AB4FBF1F41C709DF8070027
:107B2000FFF790FD03B030BD826810B504462AB15E
:107B300043690168006998470023A36010BD0EB433
:107B400003B5039921B104AB01AA019300F076F8C3
:107B500002B05DF804EB03B070470A2938B504465B
:107B60000D4602D10D21FFF7F8FFA3682268591CCA
:107B7000A160D554D4E901329A4204D32046BDE82D
:107B80003840FFF7D1BF38BD2DE9F84F9846DDE901
:107B90000A43154682460F460A464FF00109AA429B
:107BA0000FD2C14538BFC14613F0010B01D16CB9EA
:107BB00000240126B8F1010F1BD908F1FF386E43EC
:107BC000F8E709F10109B2FBF5F2E8E79B070ED5EA
:107BD000B8F1000F0CBF30262026A145E9D2013CA8
:107BE00031465046FFF7B9FF002CF6D1E0E72026DA
:107BF000F3E7B7FBF6F39D42E1D9DFF83C80B7FB32
:107C0000F6F3504618F8031006FB1377FFF7A5FFAD
:107C10003346AB42B6FBF5F6F1D2BBF1000F02D012
:107C20000CB1A14501D3BDE8F88F20215046013C9D
:107C3000FFF793FFF4E700BFC6C902002DE9F74F35
:107C4000054617468846002900F0428118F8011BB6
:107C500049B92B7B002B00F03B81284603B0BDE8DF
:107C6000F04FFFF761BF252940F0B780002698F854
:107C700000302D2B424608F1010823D0302B24D0B0
:107C80002B2B25D000242A2B02F1010123D13B68A4
:107C90001A1D1B683A601C440A4613782E2B26D105
:107CA00001324FF0000A104610F8011BA1F1300C10
:107CB000BCF1090F1DD80A2303FB0A13A3F1300AF4
:107CC0000246F0E746F00106D1E746F00206CEE7AD
:107CD00046F00406CBE711F8013CA3F13000092877
:107CE000DBD80A2202FB0434303C0A46CBE74FF0D3
:107CF000000A12F8011B01F0FB0068289046F8D03A
:107D0000782909D86F290CD8632962D022D825296F
:107D100063D0582900F0888098F80030002B95D166
:107D200097E770390829F7D801A353F821F000BF6D
:107D3000AB7E0200197D0200197D0200397E02002F
:107D4000197D0200177E0200197D0200197D0200D4
:107D5000297E0200642901D06929DDD13A68D2F870
:107D60000090111D89EAE9723960A2EBE9724FF0C7
:107D7000010B092A35DCD34538BFD3462CB1B9F104
:107D8000000F01DB720700D5013CB30702D5BAF141
:107D9000000F03D0F00701D44CBB0024B9F1000F51
:107DA0002DDAC9F100092D212846FFF7D6FE06F08D
:107DB0000302022A04D1BAF1000F01D11CBB002436
:107DC000CDE9004653460A2249462846FFF7DCFE25
:107DD000A2E73B681A1D19783A602846FFF7BDFEF6
:107DE0009AE70A230BF1010BB2FBF3F2C1E7A345BB
:107DF000D4D220212846013CFFF7AFFECCE7710723
:107E0000D5D52B21D0E7A345DAD230212846013C35
:107E1000FFF7A3FED2E73968CDE900460A1D3A60B4
:107E200053460A220968D0E739680A1D3A60CDE94D
:107E3000004653461022F5E73B681A1D3A6016F0DB
:107E40000106D3F8009028D1B9F1000F03D04846BD
:107E500004F0EFF80646B44200D904BB09F1FF393B
:107E600019F8011F00293FF457AF2846FFF775FEA8
:107E7000F6E728460136FFF770FE19F806100029CC
:107E8000F7D1A642BFF448AF002C3FF445AF202104
:107E90002846013CFFF761FEF3E70026EDE72021CD
:107EA0002846013CFFF759FED5E73B681A1D3A60AA
:107EB000302128461C68FFF750FE78212846FFF73E
:107EC0004CFE00220823CDE90032214610227CE737
:107ED00003B0BDE8F08F00BF2DE9F84FB0F806A061
:107EE0004579D2F800B09DF828900AFB05F5043DCD
:107EF00088460BEB0301A94203F1040488BFA5EBFC
:107F0000030BB4FBFAF607460AFB1644C2F800B0AE
:107F10004EB9AAEB04055D4528BF5D46BBF1000FD5
:107F200004D1BDE8F88F3F68013EF1E7043408EB67
:107F300006003C442A46B9F1000F0DD02146ABEBB8
:107F4000050B03F0F8FFDA452E443F6855464FF025
:107F5000000428BF5D46E1E701462046EFE7FFF752
:107F60008EBDF8B546790146721E05460023934240
:107F70002D6803D30024A64202D8F8BD0133F6E7EA
:107F80000F682846FFF7B6FD01343946F3E72DE9BF
:107F9000F843068ACD1C0746FFF788FD043E3544AA
:107FA0000446B5FBF6F5F0B14FF48073EDB2838073
:107FB000C680013D076081464FF00008A84512D2F7
:107FC0003846FFF773FD064648B1637901336371A4
:107FD00008F10108C9F8000007608146EEE7204675
:107FE000FFF7BFFF34462046BDE8F8830121043087
:107FF000FFF727BD10B5012104460430FFF72DFD22
:1080000010F0FF0F04D12046BDE81040FFF7A9BFD4
:1080100010BD1FB503920022009203AAFFF75CFF78
:1080200005B05DF804FB1FB503920122009203AA7C
:10803000FFF752FF05B05DF804FB33DF704741DF07
:1080400070470000064B10B500241C70054B1C60E7
:10805000BFF35F8F0449054800F04DF9204610BD7D
:108060003137002034370020E0C9020028370020D3
:1080700007B500230DF107008DF80730FFF7BEFAB2
:10808000F1EE103A23F09F03E1EE103ABFF35F8F59
:10809000094B4022C3F884219DF80700FFF7D2FA6C
:1080A00003F05EFC20B1FFF7CAFF03B05DF804FBEC
:1080B00020BF40BF20BFF8E700E100E070B5264DCB
:1080C000044601212846FFF799FCBFF35F8F2E4637
:1080D00038B9042C0AD0214B1A781AB1BFF35F8F3C
:1080E000286070BD1E4A147001221A701D4C1C4D70
:1080F0006368BBB9FEF7B4FCFEF716FB0028FBD1A2
:10810000174B1B78023B012B14D8BFF34F8F164936
:10811000164BCA6802F4E0621343CB60BFF34F8F83
:1081200000BFFDE71B682878984788B1204600F01B
:10813000ECF8DDE703F014FC08B1FFF77EFF4FF029
:1081400080430122C3F80025BFF34F8F20BFFDE716
:10815000BFF35F8F3060C4E7343700203137002031
:10816000303700202837002000ED00E00400FA0539
:10817000026813685268934291BFD01A8068013038
:10818000801888BFC01A7047036881681A685B68E6
:108190008B4234BF01330023D31A584258417047F1
:1081A000F7B5002304460DF107000D468DF80730A2
:1081B000FFF724FA2046FFF7E7FF10B1237C002BDE
:1081C0003CD12268A66853685168B14234BF01317E
:1081D0000021516030B11168A068814234BF013183
:1081E00000211160E2686068511E072920D8DFE88D
:1081F00001F004101F141F1F1F182A78C2542046B4
:10820000FFF7B6FF23689A68824200D29860002484
:1082100015E02A8820F81320F1E72A6840F8232087
:10822000EDE7D5E9006700EBC300C0E90067E6E7CA
:10823000294602FB030003F07EFEE0E704249DF8DC
:108240000700FFF7FFF9204603B0F0BD0368186888
:108250005B68C31A58425841704773B500230546FE
:108260000DF107000C4616468DF80730FFF7C6F9EA
:108270002846FFF7EBFF002832D129680B682EB99A
:108280000A68A868824238BF561C0E60EA686968AE
:10829000501E07281ED8DFE800F0040E1D121D1D19
:1082A0001D16CB5C237000249DF80700FFF7CAF968
:1082B000204602B070BD31F813302380F3E751F847
:1082C00023302360EFE701EBC301D1E90023C4E9C8
:1082D0000023E8E703FB0211204603F02CFEE2E74F
:1082E0000524E1E7836800225A60C3E904229A600A
:1082F000DA601A6070470B684A684360934208BFAF
:108300000023016008BF43607047436843B10268BF
:10831000916852680B449342436004BF002343605A
:10832000704770B5446806460D46206818B1B368BA
:108330002946984718B923682B60256070BD2468CA
:10834000F3E74368186808B102681A607047436829
:10835000186870474368186800B97047884203D1AD
:1083600002681A600120704703460068F4E70000C5
:1083700010B50D49A1F59472914201D800200FE08B
:108380008C1AE30F03EBE4035B1002EBC30452F817
:108390003330834205D802D204F10802ECE760686A
:1083A00010BD2146E8E700BFECCE020008B5FFF79C
:1083B000DFFF024B002808BF184608BDAFCD020002
:1083C00010B50446C0B2FFF7F1F8204610BD00001A
:1083D000044B1868421C04BF034B1878831F584293
:1083E0005841704730010010E00F00F0074B1B7838
:1083F000062B09D1064B1B68C3F30313033B032B66
:1084000002D8044AD05C704700207047E00F00F0AB
:10841000E80F00F0F4CE020008B5FFF7D9FF28B14D
:10842000834B844A1B68C3F304231360FFF7DEFF0A
:1084300010B1814B814A1A60FFF7CAFF28B1804B07
:10844000804A1B68C3F342331360FFF7CFFF20B1AC
:108450007D4AD36823F08073D360FFF7B9FF40B142
:108460004FF080430022C3F80C21C3F81021C3F859
:108470003825FFF7BBFF10B1744B03221A60FFF7DA
:10848000B5FF40B1724B05221A6001229A670022A3
:108490009A603F225A606F4B1A68511C0BBF6E4B9B
:1084A0006E4B1A781B6802BF08331B68C3F30313B3
:1084B000062A4DD1033B032B03D8694AD35C002B1A
:1084C00046D04FF08052674BD2F80414C3F8201501
:1084D000D2F80814C3F82415D2F80C14C3F82815E0
:1084E000D2F81014C3F82C15D2F81414C3F83015B0
:1084F000D2F81814C3F83415D2F81C14C3F8401578
:10850000D2F82014C3F84415D2F82414C3F848153F
:10851000D2F82814C3F84C15D2F82C14C3F850150F
:10852000D2F83014C3F85415D2F83414C3F86015D7
:10853000D2F83814C3F86415D2F83C14C3F868159F
:10854000D2F84014C3F86C15D2F84424C3F870254F
:10855000FFF73EFF28B1444B444A1B6803F04F032A
:108560001360FFF735FF48B14FF08043D3F8002484
:10857000D20744BF6FF00102C3F80024354B1B68DB
:10858000062B0CD1354B1B68033B032B02D8384A12
:10859000D35C23B1374A136843F480631360364ACF
:1085A000D2F8883043F47003C2F88830BFF34F8F9D
:1085B000BFF36F8F4FF01023D3F80022002A03DBA4
:1085C000D3F80432002B2FDA2C4B0122C3F80425F8
:1085D000D3F80024002AFBD04FF010221521C2F856
:1085E0000012D3F80024002AFBD04FF010231522EC
:1085F000C3F80422214B1A46D3F800140029FBD0FB
:108600000021C3F80415D2F80034002BFBD0BFF3CF
:108610004F8F19491A4BCA6802F4E0621343CB60CA
:10862000BFF34F8F00BFFDE7164B174A1A6008BD16
:10863000240300104035014074C007400DF0ADBA6E
:10864000440200103C050040F0ED00E0A0050040B1
:108650001056004030010010E00F00F0340100100F
:10866000ECCE020000C0004058020010E40E0040B2
:10867000F0CE02003C17004000ED00E000E00140B9
:108680000400FA054C2A00200090D003054A4FF060
:10869000A043105CD3F8043523FA00F0C04300F087
:1086A00001007047FCCE0200044B1A5C012393408A
:1086B0004FF0A042C2F80C35704700BFFCCE02005C
:1086C000044B1A5C012393404FF0A042C2F80835D6
:1086D000704700BFFCCE020008B50020FFF7F0FF96
:1086E0000120FFF7EDFF0220FFF7EAFFBDE8084099
:1086F0000320FFF7E5BF08B50020FFF7D5FF0120F5
:10870000FFF7D2FF0220FFF7CFFFBDE808400320AC
:10871000FFF7CABF074A4FF0A041105CD1F80435FB
:108720000122824022EA03001340C1F80805C1F883
:108730000C357047FCCE0200054A4FF0A043105C98
:10874000D3F8103523FA00F0C04300F00100704761
:10875000F8CE02000D2809D00E2809D00F2809D024
:1087600010280CBF03204FF0FF30704700207047E7
:108770000120704702207047014B185C704700BF12
:10878000F8CE0200C20708B501460CD54FF0A04351
:108790000322C3F84427C3F84827C3F84C27C3F87B
:1087A0005027FFF799FF8B070AD54FF0A0430C2203
:1087B000C3F83427C3F83827C3F83C27C3F8402749
:1087C00008BD000038B5074C051E04F1080318BFAA
:1087D0001C4623682BB11A6822605B6828469847BC
:1087E000F7E738BD4037002020B9054B01225A7009
:1087F000FFF7E8BF012802D1014A9070F8E77047FF
:108800003837002020B9034B01225A70FFF7DABF36
:10881000704700BF3837002038B50E4C2378B3B905
:108820000D486360A3602361E36000F0E5F805464E
:1088300003F096F808B900F0EBF801232370074B1A
:10884000D3F800340BB10123A370284638BD852529
:10885000F5E700BF38370020E9870200000001403B
:1088600037B50D4C00230DF107008DF80730FEF7EA
:10887000C5FEE368013BE360E36833B9074BD3F817
:10888000005415B900F0D6F8A5709DF80700FEF762
:10889000D9FE03B030BD00BF3837002000000140D2
:1088A000012813B50CD0032820D038B9124B01226F
:1088B000C3F88020BFF34F8FBFF36F8F02B010BD9E
:1088C0000E4C00230DF107008DF80730FEF796FEE1
:1088D00023780BB9FFF7A0FFE3689DF80700013389
:1088E000E3600123A370FEF7ADFEE7E700F090F828
:1088F000FFF7B6FFE2E700BF00E100E038370020F5
:108900001FB503788DF800304368019383688DF8B4
:108910000830C368054A0393054B684653F8213075
:1089200052F82110984705B05DF804FB4C37002041
:10893000503700201FB503788DF80030436801934D
:1089400083688DF80830C368054A0393054B684671
:1089500053F8213052F82110984705B05DF804FB18
:108960004C37002050370020F0B5194B90F800C06C
:1089700091F81DE043F82C20164B16460A6943F87F
:108980002C20154B03F80CE00C4607460FCC89B0A1
:108990006D460FC594E80F0085E80F00CDF810C0B4
:1089A000BEF1000F09D0002E0C4A694608BF3246BE
:1089B000381D00F091FD09B0F0BD002E084A69464F
:1089C00008BF324607F10C0000F062FBF3E700BF7E
:1089D000503700204C370020543700200189020016
:1089E0003589020000F18040002382B003600368F3
:1089F0000193019B02B07047044A137923B9012106
:108A000010609180184670478520704758370020C5
:108A1000074B1A68D20704D4C02283F8002301222E
:108A20001A604FF080430122C3F81825704700BF39
:108A300000E100E04FF0804208B50223C2F808339D
:108A40004FF48270FFF7CEFF034B01211960D2F87B
:108A50001834DB03FBD408BD0C000040124B1B682C
:108A600010B573B14FF48070FFF7BCFF4FF0804337
:108A70000122C3F808230D4B587910B95A711B68AD
:108A800098470B4B1B6873B14FF48270FFF7AAFF36
:108A90004FF080430222C3F80823044BBDE8104086
:108AA0001B680120184710BD000100405837002006
:108AB0000401004000F1804000F5C040002382B076
:108AC000036003680193019B02B07047800000F1CE
:108AD000A040D0F8002722F44032C0F80027D0F898
:108AE000003743EA0141C0F800177047054B4FF0CB
:108AF000FF32072843F8202084BFC01880F84820A0
:108B0000704700BF6037002010B51A4C94F85830F9
:108B10006BBB4FF0FF3222FA03F1C90748BFE118DF
:108B200003F1010348BF81F83020202BF3D100214D
:108B3000C8B2FFF7DBFF01310C29F9D10422002173
:108B40000D4803F021FA0D4BC02283F80623402282
:108B50001A604FF4BE70FFF7ADFF094B4FF00042B3
:108B6000C3F80423012384F85830002010BD0820E6
:108B7000FCE700BF60370020B437002000E100E0D0
:108B800000600040034B93F85800003818BF0120E4
:108B9000704700BF60370020F0B5364D2C1894F9AF
:108BA0003040002C64DA8C78C4F34004002C0BBFF6
:108BB000082300230C260826B34201D10420F0BD6F
:108BC00055F8237001373FD12E1845F8232086F839
:108BD000303014B9EA1882F848008A78540713D460
:108BE000D60733D5820002F1A042D2F8004724F024
:108BF0000204C2F80047204EC20800F00707012413
:108C0000BC40B75C3C43B4548A780C7812F0020242
:108C100025D09B0003F1804303F5C0430202D3F843
:108C2000101521F4473121F44071C3F810152404C4
:108C3000D3F8101502F4F85204F4403422430A43E6
:108C4000C3F810250020BAE70133B5E74C7800F5EA
:108C5000E0724FF0A046A40046F82240CBE7083B64
:108C60002B4493F8501041EA841483F85040E9E70C
:108C70000820A4E760370020B437002038B51F4C27
:108C8000251895F93020072A16DD224492F848303D
:108C90009B09032B0BD14FF0A043D3F81015C14013
:108CA00001F001010231BDE83840FFF70FBF012B91
:108CB0000CBF02210321F6E7D3B2072B1CD8930087
:108CC00003F1804303F5C043D3F8100540F00100E1
:108CD000C3F8100502F14000800080B2FFF7EAFE01
:108CE00051B195F9303054F823302BB1012303FAF8
:108CF00002F2034BC3F8042338BD00BF60370020E5
:108D0000006000404FF0A043D3F8103523FA00F084
:108D100000F00100704700002DE9F74F00244E4D90
:108D200001944FF48072012102F1804303F5C043A6
:108D300090B21B68012B06D1D5F804330B4202D048
:108D4000FFF7B8FE0C430432B2F5907F4FEA4101C1
:108D5000EAD1424B1B68012B0CD14FF4BE70FFF7D8
:108D6000A9FE4FF0A04344F00044D3F8202501921F
:108D7000C3F8202514F0FF0F1AD0394F0025012623
:108D8000344210D0AB0003F1804303F5C043D3F865
:108D90001005D3F8101557F8253023B1C1F3014160
:108DA000C0F3042098470135082D4FEA4606E7D165
:108DB000002C48DA2A4D4FF0A0482A4E4FF0000907
:108DC000012716F9013B5A1C31D0C3F3C20202A994
:108DD0000A44DCB212F8042C03F03F0A03F0070344
:108DE00007FA03F31A4222D00AF5E073504658F806
:108DF0002330C3F3014BBBF1020F0CBF032102214F
:108E0000FFF764FE07FA0AF3C8F8203505EB0A03FA
:108E100093F9303055F823304BB1A109032904D020
:108E2000BBF1020F12D1012901D15046984709F137
:108E30000109B9F1040FC4D1D8F820350193C8F85D
:108E40002035002BB9D103B0BDE8F08FBBF1030F83
:108E5000EDD10229E8E700BF006000407C610040DE
:108E600060370020B0370020014B1B68184700BF57
:108E7000BC3700200E4B984237B50C4602D000207C
:108E800003B030BD00230DF107008DF80730FEF769
:108E9000B5FB084B1D7915B901221C601A719DF8AC
:108EA0000700FEF7CFFB002DE9D01120E8E700BF57
:108EB00000200040BC3700200023435082B04358BC
:108EC0000193019B02B070470A4610B54FF48E71B2
:108ED000FFF7F2FF136A9168C95C136A01331362EA
:108EE000C0F81C1510BD024608B500684FF4927119
:108EF000FFF7E2FF4FF484711068FFF7DDFF13689E
:108F000001221A6008BD8B690A4610B54FF48471BE
:108F100023B9FFF7D1FFD0F8183510BDFFF7CCFF0C
:108F2000536AD168D0F81805C854536A01335362A4
:108F3000F3E700001FB501238DF80030044BCDE9A5
:108F40000110D3E900126846904705B05DF804FBB4
:108F5000C437002030B54C48D0F8043313F4007FF8
:108F600085B005464DD0D0F82431002B49D04FF4C0
:108F70009271FFF7A1FF4FF40173C0F80833434B20
:108F800093F829200AB9012242603F4902228DF854
:108F90000020D1F88024C1F8802403929A690292BB
:108FA000DA6801920022C3E906226846D3E900127A
:108FB00090473548D0F81C315BB134494A690B6A97
:108FC0009A420A464AD991F82830002B46D1FFF739
:108FD0007BFF2D48D0F844318BB14FF4A271FFF7DD
:108FE0006BFF2A4B93F829200AB1012202609A698B
:108FF0002AB10022586AD9689A61FFF79BFF05B031
:1090000030BDD5F804335B07D3D5D5F80831002B34
:10901000CFD01E4C1C482146FFF775FF636AA2693A
:109020009A422346C5D1E269E1684AB12369E36007
:109030000023606AA261E3616362FFF77BFFB8E728
:1090400094F829200AB901226A600F4A4FF401708E
:10905000C2F808030022586A9A61EEE70A484FF402
:109060008E71FFF729FF5369002BB2D0516902912D
:10907000002391688DF80030019153616846D2E970
:1090800000139847A5E700BF00200040C437002028
:109090002DE9F843544B057991462C2202FB053209
:1090A000064692F82A200C469846002A40F09880FE
:1090B0004E490068FFF7DEFE0746002840F0928028
:1090C00021683368481C0BD04FF0A04001228A4031
:1090D000C0F8082501F5E0724FF0030C40F822C0FB
:1090E0006068421C1FBF00F5E0724FF0A04C4FF0CB
:1090F000000E4CF822E0A269C3F8242594F814C0AD
:10910000627DBCF1010F4CEA0202C3F86C25C3F882
:109110001405C3F80C151DD1A1684A1C1FBF01F529
:10912000E0724FF0A0404FF0000C40F822C0E2681F
:10913000501C0BD04FF0A04C01209040CCF80805FB
:1091400002F5E0704FF0030E4CF820E0C3F808255C
:10915000C3F810152C236B4308EB0302C2F80490EC
:10916000226948F80320B9F1000F21D03068247F2C
:109170004FF48E71FFF7A0FE4FF4A2713068FFF735
:109180009BFE32681A4BC2F80433110B42F30732CC
:109190006301002ADBB21EDB1648841884F8003312
:1091A0000123520901F01F0103FA01F140F82210D6
:1091B00033680422C3F800252C2303FB0583002217
:1091C000C3E9062283F829205A61012283F82A2064
:1091D0003846BDE8F883084A01F00F015354E7E729
:1091E0000827F5E71127F3E7C4370020558F020061
:1091F0008000020000E100E014ED00E02DE9F047FE
:10920000204F90F804904FF02C0808FB0974054695
:109210006669002E34D162610068A16026624FF455
:109220008E7184F82860FFF747FE28680123836069
:109230002146FFF749FE6368A0468BB92868D4F839
:1092400014A0236A9A4511D82A68D2F81C31002B41
:10925000FBD00123D3602C2303FB097300225A6146
:109260003046BDE8F08794F828303BB9D0F81C317F
:10927000002BF8D04146FFF727FEE2E70F26EAE78A
:109280001126EDE7C43700200379044A2C2101FBA5
:1092900003235869003818BF01207047C4370020E5
:1092A0002DE9F843394F05792C2303FB0573064656
:1092B0005C6824B103684FF40170C3F808032C23E1
:1092C00003FB0573986950B1D86900283ED024B1DA
:1092D00033684FF40172C3F80423112433E09A6118
:1092E000D9605862D8612C2303FB057393F82930A9
:1092F0001BB910B93046FFF7F6FD4FF02C0909FBFA
:1093000005783068D8F80430002B34D14FF4A271BE
:10931000C146FFF7D1FD3068D0F82431D0F80821DC
:10932000D0F84441B2B90CB9002BF4D02C2202FB86
:1093300005750022AA6123BB2CBB95F82910336860
:109340000122B1B11A602046BDE8F8831961DA61E3
:109350000120C8E7002BE9D1002CE7D14946FFF7EF
:10936000D2FDD8F82430D8F818209A42D3D8234612
:10937000DCE75A60E7E74FF40173C0F804330024D8
:10938000E1E70324DFE70F24DDE700BFC437002057
:109390000023435082B043580193019B02B07047B1
:1093A0001FB501238DF80030044BCDE90110D3E93E
:1093B00000126846904705B05DF804FBF0370020C6
:1093C0007FB5434AD2F82461002E60D010464FF496
:1093D0009271FFF7DDFF02238DF80030D2F8803460
:1093E000C2F880340393D2F83C350293394BDA68E3
:1093F00001920022C3E906226846D3E90012904791
:109400003348D0F8443173B14FF4A271FFF7C0FF75
:10941000304B9A693AB10022C3E90622D968D0F8E4
:109420003C05FFF7BDFF2A48D0F82031ABB14FF41F
:109430009071FFF7ADFF0123C360264B5A6962B1FB
:10944000D0F84C150291002299688DF80020019106
:109450005A616846D3E9001290471D48D0F8583148
:109460009BB14FF4AC71FFF793FF1A4B5A6962B18D
:10947000D0F84C150291002299688DF800200191D6
:109480005A616846D3E90012904704B070BDD2F823
:109490001031002BB4D04FF488711046FFF778FFDD
:1094A0000C4BD2F83C0599698842A9D1DC69D9688E
:1094B00064B1D2F8005225F02005C2F800521A69B2
:1094C0009C61DA60DE61FFF76BFF99E79C61FAE768
:1094D00000200040F03700202DE9F8435B4B06796F
:1094E0009146242202FB0632044692F820200D46C3
:1094F0009846002A40F0A58055490068FFF7BAFC5D
:109500000746002840F09F8029682368481C0BD03C
:109510004FF0A04001228A40C0F8082501F5E07212
:109520004FF0030C40F822C06868421C1FBF00F5D2
:10953000E0724FF0A04C4FF0000E4CF822E0AA6908
:10954000C3F8242595F814C06A7DBCF1010F4CEADC
:109550000202C3F86C25C3F80C15C3F814051DD11D
:10956000A9684A1C1FBF01F5E0724FF0A0404FF000
:10957000000C40F822C0EA68501C0BD04FF0A04C01
:1095800001209040CCF8080502F5E0704FF0030E82
:109590004CF820E0C3F80825C3F8101524237343C2
:1095A00008EB0302C2F804902A6948F80320B9F1D5
:1095B000000F30D020682A7F4FF48871FFF7E8FE53
:1095C00020684FF49071FFF7E3FE20684FF492712A
:1095D000FFF7DEFE20684FF4A271FFF7D9FE4FF4CB
:1095E000AC712068FFF7D4FE23681A49C3F804134E
:1095F000190B43F307335201002BD2B21CDB164880
:10960000C51885F8002301225B0901F01F0102FA49
:1096100001F140F8231023680822C3F80025242311
:1096200003FB06830022C3E906225A61012283F864
:1096300020203846BDE8F883084B01F00F015A544A
:10964000E9E70827F5E71127F3E700BFF037002027
:10965000C19302001003420000E100E014ED00E0BD
:1096600001F06043B3F1005F2DE9F041064638D1C7
:109670001E4B0779242505FB073598466C69002C9D
:1096800031D16A610068A9604FF49071FFF780FEE4
:109690004FF4AC713068FFF77BFE33686A69A968E4
:1096A000C3F84415C3F8482501229A606A68AAB92C
:1096B000D3F82021D3F858411AB9002CF8D00F2440
:1096C00007E0002CFBD10122DA60D3F85821002AF0
:1096D000FBD0242303FB078700237B612046BDE8E2
:1096E000F0811024FAE71124F8E700BFF0370020DA
:1096F0000379044A242101FB03235869003818BF69
:1097000001207047F0370020F8B501F06043B3F155
:10971000005F04460F465ED10379304D242101FBE2
:109720000351496821B100684FF40476C0F808631A
:10973000242000FB03539E6956B1D869002839D014
:1097400021B123684FF40472C3F80423112030E0E0
:109750009A61DF60DE6120684FF48871FFF718FEC0
:1097600020684FF4A271FFF713FE2368C3F8347525
:10977000C3F8382516BB01221A602179242202FB86
:10978000015252680ABBD3F81041D3F84421D3F8F0
:109790002401144302D10028F5D02246242303FBE0
:1097A00001550023984218BF03209A42AB6118BFAD
:1097B0000F20F8BD1F61DA610126CCE7D3F8002243
:1097C00042F02002C3F80022D7E74FF40472C3F836
:1097D00004230020EDE71020EBE700BFF037002066
:1097E0000220FEF797BF00002DE9F04780460D46A6
:1097F000FEF7B0FF0328044610D8012D10D0022D2B
:1098000030D05DB91A48FDF714FD1A4B04EB440241
:1098100013449E78184B1B5DB34219D0BDE8F08706
:10982000144D00EB4002A918AE5C4A78470052B1D3
:10983000DFF84C900E484A464FF48041FDF7E1FCBA
:1098400008B989F800803B192B449A780A4B1A55BD
:10985000002EE3D0094B1B68002BDFD03046BDE85B
:10986000F047184700EB4004024804446678EFE7ED
:109870003838002078380020913800208C380020BB
:109880001438002000780221FFF7AEBF08B5094B5D
:109890001B7853B10020FEF713FF0120FEF710FFE5
:1098A000BDE808400320FEF70BBFBDE80840FEF707
:1098B00013BF00BF15380020F8B57B4C2378054650
:1098C0001BB100232370FFF7E1FF172D00F2888002
:1098D000DFE805F00C17174354657680888D888D76
:1098E000959A9A9A9A9AC4C9D1D9E4E4FFF7CEFF1F
:1098F0006E48FDF79EFC6E4B002204461A7020460F
:10990000F8BD0020FEF7C2FEF8B10020FEF7D8FE39
:10991000022D0CBF4FF4E1614FF47A61644B1D706E
:109920004FF400404FF47A740025E0FB01454FF4FA
:10993000FA6200232046294602F0A0F900220146DF
:10994000BDE8F8405948FDF75CBCFEF7ADFE022DBE
:109950000CBFC8214FF4C871E0E70020FEF796FE67
:1099600040B10020FEF7ACFE4FF44871504B03228B
:109970001A70D5E7FEF798FEC821F7E70020FEF73A
:1099800085FE38B10020FEF79BFE4FF47A61484B0C
:109990000422EDE7FEF788FE4FF4C871F7E70020D8
:1099A000FEF774FE48B10020FEF78AFE404B052208
:1099B0001A7040F6CD410022C2E7FEF775FEF5E7CA
:1099C0000020FEF7A7FE3A4B06221A70002240F252
:1099D0006661B5E70020FEF767FE354B07221A7077
:1099E00000248CE701202070FEF794FEEEE70120B2
:1099F0002070FEF78FFE00224FF40051A0E7FEF723
:109A00007AFE2B4B0C22EAE72A482B4EFDF711FC7D
:109A1000D5F1110504461CD0D8B9012D13D0C823A7
:109A20005D434FF400474FF47A7000214FF4FA621F
:109A30000023C7FB050102F021F9224601461D481B
:109A4000FDF7DFFB04460220FEF72EFE01233370F4
:109A500055E70220FEF734FE0023F8E7FFF716FF74
:109A6000134B1222BBE7FFF711FF0020FEF71CFE8D
:109A70000F4B1322B3E7FFF709FF0120FEF714FE97
:109A80000B4B1422ABE7FFF701FF0020FEF70CFEA3
:109A90000120FEF709FE064B1522A0E7FEF72BFE7C
:109AA000034B1D709CE700BF883800205838002009
:109AB000903800201838002015380020044B1B680F
:109AC000DB0703D5034B1878FFF7F6BE704700BFDE
:109AD0008438002090380020032801D8FEF72CBEDF
:109AE00000207047044B1B6813F0010301D0FFF7FF
:109AF000E3BE1846704700BF8438002038B51C4BC1
:109B000018601C4B10F00204054619601AD01A4B5D
:109B10001A480E221A700F22DA7010229A7111223E
:109B20005A72042140F23332FDF7CEF9044648B9A7
:109B3000FDF720FA044628B90146114A1148FDF7FD
:109B400055FB0446EB0711D50120FEF71BFE6CB94F
:109B500021460D4A0D48FDF749FB044630B9BDE8E2
:109B600038400B4A0B480121FDF740BB204638BD69
:109B7000843800208C3800207838002024CF020060
:109B80008598020048CF0200BD9A02004CCF020027
:109B9000E197020044CF0200032811D8012A0AD11C
:109BA00001290FD100F10E02D2B20D4B00EB4000A3
:109BB0001A54002070470129F7D0022904D049B176
:109BC000072070470022F8E7054B00EB40001844DF
:109BD0004270EEE7024B00EB400018448270E8E769
:109BE00078380020032808B512D8FEF7C5FD80009C
:109BF00000F1A040D0F8003723F44033C0F800371C
:109C0000D0F8003743F44033C0F80037002008BDD7
:109C10000620FCE708B5012202210020FFF7BCFF67
:109C200008B1072810D1072202210120FFF7B4FF55
:109C300008B1072808D100210A220846FFF7ACFF27
:109C400010B1072808BF002008BD00000388102BB2
:109C500010B502D0112B1ED010BD1A4C2168B1B91D
:109C600001220846FFF798FF08B1072824D10722F0
:109C700002210120FFF790FF08B107281CD1042220
:109C800002210020FFF788FF08B1072814D12368BC
:109C900001332360E0E70B4A1368013B1360002B9C
:109CA000DAD1FFF7B7FF0028D6D0074B1B68002B8F
:109CB000D2D0BDE810401847034B1B68002BE6D0FC
:109CC0009847E4E79C3800209838002008B5002029
:109CD000FFF788FF08B1062806D10120FFF782FFB1
:109CE00010B1062808BF002008BD00000D4B10B5BC
:109CF00018600C4629B10120FFF7EEFE40B10223A7
:109D00002370094B1B6853B9BDE81040FFF782BFB1
:109D1000FFF7E2FE08B10B23F2E72070F1E7002025
:109D200010BD00BF983800209C38002075DF7047B8
:109D300076DF70477FDF70478FDF7047FDF730B900
:109D40000146014801F043BC243B00200388212B3D
:109D500013B504460FD80F2B11D9103B112B0ED879
:109D6000DFE803F00F260D410D0D0D0D0D0D0D3328
:109D70000D0D0D480D4E3B2B4AD0562B48D002B04E
:109D800010BD81882548002201F054FD08B1FDF77F
:109D900007F90720FFF7A6FE08B1FDF701F9A18832
:109DA0001F4800F093FD0028E9D0FDF7F9F8E6E739
:109DB0001C4B1D48A2881D49C01AC0080004237A04
:109DC00040F00300FCF701FED9E7037A022BD6D15D
:109DD000144B15481649C01AC008000440F003008F
:109DE000FCF7E6FDCBE700231A4685218088FFF7C4
:109DF000A1FFD8E700F108018088FFF797FFD2E7BD
:109E0000002301A98088ADF80430FFF795FFCAE769
:109E1000A0881321FFF78CFFC5E700BF243B00207B
:109E2000682A0020D8C6020000C7020050CF0200F6
:109E30007ECF020008B5074801F0D8FA08B1FDF757
:109E4000AFF80120FFF74EFE18B1BDE80840FDF75E
:109E5000A7B808BD503B002070B50378012B04461D
:109E600035D0022B24D013BB1C4C1D4D2088284418
:109E7000FDF786FB238801339BB21D44238015F830
:109E8000012C0A2A03D0174A12889A420FD8144D7F
:109E9000154E22882946304601F07CFC082804D063
:109EA0001328F6D008B1FDF77BF80023238070BD9E
:109EB0000E4B0F480F491B1ADB081B0443F001002F
:109EC000FCF776FD6068BDE87040FDF769B8074BA8
:109ED000074809491B1ADB081B04EFE794390020E7
:109EE000A0380020662A0020243B002000C7020082
:109EF000D8C602009CCF0200CECF020010B50446A7
:109F00000020FFF7EFFD08B1FDF74AF824B9FFF78D
:109F1000DDFE08B1FDF744F8012010BD0A8840F6C7
:109F200077239A4213B50C4617D10D4B0D480E49B5
:109F3000C01AC008000440F003000190FCF738FD8F
:109F4000A3880A4A0A490198033B9BB213801A4628
:109F500002B0BDE81040FCF738BD02B010BD00BF34
:109F6000D8C6020000C70200FACF0200662A00200D
:109F700016D00200042808B506D00A2810D1BDE882
:109F800008400020FEF79AB8064B13215888FFF7C7
:109F9000CFFE30F0080303D0BDE80840FDF700B85D
:109FA00008BD00BF243B00202DE9F8430B78012BAE
:109FB00006460D4623D0022B4AD0002B56D12C4BFF
:109FC0002C4C2D49E41AE408240444F003042046F0
:109FD000FCF7EEFC698805F10E02304601F02AFC20
:109FE00008B1FCF7DDFF304601F0A2FB08B1FCF739
:109FF000D7FF20462149BDE8F843FCF7D9BC1D4CEA
:10A000001B4B8E688F89DFF87C90E41AE4082404E7
:10A0100044F001040025BD4209D33E4416F8013C3A
:10A020000D2B23D10A20FDF7C1FA1128F9E7705D45
:10A03000FDF7BCFA804648B11128F8D020462A46E0
:10A040004946FCF7B9FC4046FCF7AAFF0135E2E7B8
:10A05000074B08480A49C01AC008000440F0030032
:10A06000FCF7A6FCBDE8F843FFF7E4BEBDE8F883C3
:10A07000D8C6020000C702003ED0020052D0020043
:10A08000A6D0020080D002001FB50378052B12D0A5
:10A09000062B17D0042B2AD1164B17481749C01A84
:10A0A000C008000440F00300FCF782FC04B0BDE8E7
:10A0B0001040FFF7BFBE4068C8B104B0BDE8104013
:10A0C000FCF76EBF41680B4C0B488B784A78001B3D
:10A0D0008C7903944C7902940C790194C008C97866
:10A0E00000910004064940F00300FCF784FC04B032
:10A0F00010BD00BFD8C6020000C70200E2D00200B7
:10A10000B4D0020008B50849084800F0ADFD08B118
:10A11000FCF746FF0548F72100F0BAFD18B1BDE88D
:10A120000840FCF73DBF08BD1D9F02003C3B0020DE
:10A1300000B54FF480418BB00020FCF7A5FA08B1C0
:10A14000FCF72EFFFCF7E0F9FDF71EF808B1FCF76D
:10A1500027FF4B4D0FCD04AC0FC495E80300494BCE
:10A16000494A00934FF4807384E80300CDE9022349
:10A170000193464A0723694604A8FDF7A9F908B1E7
:10A18000FCF70EFF42490120FFF7B8FC08B1FCF7CD
:10A1900007FF04A90020FFF7A9FD08B1FCF700FFA5
:10A1A0000822002104A801F0EFFE3A4C3A4B049338
:10A1B00004A8059400F04CFB08B1FCF7F1FEFDF794
:10A1C00041FF08B1FCF7ECFE01F08CFB08B1FCF795
:10A1D000E7FE002304A90120049301F011FC08B15B
:10A1E000FCF7DEFE04A801F0DDFC08B1FCF7D8FEA8
:10A1F000FFF788FF294B0493294B2A4804A9CDE98E
:10A20000053401F02FFA08B1FCF7CAFE1022002134
:10A210000DEB020001F0B8FE0123234A23488DF81C
:10A22000143004A98DF81C3001F085F808B1FCF752
:10A23000B7FE1F4A1D48032101F052F808B1FCF790
:10A24000AFFE1A480022042101F061F808B1FCF7C2
:10A25000A7FE184801F03EFE174B18481849C01ACF
:10A26000C008000440F00300FCF7A2FBFFF7E2FD8A
:10A27000FCF75AFA0028FBD1FDF7FAFEF8E700BF19
:10A2800038D10200A03B0020A03C0020599E0200D3
:10A29000759F0200502A0020419D0200A99F0200E4
:10A2A0003D9D0200243B002089A00200503B00207D
:10A2B00064D10200F2D00200D8C6020000C702003A
:10A2C00016D102000369C1688B429DBF8268D21813
:10A2D00002F1FF3203F1FF3394BF501A581A70474E
:10A2E0002DE9F843D0E902940546A9EB040840683B
:10A2F000904520440F46144404D901F01CFEEC6044
:10A30000BDE8F8834246A4EB090401F014FE686836
:10A31000224607EB0801F0E72DE9F843C568064639
:10A32000894617464FF000083469B3687068A54243
:10A3300028BFE418013C621B5C1BBC4228BF3C46A2
:10A34000944228BF144649462844224601F0F3FDB2
:10A35000B3682544AB4208BF00253F1BA044A1447D
:10A36000F560E1D14046BDE8F883000010B5114C1E
:10A37000114AA2610223C4E90433104BE361A264D1
:10A380004FF400730E4A0F492362E2640023102247
:10A39000E01DA3626362E362A3656365E365226512
:10A3A00001F025FE0849204601F021FE2023A3717B
:10A3B00010BD00BFA03D002068D10200283E002053
:10A3C000183E002071D1020075D10200F8B5184C7A
:10A3D000182300FB033503FB00402544C46A012C0D
:10A3E0000F4616460FD0022C1AD0F4B92846FFF7B4
:10A3F00069FF864205D8324639462846FFF770FF86
:10A4000034462046F8BD2846FFF75CFF86423446B6
:10A4100028BF0446224639462846FFF761FFF0E789
:10A420002846BDE8F840FFF777BF0024E9E700BF02
:10A43000A03D0020FFF79ABF64DF704730B5C8B178
:10A44000F2B10024651C8D4206DA1588A54212D8A7
:10A4500005196D789D420ED1A14211D9005D48B118
:10A46000013880B230B10234A3B210FA84F4A142B0
:10A4700006DB138030BD055D01352C44A4B2E1E755
:10A480000020F7E7F0B587B0002306460C461046DB
:10A49000ADF8063002AA10230DF105018DF8053044
:10A4A000FFF7CAFF16B9002007B0F0BD0028FAD1A7
:10A4B0009DF80550042D2BD0102D2BD0022DF3D15B
:10A4C0000323BDF806207AB90DF106022146304675
:10A4D000FFF7B4FFBDF806302BB92B460DF106028D
:10A4E0003046FFF7ABFF0446BDF80670002FDAD008
:10A4F0000025AC42D7D9E8199DF8052002A93044BF
:10A5000001F0B5FC48B19DF805301D44ADB2F0E74F
:10A510000523D6E706250723D3E70120C4E700007B
:10A5200030B50B4B19680B4B0022914201D1002032
:10A5300009E09D788478A54206D11D880488A5424B
:10A5400002D1054B186830BD01320433EDE700BF7E
:10A550003040002034400020284000202DE9F84FF2
:10A5600090F8C6A24FF0760B04460AFB0B00884613
:10A570009146FFF7D5FF074670B3D4F8CC52052DAE
:10A580002AD804EBC5165A46A6F8D2920BFB0A410C
:10A5900006F5357001F0CFFCB8F1000F14BF0023B1
:10A5A000022386F8D0320D4BC6F84C731A68013579
:10A5B0009542C4F8CC521D460ED104F534760027DE
:10A5C000F36F304698472B6801379F4206F18006AB
:10A5D000F6D30023C4F8CC32BDE8F88F3040002019
:10A5E00030B5A1B004460D467C22002101A801F03F
:10A5F000CBFC03238DF80430044BADF806501B68E8
:10A6000002940BB101A8984721B030BD284000202A
:10A610002DE9F041074691F8C60276234FF0000875
:10A62000A0B081F8C88200FB03100C461546FFF766
:10A6300077FF064660B17C22414601A801F0A4FCE8
:10A6400001238DF80430ADF80650029701A8B047F9
:10A6500029462046FFF7C4FF20B0BDE8F081000086
:10A6600030B58BB0044620220D4602A8002101F02F
:10A670008BFC04220DEB0200002101F085FC94F814
:10A68000C53294F8C62213B3013B7621DBB25143A5
:10A69000122000FB031323445B8A01339BB2ADF805
:10A6A0000430762303FB024202A91389ADF8063079
:10A6B00003238DF80830019BCDE90543064B049335
:10A6C000064B2A46186800F0DFFC0BB030BD76233D
:10A6D00003FB0243DB88E2E711A602004C400020A6
:10A6E000F0B5044689B020220D466846002101F0ED
:10A6F0004BFC94F8C7321E4A01331268DBB2934216
:10A7000084F8C7324FF000022BD294F8C632194FAA
:10A7100084F8C5220133DBB2762113FB01F057F830
:10A72000237084F8C6322618275001FB0343327188
:10A730001B68CDF81230104B029302220F4B8DF89C
:10A7400000200122ADF81020186803942A466946BB
:10A7500000F09AFC18B12A462146FFF759FF09B0CC
:10A76000F0BD84F8C82229462046FFF739FFF6E7F6
:10A77000304000203440002011A602004C40002050
:10A780002DE9F047044688B00D46164600212022E8
:10A79000684601F0F9FB94F8C62294F8C5127623B6
:10A7A00012FB03F2A018122790F804C017FB012334
:10A7B00001F1010E0A33E645234411D004F11C09CE
:10A7C00000F1220E0CF1FF389144CAB294450BD926
:10A7D00088451B890ED102899A421BD1002312E0C1
:10A7E0001B890289934215D101232B70002008B0E8
:10A7F000BDE8F08707FB01FA01333EF80A209342D7
:10A800001DD109EB0A0394F8C522013284F8C52250
:10A810000131DAE701339BB2ADF810300A4B0293F5
:10A8200000210A4B297004218DF80010ADF8122088
:10A83000186803943246694600F026FCD7E7013ACF
:10A840009BB292B2E8E700BF11A602004C40002084
:10A8500010B570B1026862B1436853B10649002077
:10A860000860064901240C7005490A60054A136016
:10A8700010BD0E20FCE700BF304000202C4000201F
:10A88000284000204C40002010B5044680B10C4BFD
:10A890001B787BB1FFF744FE70B90A4A1368052B99
:10A8A0000CD80949246841F823400133136010BDD6
:10A8B0000E20FCE70820FAE70020F8E70420F6E77E
:10A8C0002C4000203040002034400020F0B50D46E0
:10A8D0008BB0044600283BD0204B1B78002B39D08E
:10A8E0001F4B1B68002B35D090F8C812002933D1BC
:10A8F0004FF4BA621B4F019101F046FB01992022EF
:10A9000002A801F041FB3868294600F05DFCE8B977
:10A91000154BC4F8CC0284F8C502A4F8C602186826
:10A92000206002238DF808300126104BCDF81A0064
:10A93000A4F8CA523868ADF818602A4602A90594EE
:10A94000049300F0A1FB08B984F8C8620BB0F0BD15
:10A950000E20FBE70820F9E71120F7E72C40002044
:10A96000304000204C4000203440002011A602005E
:10A970002DE9FF410C46054660B159B1904B1B785B
:10A9800043B10388322B64D007D8112B00F00A8121
:10A99000302B20D004B0BDE8F081332BFAD182886F
:10A9A000B1F8CA329342F5D1C68891F8C6C291F87F
:10A9B000C572002E00F0C080762101FB0C4C0023F4
:10A9C0009CF804108DF80F307B1C8B4200F0E48063
:10A9D00084F8C532A2E08388B1F8CA229A42D9D15C
:10A9E000C3886BBB91F8C632762202FB031302695F
:10A9F000C3F8062091F8C432827A1344062B0CDC8B
:10AA000081F8C432A9882046FFF72AFE0028C1D069
:10AA1000AA882146FFF7FCFDBCE7062381F8C43273
:10AA20006848694B6949C01AC008000440F0020038
:10AA30000190FBF7BDFF66490198FBF7B9FFE1E71D
:10AA400000212046FFF78AFDA9882046FFF748FE2F
:10AA5000A0E78288B1F8CA329A429BD1C388002B02
:10AA600058D191F8C672762317FB03F701EB07085C
:10AA7000837A98F804603344062B26DC88F8043087
:10AA8000334603EBC30207EB420205F10C062244F6
:10AA9000002198F80400834206F10A0602F112022E
:10AAA00027D31222013B02FB034394F8C6227621EE
:10AAB0003B4401FB0242598A138999422AD2062853
:10AAC00028D0A98884F8C5029DE7062388F80430B9
:10AAD0003C483D4BCA5B3F49C01AC008000440F0E7
:10AAE00002000190FBF768FF3B490198FBF760FF0C
:10AAF000C6E73046013350F80ACD42F808CCD0F80A
:10AB000004C042F804CC0089108051809180D1802B
:10AB10001181BEE7002384F8C532AA880DF10F0128
:10AB20002046FFF72DFE00287FF472AF9DF80F300E
:10AB3000002B3FF42FAF32E0762303FB0CF11223FE
:10AB400003FB0713B0F80AE023447645BFF434AFA3
:10AB5000C189A1F52451082908D8DFE801F01417AC
:10AB60000507070707071A0081899982998A39B171
:10AB7000D98A29B1198B19B1598B00297FF41CAFDF
:10AB800001360630E1E78189D982EFE781891983AF
:10AB9000ECE781895983E9E701238DF80F30AA8812
:10ABA00001214EE7B1F8CA3282889A4201BF0023E0
:10ABB00081F8C8324FF6FF73A1F8CA32EAE600BF47
:10ABC0002C40002018C70200D8C602007CD1020029
:10ABD0009BD10200E0D1020026D2020090DF704734
:10ABE000A5DF7047B5DF70477FB50023ADF80810CB
:10ABF000ADF80A106A4602A9064603930093ADF821
:10AC00000430FFF7EBFF054600B3124B124CE41A79
:10AC1000E408FDF7CBFB240444F0010403460F498C
:10AC200032462046FBF7D1FEBDF80020BDF80230C9
:10AC300052EA030103D00A492046FBF7C6FEBDF8DD
:10AC400004201AB107492046FBF7B6FE284604B097
:10AC500070BD00BFD8C6020038C702008CD2020007
:10AC6000D6D2020015D3020080B14FF0F713036073
:10AC7000FB230371F723C3801723038141F6FB32C3
:10AC80000023016143818281184670470E2070477E
:10AC900030B1A1F11703E02B04D8418000207047A8
:10ACA0000E2070470720704713B5034680880C4676
:10ACB000B8B91A88242A00F0968014D8112A71D0C5
:10ACC000232A00F09E80102A3BD0A37A4BB1E18862
:10ACD0000020FFF785FF002840F099804FF4807333
:10ACE000638102B010BD3A2A65D0552AEDD1DB88C8
:10ACF000C988A072172B38BF17238B4228BF0B4679
:10AD00002381FFF76FFF60B1FDF750FB484B4949C6
:10AD1000024649481B1ADB081B0443F00100FBF7FD
:10AD20004BFEE37A002BD0D12369002BCDD040F627
:10AD3000772200922289ADF8042069462046984780
:10AD4000C3E7DB7B0A790A73012B13D0022B14D0E3
:10AD5000E18823898B4205D20020FFF741FF70B9BB
:10AD60000123E372217B637B8B42AED20020FFF78D
:10AD70003BFFAAE70B88E380EAE74B88FBE7112853
:10AD800002D10123A372EDE7FDF710FB284B2B49FD
:10AD9000024629481B1ADB081B0443F00100FBF79D
:10ADA0000BFEDFE7F723CB8017230B8141F6FB3344
:10ADB00048818B8189E75B89CA88934228BF134603
:10ADC000172B0A6938BF17230B814AB1C97A39B1E9
:10ADD00040F677210091ADF804306946204690474F
:10ADE0000023638171E71A7A0B694A73002B3FF4E1
:10ADF0006CAF4DF67A218DF8050000918DF8042096
:10AE00009BE7197A237B994228BF1946AFE711289F
:10AE10003FF467AFFDF7CAFA054B084902460648FA
:10AE20001B1ADB081B0443F00100FBF7C5FD58E7C4
:10AE300038C702009CD30200D8C602006BD30200C0
:10AE40009BDF70479DDF70479EDF7047A1DF704733
:10AE5000A3DF7047AEDF704730B5048800239AB295
:10AE6000944206D9456835F813508D4203F1010329
:10AE7000F5D1104630BD8B6910B50C4619881029E4
:10AE800012D80231FDF783F8606078B1A169002320
:10AE90000222FDF7BEF8A26960681288E169022308
:10AEA000FDF7B7F8002010BD0920FCE70420FAE701
:10AEB00010B50C46C98A10290AD8FDF768F86060F9
:10AEC00040B1E28AA1690023FDF7A3F8002010BD7C
:10AED0000920FCE70420FAE7F0B58BB00022044615
:10AEE0000DF10601C068124EFDF7B7F914250246B0
:10AEF0000AB10BB0F0BDBDF80670A36805FB0737BB
:10AF000002A93846FDF7A9F938B10022E0680DF131
:10AF10000601FDF7A2F90246EAE79DF8083056F867
:10AF2000233013B10398FDF71CF80022E8E700BFB7
:10AF300048D40200F7B505460C4C0D480092241A7F
:10AF4000E40824040B460F4616460A492A7844F0C2
:10AF50000100FBF744FDAB6833B1E9683A4630467F
:10AF600003B0BDE8F040184703B0F0BD40C7020091
:10AF7000D8C60200D8D30200F0B58FB00D4601222A
:10AF800006A90646FDF769F9044690B99DF8183000
:10AF9000052B65D8DFE803F0030F1C24292EBDF82C
:10AFA0002A20BDF828102846FFF750FF0446112C30
:10AFB00040D10FB0F0BD02A90798BDF82E200C912A
:10AFC0000023FDF730F80AA92846FFF741FFEDE717
:10AFD000BDF828100DF12A022846FFF731FFE5E7FA
:10AFE0000AA92846FFF72EFFE0E70AA92846FFF73F
:10AFF0002BFFDBE70DF1060402AB214607980D930A
:10B0000002220023FDF70FF8BDF806200D990798DE
:10B010000C940223FDF707F80AA92846BDF806702C
:10B02000FFF718FF04460028C1D1BDF80630BB4227
:10B0300018BF0C249DF818200F4B53F8223013B181
:10B040000798FCF78EFF002206A93046FDF705F9A8
:10B05000002CAED02246294606A8FFF76BFFA8E7D2
:10B060000648074B07491B1ADB081B0443F0020084
:10B07000FBF79EFCDEE700BF48D40200D8C6020002
:10B0800040C7020022D402002DE9F8430F461446BF
:10B09000054620B94FF00E084046BDE8F883002968
:10B0A000F8D0FFF719FF3B78052B6AD821462846D0
:10B0B000FFF7D2FE2B88834263D014264643A8684C
:10B0C0003044FDF7C3F8002860D03B78052B3BD80F
:10B0D000DFE803F00311171E242A7A8A398A2046F2
:10B0E000FFF7B4FE112851D058B302462146384626
:10B0F000FFF720FF25E007F110012046FFF7A8FE2B
:10B10000F0E7398A07F112022046FFF799FEE9E7D6
:10B1100007F110012046FFF795FEE3E707F1100164
:10B120002046FFF791FEDDE7BB6907F110012046DD
:10B13000B3F80080FFF78EFE30BBBB691B88434528
:10B140000DD14FF00008A7E71B4B1C481C49C01A43
:10B15000C008000440F00200FBF72AFCF1E70C20D5
:10B16000C3E72869002895D0394698478046A0B1A2
:10B1700092E73B7859F82330BBB17868FCF7F1FED1
:10B1800013E04FF0070887E71128AED10D4A3B784E
:10B1900052F823309146002BE3D1A8683946304459
:10B1A000FCF7FEFF80460028E3D1A8682146304422
:10B1B000FFF7E2FE70E700BFD8C6020040C70200FA
:10B1C00022D4020048D40200F8B50D46044678B3F4
:10B1D000FFF782FE29462046FFF73EFE2288824284
:10B1E00011D00020F8BD616831F81310814203F1DD
:10B1F00001030BD0208800234FF6FF769AB28242DB
:10B200000BD30420EEE700234FF6FF7099B28A4279
:10B21000E9D82069FCF7A3FEECE761685A0001EB6E
:10B2200043078A5AB24203F10103E7D13D80D8E7D0
:10B230000E20D7E737B50C4608B301B30588112DAA
:10B2400015D181882046FFF707FE2388ADF8060058
:10B25000834214D0112D14D163684FF6FF7223F886
:10B2600010200DF10601E068FCF79AFF07E0A5F158
:10B2700030031F2BE5D9A5F150031F2BE1D903B0F3
:10B2800030BDA368142202FB0030FFF775FEF6E71D
:10B290008ADF70478BDF70478CDF704730B5037AE9
:10B2A00089B004460D46CBB1837C0193FFF7F2FFD2
:10B2B0001422002103A800F067FE019B04F10A029A
:10B2C00004F11401A81CFFF7E7FF05238DF80C30EB
:10B2D000049018B1636A0BB103A8984709B030BD58
:10B2E00010B5034668B162B103290CD1007960B989
:10B2F0001C8811888C4203D00121197112681A60D0
:10B3000010BD0E20FCE70720FAE70420F8E750B153
:10B31000CB060AD011F0040116BF0123417143711D
:10B320008271002070470E20704707207047007D13
:10B33000C0F3C0007047F8B50D460446002852D04F
:10B3400042620021082200F01FFE002D38D02B7928
:10B3500023722B7BA3742B68FBB104F1140203F15D
:10B36000080718685968164603C60833BB423246B8
:10B37000F7D1186830609B88B380AA68C2B113689F
:10B38000C4F80A305368C4F80E3004F12803A364EB
:10B390001F23A4F84C300020F8BD636903F0E303D9
:10B3A00043F4200343F4827363615023A361E4E711
:10B3B000062363811823E3604FF4C8732382E4E714
:10B3C0006369257203F0E30343F4200343F48273BB
:10B3D00063615023A361062363811823E3604FF464
:10B3E000C8732382D1E70E20D6E7000010B50446CB
:10B3F00086B048B31422002101A800F0C5FDFFF774
:10B4000049FF2046FFF793FF30B1636A23B1012261
:10B410008DF8042001A8984704F1480104F11400B4
:10B42000FFF736FF044630F008000BD00748084B02
:10B4300008491B1ADB081B0443F001002246FBF7F6
:10B44000BBFA204606B010BD0E20FBE7D8C60200AE
:10B4500028C7020060D402002DE9F04F06468BB0E9
:10B4600036F8083B1B2B07460C4600F094801D2B3A
:10B4700016D0102B32D1142200210DEB020000F067
:10B4800083FD06238DF81430BB88ADF81C3004F121
:10B4900014030993636A0696002B40F08F801DE029
:10B4A000142200210DEB020000F06EFD04F11403E4
:10B4B00020460993FFF73BFF04F1480A88B10223B5
:10B4C0008DF8143005A8636A069698475146002007
:10B4D000FFF7DEFE31462046FFF7E0FE0BB0BDE889
:10B4E000F08F94F8058094F80690B8F1000F45D0DD
:10B4F00094F804B0B98C224604EB8B0305469342C2
:10B500000CD1B9F1000F18D0AB4518D19DF81C3003
:10B5100043F004038DF81C30012313E0386A0191D5
:10B52000CDE90223FEF7AEFFDDE90112039B00B374
:10B530000135EDB2B9F1000F1ED1002DE6D14FF06B
:10B540000008434601220696B9F1000F19D09A422D
:10B550001DD100238DF8143031462046FFF79EFEA2
:10B56000636A0BB105A8984751460020FFF790FE8B
:10B57000B4E7B9F1000FC7D10432C0E743464246F1
:10B58000E1E7B8F1000F02D08DF81490E4E703234F
:10B590008DF81430E4E714220DEB0200002100F0D6
:10B5A000F3FC3A7A012A99D1636A002B96D00421E0
:10B5B00014348DF8141009948DF8182005A89847B4
:10B5C0008CE762DF70470B6903B118477047F0B52D
:10B5D0000C4687B014220546002101A800F0D4FCD7
:10B5E000227852BBA388012B27D1A1792B789942CD
:10B5F00023D194F808C0BDF81260BDF81400BDF85E
:10B600001670122111FB0C4123469446994216D123
:10B61000BCF1000F01D0ADF816701AB1ADF8126090
:10B62000ADF81400EB6843B16288ADF80620002243
:10B630008DF8042001A92846984707B0F0BDB3F85B
:10B640000EE0BEF1020F04D0BEF1030F05D012339D
:10B65000DCE7DF8A4FF0010CF9E7DE8A188B012264
:10B66000F5E70000F0B5184B87B002AA04460D4676
:10B6700003F1100C174618685968164603C60833BC
:10B6800063453246F7D1ECB1E5B1AB68D3B12146A1
:10B690003846FFF796FF98B923788DF806300123D6
:10B6A000ADF804304FF6FF7363802B68E3606B687E
:10B6B0002361AB68A0802081636101A8FFF7E4F8F3
:10B6C00007B0F0BD0E20FBE7C4D4020010B503465E
:10B6D00086B00846F9B1F3B149884FF6FF7291423E
:10B6E00019D09C888C4216D11988112915D0392976
:10B6F00011D182887AB1598991420CD1C26852B174
:10B7000001218DF8041003F11001DB890391ADF8DC
:10B71000103001A9904706B010BDC368002BFAD0C5
:10B7200002218DF80410428001A99847F3E7000038
:10B7300010B504468AB030B342884FF6FF739A4280
:10B7400023D0C3880BB32022002102A800F01CFCE8
:10B750000123ADF804308DF808300D4B6288606924
:10B76000CDE90434E388ADF81A304FF40033079381
:10B7700001AB089302A940F20113ADF81830FFF7AE
:10B7800083FC0AB010BD0E20FBE70820F9E700BFDC
:10B79000C7B5020070B50E4688B0154604460028AD
:10B7A0003CD020220021684600F0EEFBF42D0CD99D
:10B7B0001B4B1C481C49C01AC008000440F0020082
:10B7C000FBF7F6F8072008B070BD62884FF6FF73EC
:10B7D0009A420BD1124B13481449C01AC0080004F6
:10B7E00040F00200FBF7E4F80820ECE701238DF8B5
:10B7F00000300F4B6069ADF81650CDE90234238953
:10B80000ADF812300023ADF8143069464FF481735F
:10B810000696ADF81030FFF737FCD4E70E20D2E7DC
:10B82000D8C6020020C702008DD402009FD40200B7
:10B83000C7B5020050B141802AB15388C380138834
:10B840008380938803814069FFF7BEBC0E20704758
:10B8500010DF704713B5044609496846FCF74BFDF5
:10B86000019808B902B010BDD0E9002120469047E8
:10B8700018B16846FCF749FDF2E71120F2E700BF76
:10B88000E0D4020013B5044607496846FCF733FDCF
:10B89000019B0BB902B010BD2046D3E900219047AF
:10B8A0006846FCF732FDF3E7F8D402000B4991F843
:10B8B00016335A09EC231341DB0706D5084B9A6867
:10B8C0003AB94FF480030B60704742F20200FBF775
:10B8D00067BB1A6842F480021A60704700E100E01A
:10B8E00010370020F7B5194F3C7864BB184E01257E
:10B8F00020463570FFF7AEFF112821D02046FFF714
:10B90000C1FF144B8DF80340186801900DF103003E
:10B91000FBF774FE104901A8FFF79AFF0446B0FA3E
:10B9200080F0400938709DF80300FBF78BFE3CB9AE
:10B930000A4B34701C70FFF7B9FF2846FFF7A2FFCF
:10B94000204603B0F0BD0824FAE700BF51400020B4
:10B9500050400020DCD40200BD6F020052400020A5
:10B96000014B1878704700BF5140002007B50849C7
:10B970006846FCF7C0FC019B13B903B05DF804FBFB
:10B98000D3E9002090476846FCF7BFFCF3E700BF0F
:10B99000ECD40200FFF7EABF60DF704769DF704751
:10B9A00061DF704730B5114DADF5017D4FF4FA748C
:10B9B0000DF1020103A8ADF80240FFF7F1FF70B9E5
:10B9C000294601A8FCF797FC029B002BF0D003A8A6
:10B9D000D3E90021904701A8FCF797FCF4E705287C
:10B9E00001D0FBF7DDFA0DF5017D30BD80D70200F7
:10B9F000024B1B780BB1FFF7D5BF704753400020B7
:10BA000030B5054685B00C46002900F0B6805C4B89
:10BA10000B600C22002101A800F0B6FA01238DF87A
:10BA2000063022688DF80450062301A92020ADF8C5
:10BA30000830FFF7B3FF60B1FCF7B8FC514B524937
:10BA4000024652481B1ADB081B0443F00100FAF7B8
:10BA5000B3FF0C22002101A800F096FA00238DF814
:10BA60000530226840F2011301A94020ADF80630EC
:10BA7000FFF794FF60B1FCF799FC424B4449024642
:10BA800042481B1ADB081B0443F00100FAF794FF3D
:10BA90000C22002101A800F077FAF72322688DF824
:10BAA000045001A92320ADF80630FFF777FF60B1FD
:10BAB000FCF77CFC334B3749024634481B1ADB0841
:10BAC0001B0443F00100FAF777FF0C22002101A8C4
:10BAD00000F05AFA012022688DF8040001A9FFF74E
:10BAE0005DFF60B1FCF762FC264B2B4902462748FC
:10BAF0001B1ADB081B0443F00100FAF75DFF0C2260
:10BB0000002101A800F040FA4FF4B06322680193CD
:10BB100001A9A120FFF742FF60B1FCF747FC194BD8
:10BB20001E49024619481B1ADB081B0443F001009A
:10BB3000FAF742FF0C22002101A800F025FA9DF837
:10BB4000043022686FF3000301A9A0208DF80430AF
:10BB5000FFF724FF034668B1FCF728FC094B1049A6
:10BB600002460A481B1ADB081B0443F00100FAF7DF
:10BB700023FF0023184605B030BD0E23FAE700BFAF
:10BB8000282A002050C7020004D50200D8C60200AF
:10BB90004AD5020096D50200DDD5020029D6020062
:10BBA0007AD6020073B505460668FFF7F5FE2B68E6
:10BBB000B34204461DD91A481A4B1B491B1ADB080D
:10BBC0001B0443F002000190FAF7F2FE2B681749BC
:10BBD00001983246FAF7F9FE4FF080532A68D3F8FD
:10BBE0000C31134901989B0203F100539A1AFAF79A
:10BBF000E3FE2CB90F4B01221A70204602B070BD33
:10BC00002046FCF7D3FB074B0B49024604481B1A9E
:10BC1000DB081B0443F00100FAF7CEFEEDE700BF9E
:10BC2000D8C6020050C70200CDD60200FCD60200E2
:10BC30002DD702005340002057D702004BDF70473A
:10BC40001FB50D4C01A8FFF7F9FF70B9214602A8F6
:10BC5000FCF751FB039B002BF4D00198D3E90021A2
:10BC6000904702A8FCF751FBF4E7052801D0FBF749
:10BC700097F904B010BD00BF98D7020053EA020C38
:10BC800061D02DE9F04BB3FA83F51E0007BFB2FA7D
:10BC900082F502FA05F403FA05F41646C5F120050B
:10BCA0001EBF22FA05F73C43203556EA044C4FEA02
:10BCB000144418BF0134A3464FF00009C84690420F
:10BCC00071EB030C39D3094207BFB0FA80F700FAD1
:10BCD00007F6B1FA81F701FA07F6C7F120071EBF90
:10BCE00020FA07FC46EA0C062037B6FBFBFC7F1B5C
:10BCF000103F07F01F04C4F120060CFA04F42CFADC
:10BD000006F644BF34460026202FA4BF2646002452
:10BD100054EA060C08BF012418EB040849EB060995
:10BD2000A4FB027CC01B06FB02CC04FB03CC71EB22
:10BD30000C01904271EB030CC5D20B4602464946FA
:10BD40004046BDE8F08BB2FBF3F200007F2805D837
:10BD5000034B185C034B5B5C184070470020704736
:10BD6000B0D7020030D80200A0F16103192B98BFB0
:10BD700020387047A0F14103192B98BF203070473D
:10BD80007F2805D8034B185C034B5B5C1840704759
:10BD900000207047B0D7020030D80200A0F1610344
:10BDA000192B98BF20387047A0F14103192B98BF79
:10BDB000203070477F299ABF017001206FF02E005C
:10BDC00070475AB10A787F2A0AD800B10260002170
:10BDD00019605960501A18BF012070470020704741
:10BDE0006FF02E00704738B504460846A26842B18D
:10BDF000236861685D1C8D4208BF00208B4208D219
:10BE0000D054E3682BB121686268914201D2214687
:10BE1000984723680133236038BD70B54C1E09D4A0
:10BE20001646C5B229463046FFF7DDFF013CB4F1A6
:10BE3000FF3FF7D170BD10F0100F08D108B510F416
:10BE4000007F14BF30202020FFF7E7FF08BD7047B8
:10BE500008B5034B5B689B681B68984708BD00BF2B
:10BE60003830002008B50921FFF7F2FF08BD7AB38A
:10BE700070B414460F2A15D902460B4640EA010554
:10BE800015F0030F01D0013C0EE0194610460432B4
:10BE9000043306680D68AE4204D110461946043CCE
:10BEA000042CF2D8013C0ED00A4603460444114645
:10BEB00018460133013206780D78AE4203D1184698
:10BEC0001146A342F3D100780B78C01A70BC7047BA
:10BED000002070470FB410B586B008AB53F8044B80
:10BEE0000593002303936FF000430293084B0493E0
:10BEF00000F0EAFB059A214601A800F0CBF80446C1
:10BF000000F0E3FB204606B0BDE8104004B07047E7
:10BF1000C1830200037853B159B10144034613F8B9
:10BF2000012F12B18B42FAD10B46181A7047034603
:10BF3000FBE70346F9E7844640EA010313F0030FE9
:10BF400018D18446202A0BD32DE9F007B1E8F80771
:10BF5000A0E8F807A2F12002202AF7D2BDE8F007F6
:10BF6000042A07D351F8043B40F8043BA2F1040231
:10BF7000042AF7D2002A05D011F8013B00F8013B52
:10BF8000013AF9D1604670478446002A2DD010F05E
:10BF9000030F04D000F8011B013A26D0F7E7C9B21D
:10BFA00041EA012141EA0141202A12D3A2F12002F3
:10BFB0002DE9F0030B460C460D460E460F4688460B
:10BFC0008946A0E8FA03203AFBD2BDE8F00320320C
:10BFD0000BD0042A05D340F8041B043A05D0042AE8
:10BFE000F9D200F8011B013AFBD1604670470246C6
:10BFF00010F0030F16D111F0030F13D12DE9F0004B
:10C000004FF001374FF0803351F8044BA4EB070594
:10C0100025EA04051D4002D142F8044BF4E7A1F1E2
:10C020000401F0BC11F8013B02F8013B002BF9D1EF
:10C03000704700F1010110F0030F11D010F8012B2F
:10C04000002A23D010F0030F0AD010F8012B002A89
:10C050001CD010F0030F03D010F8012B002A15D0CC
:10C060002DE970004FF001324FF0803350F8044B4F
:10C07000A4EB020525EA04051D4000D1F6E7A0F176
:10C08000040070BC10F8012B002AFBD1A0EB0100CA
:10C09000704700002DE9F04F89B007460392002356
:10C0A00003600C4614F8011B002900F0FA82DFF847
:10C0B00014B5E9E2002507E05E2868D145F4805513
:10C0C00001E045F040051C46234613F8010B3028DB
:10C0D000F2D81F2837D9A0F12002102A33D801A1A5
:10C0E00051F822F0C3C0020047C1020047C102005C
:10C0F00029C1020047C1020047C1020047C1020036
:10C100002FC1020047C1020047C1020047C102001F
:10C1100035C1020047C102003BC1020047C1020015
:10C1200047C1020041C1020045F08005CBE745F45C
:10C130000045C8E745F02005C5E745F01005C2E712
:10C1400045F40075BFE72A2821D1039A111D0391F8
:10C15000D2F800A0BAF1000FBCBFCAF1000A45F046
:10C1600010051878A31C2AEAEA7A2E2826D0002186
:10C17000742847D07A2845D06C2800F0A8804C2835
:10C1800000F0AB80682800F0B8801C463DE0A0F1CC
:10C190003002D2B2092A88BF4FF0000AE3D84FF02C
:10C1A000000A0AEB8A0A303800EB4A0A13F8010B3E
:10C1B000A0F13002D2B2092AF3D9D4E718782A289C
:10C1C0000AD1039A111D039111685878023300298E
:10C1D000CEDB45F48075CBE70133A0F13002D2B25B
:10C1E000092A88BF0021F4D8002101EB81013038F1
:10C1F00000EB410113F8010BA0F13002D2B2092A81
:10C20000F3D9E4E71C4614F8010B002800F055822E
:10C21000A0F12503DBB2532B62D8A0F12503532BE9
:10C220005ED8DFE813F076005D005D005D005D0024
:10C230005D005D005D005D005D005D005D005D0016
:10C240005D005D005D005D005D005D005D005D0006
:10C250005D005D005D005D005D005D005D005D00F6
:10C260005D005D005D005D005D005D005D005D00E6
:10C270005D005D005D005D005D005D005D005D00D6
:10C280005D005D005D005D005D005D00EB005D0038
:10C290005D005D005D005D005D005D005D005D00B6
:10C2A0005D007B0020015D005D005D005D00200100
:10C2B0005D005D005D005D0095000E01D1005D0038
:10C2C0005D00A6005D0019015D005D00ED001C46EB
:10C2D00014F8010B45F0010597E745F001051C46F0
:10C2E000B44B1E68002E00F0CC8103AB019300918B
:10C2F00053462A463946B047C3E11878682803D028
:10C300005C1C45F0040580E745F008059C1C587846
:10C310007BE725213846FFF766FDB2E1039B1A1D36
:10C3200003921E780AF1FF3A3A4651462846FFF733
:10C3300082FD31463846FFF756FDA94619F0100F29
:10C3400000F09F813A4651462020FFF766FD98E1B4
:10C3500015F0080F06D03A68039B191D03911B685E
:10C360001A708EE1039B1A1D03921B683A681A60CB
:10C3700087E1039B1A1D0392D3F800808E4BB8F11E
:10C38000000F08BF9846464625F4007915F4807FD3
:10C3900015D04046FFF7BEFD0546AAEB050A3A4612
:10C3A00051464846FFF747FD002DC7D0454416F8D3
:10C3B000011B3846FFF717FDB542F8D1BEE74046EE
:10C3C000FFF737FE0546E8E7039B1A1D03921B683B
:10C3D00015F0800F0CBF0026232645F48075082138
:10C3E0001A46002B00F0298105AB4FF0000805F438
:10C3F000005CA64660468C460146D1E045F40055F7
:10C4000015F0800F1BD043F2780643F258037828CA
:10C4100018BF1E4615F4807F01D025F4007515F471
:10C42000804F32D0039B1A1D03921B6815F0040F36
:10C430001FD01BB2002B20DA5B422D262DE00026F8
:10C44000E8E715F0800F0CBF0026302615F4807F3A
:10C45000E5D025F40075E2E715F4807F07D025F4D8
:10C4600000750026DBE745F480450026D7E7002667
:10C47000D5E715F0080FDDD0DBB215F0200F60D145
:10C4800015F0400F18BF202607E0039B1A1D0392EA
:10C490001B6815F0040F4FD09BB215F4807F14BFBA
:10C4A00025F4007501215838202800F2AE8001A241
:10C4B00052F820F0E1C302000BC602000BC60200D6
:10C4C0000BC602000BC602000BC602000BC6020020
:10C4D0000BC602000BC602000BC602000BC6020010
:10C4E0000BC602006FC502000BC602000BC602009D
:10C4F0000BC602000BC602006FC502000BC602008D
:10C500000BC602000BC602000BC602000BC60200DF
:10C5100047C50200E1C302000BC602000BC60200C1
:10C520000BC602000BC602006FC502000BC602005C
:10C530000BC60200E1C3020015F0080FADD0DBB25C
:10C54000ABE72B26A9E71A464FF00008002B5ED078
:10C5500005A84FF0000803F00703303300F8013B53
:10C5600008F10108D2081346002AF4D14FE018461A
:10C570004FF00008002B4AD04FF0000805F4004EA1
:10C580004FF02C0973468E4619462FE002F00F003B
:10C590000A4C205C03F8010B08F10108120906D0CF
:10C5A0000029F3D002F00F00054C205CF2E774463E
:10C5B00061462CE05440002004DA0200E4D9020075
:10C5C000F4D90200CDCCCCCC08AB03EB080CABFB10
:10C5D0000032D20802EB8203A0EB430330330CF8A5
:10C5E0000C3C08F1010809280DD910460029EBD0B0
:10C5F00008F00303032BE7D108AB434403F80C9C7A
:10C6000008F10108E0E7714601E04FF00008A1EBF6
:10C61000080121EAE179AAEB090AAAEB080AFF2E30
:10C620000ED9AAF1020AC6F307213846FFF7DBFB51
:10C63000F1B23846FFF7D7FB04E04FF00008E6E719
:10C64000002E3DD13A4651462846FFF7F4FB3A46C4
:10C6500049463020FFF7E1FBB8F1000F0EDD0DF188
:10C66000140908F1FF38C84498F8001046463846C7
:10C67000FFF7B9FBC14508F1FF38F5D115F0100FF0
:10C6800009D114F8011B61B125293FF413AD3846D7
:10C69000FFF7A9FBF5E73A4651462020FFF7BDFB1F
:10C6A000EFE7BB682BB13A6879688A423CBF00214A
:10C6B0009954386809B0BDE8F08F4FF0FF30F9E7C2
:0CC6C0000AF1FF3AB4E700BF7047704772
:08C6CC000588020000000000D7
:04C6D400FD9E0200C5
:10C6D80006CF0200000000000CCF0200000000009E
:10C6E80013CF02000000000017CF02000000000076
:10C6F8001CCF02000000000045C802000000030330
:10C708001CC902000000000045C90200000000002A
:10C7180080D2020000000303BAD402000000030321
:10C7280084D402000000030300CF020000000000D0
:10C73800CBD30200000003033DD402000000030332
:10C74800D4D402000000030374D7020000000303DE
:10C758008CD7020000000303D6C9020000000000C5
:08C76800ECC902000000000012
:10C770009030002058310020603100209830002097
:10C780001800000098390020603A0020683A002024
:08C79000A03900201800000090
:10C798006C3A0020683A0020010000000200000006
:04C7A800010000008C
:08C7AC00A1880200000000005A
:10C7B400F1B902000000000041BC020000000000CA
:10C7C4004D9C02000000000035B20200502A0020F7
:10C7D40059B40200503B002071A90200682A0020CD
:10C7E400A9AC02003C3B0020CDB60200243B002053
:08C7F4004D9D02000000000051
:10C7FC0018C802000000000024C80200282A0020EB
:10C80C00000000000338FDD870470000D56302001B
:10C81C0041640200D16302007274745F6C6F675FD5
:10C82C006261636B656E64004261636B656E647319
:10C83C0020666C75736865640061707000000000A0
:10C84C00803500207F000000003600201B5B306D1F
:10C85C00002573001B5B313B33316D0025734C6F2E
:10C86C0067732064726F70706564202825642925B5
:10C87C00730D0A003C25733E2025733A20002025B9
:10C88C0030327800202020007C002563001B5B31B7
:10C89C003B33306D001B5B313B33326D001B5B3126
:10C8AC003B33336D001B5B313B33346D001B5B3111
:10C8BC003B33356D001B5B313B33366D001B5B31FD
:10C8CC003B33376D007761726E696E6700696E6617
:10C8DC006F0064656275670058C8020099C8020051
:10C8EC0060C80200A1C80200A9C80200B1C80200B9
:10C8FC00B9C80200C1C80200C9C80200000000008B
:10C90C0032C90200D1C80200D9C80200DEC8020038
:10C91C006170705F627574746F6E00002036002059
:10C92C00466174616C206572726F72005379737416
:10C93C00656D207265736574006170705F74696DEC
:10C94C006572000001000600000000005C3600204B
:10C95C0091700200FFFFFFFFFFFFFFFFFFFFFFFFD4
:10C96C00FFFFFFFF00000000000000000000D601E8
:10C97C000601000052544320696E7374616E636546
:10C98C0020616C726561647920696E697469616C8F
:10C99C00697A65642E005254433A20696E69746951
:10C9AC00616C697A65642E000000000000000000D4
:10C9BC00000000000338FDD8704730313233343575
:10C9CC00363738394142434445467077725F6D675C
:10C9DC006D740000D4C60200D8C60200040000002A
:10C9EC00736F72746C697374004E52465F53554387
:10C9FC0043455353004E52465F4552524F525F537C
:10CA0C0056435F48414E444C45525F4D4953534940
:10CA1C004E47004E52465F4552524F525F534F465F
:10CA2C00544445564943455F4E4F545F454E414231
:10CA3C004C4544004E52465F4552524F525F494E50
:10CA4C005445524E414C004E52465F4552524F5245
:10CA5C005F4E4F5F4D454D004E52465F4552524F13
:10CA6C00525F4E4F545F464F554E44004E52465FF8
:10CA7C004552524F525F4E4F545F535550504F5288
:10CA8C00544544004E52465F4552524F525F494EF8
:10CA9C0056414C49445F504152414D004E52465F05
:10CAAC004552524F525F494E56414C49445F535484
:10CABC00415445004E52465F4552524F525F494ECB
:10CACC0056414C49445F4C454E475448004E5246E3
:10CADC005F4552524F525F494E56414C49445F4656
:10CAEC004C414753004E52465F4552524F525F499C
:10CAFC004E56414C49445F44415441004E52465FAE
:10CB0C004552524F525F444154415F53495A45007C
:10CB1C004E52465F4552524F525F54494D454F5508
:10CB2C0054004E52465F4552524F525F4E554C4C3C
:10CB3C00004E52465F4552524F525F464F52424949
:10CB4C004444454E004E52465F4552524F525F4947
:10CB5C004E56414C49445F41444452004E52465F4C
:10CB6C004552524F525F42555359004E52465F4503
:10CB7C0052524F525F434F4E4E5F434F554E5400EF
:10CB8C004E52465F4552524F525F5245534F55528B
:10CB9C00434553004E52465F4552524F525F4D4FE4
:10CBAC0044554C455F4E4F545F494E495449414C96
:10CBBC00495A4544004E52465F4552524F525F4DC2
:10CBCC00555445585F494E49545F4641494C45447C
:10CBDC00004E52465F4552524F525F4D5554455888
:10CBEC005F4C4F434B5F4641494C4544004E5246C7
:10CBFC005F4552524F525F4D555445585F554E4C00
:10CC0C004F434B5F4641494C4544004E52465F45AD
:10CC1C0052524F525F4D555445585F434F4E445FEF
:10CC2C00494E49545F4641494C4544004E52465F7B
:10CC3C004552524F525F4D4F44554C455F414C52FB
:10CC4C00454144595F494E495449414C495A454420
:10CC5C00004E52465F4552524F525F53544F524111
:10CC6C0047455F46554C4C004E52465F4552524F1D
:10CC7C00525F4150495F4E4F545F494D504C454DAA
:10CC8C00454E544544004E52465F4552524F525FFA
:10CC9C00464541545552455F4E4F545F454E4142B7
:10CCAC004C4544004E52465F4552524F525F494FDD
:10CCBC005F50454E44494E47004E52465F455252D6
:10CCCC004F525F4452565F5457495F4552525F4F23
:10CCDC0056455252554E004E52465F4552524F5297
:10CCEC005F4452565F5457495F4552525F414E4123
:10CCFC00434B004E52465F4552524F525F44525680
:10CD0C005F5457495F4552525F444E41434B004E6E
:10CD1C0052465F4552524F525F424C455F49505309
:10CD2C00505F52585F504B545F5452554E434154D0
:10CD3C004544004E52465F4552524F525F424C455D
:10CD4C005F495053505F4348414E4E454C5F414CF8
:10CD5C0052454144595F455849535453004E52462D
:10CD6C005F4552524F525F424C455F495053505FA2
:10CD7C004C494E4B5F444953434F4E4E45435445EB
:10CD8C0044004E52465F4552524F525F424C455FF3
:10CD9C00495053505F504545525F52454A454354A4
:10CDAC00454400556E6B6E6F776E206572726F72B4
:10CDBC0020636F646500000000000000F5C90200EC
:10CDCC000100000001CA0200020000001FCA02009C
:10CDDC000300000040CA02000400000053CA020015
:10CDEC000500000064CA02000600000078CA0200B8
:10CDFC000700000090CA020008000000A8CA020048
:10CE0C0009000000C0CA02000A000000D9CA0200D2
:10CE1C000B000000F1CA02000C00000008CB02005D
:10CE2C000D0000001CCB02000E0000002ECB0200F7
:10CE3C000F0000003DCB02001000000051CB02009F
:10CE4C001100000068CB02001200000077CB02003A
:10CE5C00130000008CCB020080000000A0CB02006D
:10CE6C0081000000C1CB020082000000DDCB02007B
:10CE7C0083000000F9CB02008400000017CC0200F4
:10CE8C008500000038CC0200860000005DCC02005A
:10CE9C009000000074CC02009100000092CC0200C3
:10CEAC0092000000B0CC020000820000C5CC020051
:10CEBC0001820000E3CC020002820000FFCC0200E1
:10CECC00008400001BCD0200018400003FCD020055
:10CEDC000284000069CD0200038400008ECD0200A4
:10CEEC000000010100000001010000000D0E0F10F8
:10CEFC0011121314636C6F636B00434C4F434B0064
:10CF0C004750494F5445005052530055415254001C
:10CF1C0055415254450000000D000300E9970200F2
:10CF2C000E000300E99702000F000300E9970200CE
:10CF3C0010000300E9970200183800203838002050
:10CF4C0058380020446973636F6E6E656374656452
:10CF5C002E20636F6E6E5F68616E646C653A203074
:10CF6C007825782C20726561736F6E3A20307825A5
:10CF7C007800436F6E6E656374696F6E20526571D5
:10CF8C00756573742074696D6564206F75742E00FB
:10CF9C00436F6D6D756E69636174696F6E20657238
:10CFAC00726F72206F636375727265642077686943
:10CFBC006C652068616E646C696E672055415254D3
:10CFCC002E004572726F72206F63637572726564A6
:10CFDC0020696E204649464F206D6F64756C652044
:10CFEC007573656420627920554152542E0041546A
:10CFFC0054204D54552065786368616E67652063D5
:10D00C006F6D706C657465642E00426C65204E55B6
:10D01C0053206D61782064617461206C656E677457
:10D02C00682073657420746F203078255828256427
:10D03C002900446973636F7665727920636F6D7034
:10D04C006C6574652E00436F6E6E65637465642049
:10D05C00746F206465766963652077697468204E07
:10D06C006F7264696320554152542053657276691E
:10D07C0063652E006170705F756172745F7075749A
:10D08C00206661696C656420666F7220696E6465E8
:10D09C0078203078253034782E00446973636F6EB5
:10D0AC006E65637465642E00436F6E6E65637469A0
:10D0BC006E6720746F20746172676574202530323E
:10D0CC007825303278253032782530327825303258
:10D0DC007825303278005363616E2074696D656415
:10D0EC00206F75742E00424C4520554152542063DC
:10D0FC00656E7472616C206578616D706C652073FF
:10D10C007461727465642E0D0A00424C45205541C1
:10D11C0052542063656E7472616C206578616D7019
:10D12C006C6520737461727465642E0008000000D5
:10D13C0006000000050000000700000000000000D1
:10D14C0000E0D701183B0020783A002004000000D2
:10D15C002000000001000000010002005465726D07
:10D16C00696E616C00525454005345474745520058
:10D17C004E6F7420656E6F756768207370616365A0
:10D18C0020666F722073657276696365732E004931
:10D19C006E63726561736520424C455F44425F4427
:10D1AC004953434F564552595F4D41585F53525660
:10D1BC0020746F2062652061626C6520746F20732F
:10D1CC00746F7265206D6F7265207365727669631A
:10D1DC00657321004E6F7420656E6F7567682073E0
:10D1EC007061636520666F7220636861726163743D
:10D1FC006572697374696373206173736F636961BA
:10D20C0074656420776974682073657276696365E8
:10D21C0020307825303458202100496E63726561C6
:10D22C00736520424C455F474154545F44425F4D07
:10D23C0041585F434841525320746F20626520610E
:10D24C00626C6520746F2073746F7265206D6F72E1
:10D25C006520636861726163746572697374696374
:10D26C007320666F722065616368207365727669DE
:10D27C0063652100626C655F64625F64697363005F
:10D28C0073645F626C655F6761705F646174615F3A
:10D29C006C656E6774685F757064617465282920AD
:10D2AC00287265717565737429206F6E20636F6EBB
:10D2BC006E656374696F6E203078257820726574A2
:10D2CC0075726E65642025732E0054686520726536
:10D2DC00717565737465642054582F5258207061B1
:10D2EC00636B6574206C656E677468206973207459
:10D2FC006F6F206C6F6E672062792025752F2575F6
:10D30C00206F63746574732E0054686520726571A8
:10D31C0075657374656420636F6D62696E617469A1
:10D32C006F6E206F6620545820616E642052582016
:10D33C007061636B6574206C656E677468732069CB
:10D34C007320746F6F206C6F6E6720627920257567
:10D35C00206D6963726F7365636F6E64732E0073F7
:10D36C00645F626C655F67617474635F6578636842
:10D37C00616E67655F6D74755F72657175657374E9
:10D38C0028292072657475726E65642025732E00D1
:10D39C0073645F626C655F67617474735F657863F7
:10D3AC0068616E67655F6D74755F7265706C792806
:10D3BC00292072657475726E65642025732E006E5B
:10D3CC0072665F626C655F676174740053442047DA
:10D3DC004154542070726F63656475726520282502
:10D3EC006429206661696C6564206F6E20636F6EC2
:10D3FC006E656374696F6E2068616E646C65202560
:10D40C00642077697468206572726F723A20307884
:10D41C00253038582E00556E696D706C656D656ED3
:10D42C00746564204741545420526571756573745A
:10D43C00006E72665F626C655F67710000000000D1
:10D44C00B1AE02000000000000000000000000006F
:10D45C0077AE020073645F626C655F6761705F73C7
:10D46C0063616E5F73746172742072657475726E31
:10D47C006564203078257800626C655F7363616E3B
:10D48C0000436F6E74656E7420746F6F206C6F6EDA
:10D49C00672E00436F6E6E656374696F6E206861F2
:10D4AC006E646C6520696E76616C69642E00626CCA
:10D4BC00655F6E75735F63009ECADC240EE5A9E0A0
:10D4CC0093F3A3B50000406E6E72665F73646800E0
:10D4DC0001000007ACC70200ACC702000800000046
:10D4EC00B4C70200C4C7020008000000ACC70200A9
:10D4FC00B4C702000800000073645F626C655F6370
:10D50C0066675F73657428292072657475726E6521
:10D51C0064202573207768656E20617474656D7066
:10D52C0074696E6720746F2073657420424C455F7C
:10D53C00434F4E4E5F4346475F4741502E00736446
:10D54C005F626C655F6366675F7365742829207220
:10D55C00657475726E6564202573207768656E201E
:10D56C00617474656D7074696E6720746F20736577
:10D57C007420424C455F4741505F4346475F524FD2
:10D58C004C455F434F554E542E0073645F626C657F
:10D59C005F6366675F7365742829207265747572A2
:10D5AC006E6564202573207768656E2061747465E0
:10D5BC006D7074696E6720746F2073657420424CB3
:10D5CC00455F434F4E4E5F4346475F474154542E91
:10D5DC000073645F626C655F6366675F7365742874
:10D5EC00292072657475726E6564202573207768C6
:10D5FC00656E20617474656D7074696E6720746FEC
:10D60C002073657420424C455F434F4D4D4F4E5F28
:10D61C004346475F56535F555549442E0073645F2C
:10D62C00626C655F6366675F736574282920726539
:10D63C007475726E6564202573207768656E206141
:10D64C007474656D7074696E6720746F2073657483
:10D65C0020424C455F47415454535F4346475F411A
:10D66C005454525F5441425F53495A452E007364DF
:10D67C005F626C655F6366675F73657428292072EF
:10D68C00657475726E6564202573207768656E20ED
:10D69C00617474656D7074696E6720746F20736546
:10D6AC007420424C455F47415454535F4346475F97
:10D6BC00534552564943455F4348414E4745442ED6
:10D6CC0000496E73756666696369656E74205241B4
:10D6DC004D20616C6C6F636174656420666F7220A1
:10D6EC0074686520536F66744465766963652E00B3
:10D6FC004368616E6765207468652052414D2073E4
:10D70C0074617274206C6F636174696F6E206672E1
:10D71C006F6D203078257820746F20307825782E26
:10D72C00004D6178696D756D2052414D2073697A99
:10D73C006520666F72206170706C69636174696FCB
:10D74C006E20697320307825782E0073645F626CCC
:10D75C00655F656E61626C652829207265747572EF
:10D76C006E65642025732E006E72665F7364685F4D
:10D77C00626C6500C4C70200FCC702000800000010
:10D78C006E72665F7364685F736F6300CCC6020071
:10D79C00D4C602000800000043000000504F53495B
:10D7AC00580000002020202020202020206828283D
:10D7BC00282820202020202020202020202020204D
:10D7CC0020202020481010101010101010101010D5
:10D7DC0010101010848484848484848484841010B5
:10D7EC0010101010108181818181810101010101D2
:10D7FC0001010101010101010101010101010110FE
:10D80C0010101010108282828282820202020202A6
:10D81C0002020202020202020202020202020210CE
:10D82C0010101020000703200417020108571040A5
:10D83C0080000000A4D70200A8D80200BCD90200C6
:10D84C0053756E004D6F6E0054756500576564001E
:10D85C005468750046726900536174000000000042
:10D86C004A616E00466562004D6172004170720043
:10D87C004D6179004A756E004A756C004175670000
:10D88C00536570004F6374004E6F760044656300FF
:10D89C0000000000414D00504D000000E0D9020096
:10D8AC00DCD90200DCD90200DCD90200DCD9020090
:10D8BC00DCD90200DCD90200DCD90200DCD9020080
:10D8CC00DCD90200FFFFFFFFFFFFFFFFFFFFFFFFA1
:10D8DC00FFFF00001CD902004CD8020058D90200EE
:10D8EC006CD80200A0D8020000D90200B0D9020006
:10D8FC000CD90200256D2F25642F2579000000001E
:10D90C0025612025622025652025542025590000FD
:10D91C0053756E646179004D6F6E64617900547556
:10D92C006573646179005765646E65736461790031
:10D93C005468757273646179004672696461790028
:10D94C005361747572646179000000004A616E75F0
:10D95C00617279004665627275617279004D61720F
:10D96C00636800417072696C004D6179004A756E94
:10D97C0065004A756C790041756775737400536561
:10D98C007074656D626572004F63746F62657200CE
:10D99C004E6F76656D62657200446563656D626598
:10D9AC007200000025483A254D3A2553000000002E
:10D9BC004DBD020069BD020075BD020081BD0200B3
:10D9CC009DBD0200A9BD0200B5BD0200C3BD020091
:10D9DC00000000002E000000303132333435363771
:10D9EC0038396162636465663031323334353637C9
:0FD9FC003839414243444546286E756C6C29000A
:10DA0C0000000000FF0000000010014011000400A5
:10DA1C00000000000020004000000000002000403A
:10DA2C00000000000090D00301000000642A0020D8
:10DA3C0050D1020098C7020084C70200FFFF1400F7
:10DA4C0000000000000000000000000000000000CA
:10DA5C0000000000000000000000000000000000BA
:10DA6C0000000000000000000000000000000000AA
:10DA7C00000000000000000000000000000000009A
:10DD0C0000000000000000000000FFFF0000000009
:10DD1C0000000000000000000000000000000000F7
:10DD2C0000000000000000000000000000000000E7
:10DD3C0000000000000000000000000000000000D7
:10DD4C0000000000000000000000000000000000C7
:04E02C0040D80200D6
:040000032000637501
:00000001FF
