:020000022000DC
:1060000000000120756302005D6302005F6302000F
:106010006163020063630200656302000000000028
:1060200000000000000000000000000067630200A4
:1060300069630200000000006B6302006D630200F0
:10604000D5C102006F63020039CF02006F63020006
:106050006F6302006F63020035CE02006F630200BF
:106060006F6302006F6302006F6302006F630200E0
:106070006F6302006F6302006F6302006F630200D0
:106080006F6302008D9302006F6302006F63020072
:106090006F6302006F630200892F03006F630200C9
:1060A0006F6302006F6302006F6302006F630200A0
:1060B0006F6302006F630200000000000000000038
:1060C0006F6302006F6302006F6302006F63020080
:1060D0006F6302006F6302006F6302000000000044
:1060E00000000000000000000000000000000000B0
:1060F00000000000000000000000000000000000A0
:10610000000000000000000000000000000000008F
:10611000000000000000000000000000000000007F
:10612000000000000000000000000000000000006F
:10613000000000000000000000000000000000005F
:10614000000000000000000000000000000000004F
:10615000000000000000000000000000000000003F
:10616000000000000000000000000000000000002F
:10617000000000000000000000000000000000001F
:10618000000000000000000000000000000000000F
:1061900000000000000000000000000000000000FF
:1061A00000000000000000000000000000000000EF
:1061B00000000000000000000000000000000000DF
:1061C00000000000000000000000000000000000CF
:1061D00000000000000000000000000000000000BF
:1061E00000000000000000000000000000000000AF
:1061F000000000000000000000000000000000009F
:10620000354936480A1A02D0072291438D4634494F
:1062100034480A1A06D00722914381F309880222E2
:1062200082F3148830483149314A00F044F831484B
:106230003149324A00F03FF831483249324A00F0E1
:106240003AF832483249334A00F035F83248334997
:10625000334A00F030F833483349344A00F02BF821
:1062600033483449344A00F026F83448344900228F
:1062700000F02CF833483449002200F027F8334866
:106280003349091A082902DB002202604160314AC1
:1062900090471F481F49884205D00268043003B464
:1062A000904703BCF7E700208646EC46002000211B
:1062B000294A9047FEE7884207D0521A05D0037852
:1062C00001300B700131013AF9D17047884202D098
:1062D00002700130FAE770470000012000E0002062
:1062E000000001200000012004630300282A002090
:1062F0008C300020D0630200D0630200DC3E03003B
:1063000004630300282A0020282A00201C400300E0
:106310001C4003001C4003001C4003001C40030001
:106320001C4003001C4003001C40030003630300E7
:10633000686903008C3000208C3000208C300020F5
:10634000D8400020D8400020D8400020D84000206D
:10635000D86000209D630200D1FF0200FEE7FEE747
:10636000FEE7FEE7FEE7FEE7FEE7FEE7FEE7FEE705
:1063700000F002B8FFF7FCBF0F484FF00701884359
:1063800085460E4880470E48016841F4700101605F
:10639000BFF34F8FBFF36F8FFFF732BF09480A4932
:1063A0000A4A884207D0521A05D0037801300B7090
:1063B0000131013AF9D17047000001209DB202007D
:1063C00088ED00E01C400300282A0020282A002035
:1063D00000B585B00190019B002B0AD0074B43F01C
:1063E00001030393019B9B010293039B029898472F
:1063F00000E000BF05B05DF804FB00BF30400300C3
:1064000000B583B00190019B002B0AD04FF47A7045
:10641000FFF7DEFF019B013B0193019B002BF5D1B0
:1064200000E000BF03B05DF804FB08B509F054FFBD
:1064300000BF08BD00B589B0039002910192019B95
:10644000002B33D00023079303230693029A079B64
:106450001344019A1946002009F0EEFE0590079AB0
:10646000059B13440793019A059BD31A0193059B3F
:10647000002B13D10F4B1B7883F00103DBB2002BF1
:1064800013D10120FFF7BCFF069B013B0693069B3F
:10649000002B03D1074B00221A7007E0054B0122A5
:1064A0001A70019B002BD1D100E000BF00BF09B0E2
:1064B0005DF804FB8C30002000B585B0039002919C
:1064C000054B00934023054A0299039800F012F807
:1064D00000BF05B05DF804FB356402009030002079
:1064E00082B0019000BF02B0704782B0019000BF3F
:1064F00002B0704700B5A1B00590049103920293D9
:10650000049803F05BFE039B1593029B16930023F4
:10651000179300238DF8603000231993229B1A9360
:1065200000231F930FA91F9B0822049803F020FF4C
:1065300008231F93119B1293BDF84030ADF84C30E7
:10654000BDF84230ADF84E3000238DF851309DF843
:106550003C3003F00303DBB2012B26D10F9BC3F3C6
:1065600095231C939DF83C30C3F3C203DBB28DF836
:106570005030BDF83C30C3F38313DBB21B931B9B3D
:106580009A0009A91F9B049803F0F2FE1B9B9B0035
:106590001F9A13441F9312AA09A915AB009313461F
:1065A0001B9A1C9800F0FCFE2FE09DF83C3003F095
:1065B0000303DBB2022B28D1BDF83E30C3F38913AD
:1065C0009BB21E939DF83C30C3F3C203DBB28DF83F
:1065D00050301E9B082B28BF08231D9307A91F9B23
:1065E0001D9A049803F0C4FE1F9A1D9B13441F9329
:1065F0001E9A1D9BD31A1E9315AB12AA07A81D99AC
:1066000000F070FF1E9B002BE3D1049803F0E5FD22
:1066100000BF21B05DF804FB82B00190019BDB68F4
:1066200001225A7100BF02B07047000000B583B06C
:106630004FF0FF330193FFF7F8FE0421084800F004
:10664000CBFD0190019B002B03DA0649412008F0A5
:106650002FFF0348FFF7E0FF00BF03B05DF804FB26
:106660000C4003004840030000B583B00190009146
:10667000019B1B681B6800990198984700BF03B0F5
:106680005DF804FB00B583B00190019B1B685B685B
:106690000198984700BF03B05DF804FB00B583B0D4
:1066A0000190019B1B689B680198984700BF03B04D
:1066B0005DF804FB82B001900B468DF80330019B1E
:1066C000DB689DF803201A7100BF02B0704782B0EA
:1066D0000190019BDB681B79184602B0704782B0BD
:1066E0000190019BDB6801225A7100BF02B0704724
:1066F00082B00190019BDB685B79184602B070475D
:1067000000B585B0019000910C4B00221A700C4826
:1067100003F0B8FC0390039B002B01D0039B08E01F
:10672000084804F0BBF9084A084BD31ADB08029367
:106730000023184605B05DF804FB00BF3832002086
:10674000803F0300CC400300803F0300E83E03008D
:10675000024A034BD31ADB0818467047803F0300F8
:10676000E83E030000B587B001900B468DF803307A
:106770009DF80330002B1FD0FFF7EAFF04900023A1
:10678000059313E0059B9B000E4A13440393039B60
:106790001B881A46019B1B689A4204D1019B059AEB
:1067A0001A60002309E0059B01330593059A049BB9
:1067B0009A42E7D3052300E00023184607B05DF8AE
:1067C00004FB00BF282A002000B585B001900B46CD
:1067D0008DF803309DF8032001AB11461846FFF7F2
:1067E000C1FF0346002B07D1019BDB00054A134480
:1067F0000393039B1B6800E00023184605B05DF877
:1068000004FB00BFE83E030084B001900B468DF806
:106810000330019BDB00174A134402939DF80330B9
:10682000013B032B1CD801A252F823F03D68020063
:10683000456802004D6802005768020002238DF887
:106840000F3011E004238DF80F300DE0029B1B790F
:106850008DF80F3008E0029B5B798DF80F3003E074
:1068600000238DF80F3000BF9DF80F30184604B09C
:10687000704700BFE83E030084B001900091002300
:106880008DF80F30019B1B7803F00403DBB2002B63
:1068900024D0019B1B78C3F30103DBB2012B02D090
:1068A000022B0CD017E0009B1B68019A1288C2F3E0
:1068B0008312D2B213449A1C009B1A600BE0009B17
:1068C0001B68019A5288C2F3891292B213449A1C2F
:1068D000009B1A6000BF01238DF80F309DF80F3028
:1068E000184604B07047000000B58BB00023ADF827
:1068F00026303E4802F0D1FE3D4802F0CEFE3D4B30
:106900009B6804933C4B1B680693049A069B1340B8
:1069100002339B00374A13440433089304AB1946EF
:106920000898FFF7A9FF0346002B09D0049A069B9D
:10693000134002339B002F4A134404330893EDE7BE
:1069400000BF0023079311E0049B5A1C0492069A8F
:106950001340079A920001A90A44264902339B007A
:106960000B445B681360079B01330793079B012B64
:10697000EAD99DF80430C3F30103DBB2012B10D038
:10698000022B1CD1BDF80A30ADF82630BDF8063018
:10699000C3F389139BB203339A08049B13440493F3
:1069A00013E0BDF80A30ADF82630BDF80430C3F36B
:1069B0008313DBB21A46049B1344049305E00F498A
:1069C0004FF4C27008F074FD00BF094802F071FE78
:1069D0000590059B002B02D0049B064A9360BDF8EE
:1069E000263018460BB05DF804FB00BF503600207F
:1069F0004C36002038320020302A0020DC400300D2
:106A000000B585B00021074802F0D0FD0390039B3C
:106A10000293029B83F310030193019B184605B078
:106A20005DF804FB5436002000B589B00390029154
:106A300001920093039B1B0C0793FFF7E1FF069065
:106A4000FFF786FE0246079B934204D3214940F29A
:106A5000A91008F02DFD069B1904009B5A1C0A9BE7
:106A60001340079A0A431C4902339B000B445A60A7
:106A7000009A0A9B134002339B00174A13440433C5
:106A80000593039B03F00703D9B2059A137861F3CA
:106A9000C5031370019B03F00F03D9B2059A138845
:106AA00061F389131380029BC3F31501059A1368E0
:106AB00061F39F231360059A1378012161F30103A9
:106AC0001370059A13786FF38203137000BF09B037
:106AD0005DF804FBDC4003003832002000B58DB0C7
:106AE0000390029113468DF80730039B02330A93FB
:106AF00001238DF8273000238DF81B300DF11B0387
:106B0000184602F017F8404B5A68029B1A603F4B38
:106B10001A683D4B99683C4B5B68CB1A13440133B0
:106B20000B9314E001213A4802F087FDFFF7DCFEE9
:106B300007900799364802F080FD344B1A68324BB3
:106B40009968314B5B68CB1A134401330B930A9A53
:106B50000B9B9A42E6D89DF82730002B48D00023A3
:106B600005939DF80730002B17D09DF814300122B3
:106B700062F301038DF814309DF8143043F00403E0
:106B80008DF81430039B03F00F03DAB2BDF8143014
:106B900062F38913ADF8143016E09DF81430022228
:106BA00062F301038DF814309DF8143043F00403B0
:106BB0008DF81430039BC3F309039AB2BDF8163065
:106BC00062F38F13ADF816300F4B5A680F4B1B68EA
:106BD000134002339B000C4A134404330893059A74
:106BE000089B1A60084B5A680A9B1344064A536074
:106BF0009DF81B30184601F0B3FF9DF8273018466A
:106C00000DB05DF804FB00BF38320020302A0020B0
:106C10005436002000B58BB0059004910392029386
:106C20001F4B1B68079306AB012219460298FFF71A
:106C300055FF0346002B24D0069B02330993002303
:106C4000089311E0089B9B00039A1A44099B591C66
:106C5000099107990B401268124902339B000B44BB
:106C60005A60089B01330893089A029B9A42E9D321
:106C7000069A079B00931346029A04990598FFF71A
:106C8000D3FE084B1B78002B05D000BF00F09AF80C
:106C90000346002BFAD100BF0BB05DF804FB00BF28
:106CA000302A00203832002000B583B001900091D6
:106CB0000023002200990198FFF7ACFF00BF03B04A
:106CC0005DF804FB00B587B0039002910192019B2F
:106CD000059305AA012302990398FFF79BFF00BFC4
:106CE00007B05DF804FB00B587B0039002910192F4
:106CF0000093019B0493009B059304AA022302992D
:106D00000398FFF787FF00BF07B05DF804FB00B5ED
:106D100089B00390029101920093019B0593009B1F
:106D200006930A9B079305AA032302990398FFF78A
:106D300071FF00BF09B05DF804FB00B58BB0039094
:106D4000029101920093019B0593009B06930C9B7B
:106D500007930D9B08930E9B099305AA052302999F
:106D60000398FFF757FF00BF0BB05DF804FB00B5B9
:106D70008BB00390029101920093019B0493009BBE
:106D800005930C9B06930D9B07930E9B08930F9BFB
:106D9000099304AA062302990398FFF73BFF00BF5B
:106DA0000BB05DF804FB0000054B9A68044B5B6870
:106DB0009A420CBF01230023DBB21846704700BF84
:106DC0003832002000B599B0FFF7EEFF0346002BE4
:106DD00001D00023C0E19B4B0022C3F81824BFF36D
:106DE0004F8F00BF974B9B680493974B1B68109382
:106DF000049A109B134002339B00924A13440433BD
:106E00001193002317930023169300230F9304ABD1
:106E100019461198FFF730FD0346002B19D0894B16
:106E2000D3F81834002B14D1864B5A68049B9A422D
:106E300005D8844B5B68834A936000238CE1049AF5
:106E4000109B134002339B007E4A1344043311937A
:106E5000DDE70023159311E0049B5A1C0492109A5D
:106E60001340159A920001A90A44764902339B0007
:106E70000B445B681360159B01331593159B012B25
:106E8000EAD99DF8043003F00303DBB2022B40F093
:106E90009C80BDF80630C3F389139BB20D93BDF8F7
:106EA0000630C3F389139BB2502B28BF50239BB2EB
:106EB0000C930C9BC3F309039AB2BDF8063062F33E
:106EC0008F13ADF806300C9B08330B939DF80430FC
:106ED000C3F3C203DBB20F930B995C4803F0DDF8F8
:106EE0001790179B002B00F0D380179803F066F9DA
:106EF00001A9169B0822179803F01CFA169B083369
:106F00001693049BDA43109B134001339B000A93B2
:106F10000C9A0A9B9A4242D90A9B002B08D0049AE9
:106F2000109B134002339B00464A1344043300E095
:106F3000474B08930A9B002B02D00A9BDBB201E06F
:106F40000C9BDBB28DF81F300A9B002B01D0404B0D
:106F500000E0002306930A9B002B06D00C9BDAB2BC
:106F60000A9BDBB2D31ADBB200E000238DF81730A6
:106F70009DF81F20169B0899179803F0DBF99DF8E0
:106F80001F30169A13441693069B002B16D09DF8BB
:106F90001720169B0699179803F0CCF90EE0049A77
:106FA000109B134002339B00264A13440433099379
:106FB000169B0C9A0999179803F0BCF90D9B0333A3
:106FC0009A08049B1344049362E09DF8043003F094
:106FD0000303DBB2012B5BD1BDF80430C3F3831391
:106FE000DBB2062B28BF0623DAB2BDF8043062F309
:106FF0008913ADF80430BDF80430C3F38313DBB25A
:1070000002330E939DF80430C3F3C203DBB20F9337
:107010000E9B9B0019460D4803F03FF81790179BF5
:10702000002B35D0179803F0C9F801A9169B082248
:10703000179803F07FF9169B0833169300231593D6
:107040001DE000BF38320020302A0020803F0300BE
:1070500044320020049B5A1C0492109A13400233BD
:107060009B003F4A1344191D169B0422179803F0F6
:1070700061F9169B04331693159B01331593BDF8E4
:107080000430C3F38313DBB21A46159B9342E1D35A
:10709000179B002B40D0324BD3F810341493304B55
:1070A000D3F81834002B1BD0179803F096F84DE056
:1070B00000238DF84F301498FFF71AFB0346002B7E
:1070C00002D001238DF84F309DF84F30002B03D0B4
:1070D00017991498FFF7C8FA149BDB681B68149380
:1070E000149B002BE4D1179803F077F800238DF858
:1070F00003300DF10303184601F01CFD184BD3F8C3
:107100001834002B02D1049B154A93609DF803307C
:10711000184601F025FD19E0114BD3F810341293F5
:1071200006E01298FFF7BAFA129BDB681B6812930D
:10713000129B002BF5D10B4A0B4BD31ADB081B0417
:1071400043F0020309491846FFF7AEFDFFF72CFE96
:10715000034683F00103DBB2184619B05DF804FB67
:1071600038320020103F0300E83E0300584103007E
:1071700000B585B00023039323E0164BD3F81034F9
:10718000029301238DF807300FE00298FFF79FFA72
:1071900003461A46039B934203D100238DF8073020
:1071A00006E0029BDB681B680293029B002BECD17C
:1071B0009DF80730002B01D0039B07E0039B0133B0
:1071C0000393039B092BD8DD4FF0FF33184605B01E
:1071D0005DF804FB3832002000B585B001900B4605
:1071E0008DF80330FFF7C4FF0390039BB3F1FF3F1B
:1071F00001D1039B22E0039BDBB219460198FFF704
:1072000059FA104BD3F81034002B08D10D4A019BCA
:10721000C2F81034019BDB6800221A600DE0094BB4
:10722000D3F81034DA68019BDB6812681A60054BEA
:10723000D3F81034DB68019A1A60039B184605B036
:107240005DF804FB3832002000B583B00C4BD3F856
:10725000103401930A4B01221A7009E00198FFF7DC
:107260003EFA0198FFF70EFA019BDB681B68019359
:10727000019B002BF2D100BF00BF03B05DF804FBFF
:107280003832002082B00190009100BF02B07047F8
:1072900010B584B003900291039BDB88002B0AD0C9
:1072A000039BDB881A461F4B009313461E4A1F4957
:1072B000029802F03BFB039B1B7A052B2ED0039B0D
:1072C0005B7A002B12D0039B9B881A46039B1B7A88
:1072D00019461046FFF798FA03461A46144B53F81E
:1072E00022301A461349029802F020FB039B1B68C8
:1072F00019460298FFF7C6FF039B1B7A1A460E4BEE
:1073000053F82240039B9B8800211846FFF75CFA44
:10731000034622460949029802F008FB00BF04B068
:1073200010BD00BF8C4103009C410300D441030009
:10733000482A0020EC410300342A0020F0410300D9
:1073400000B585B00390029113468DF80730039B7A
:107350001B7A052B0FD0039B5B7A002B06D00D4BBD
:107360001B681A460C49029802F0E0FA0B49029891
:1073700002F0DCFA07E09DF80730002B03D0074944
:10738000029802F0D3FA029802F0AEFA00BF05B0FC
:107390005DF804FB482A0020EC410300FC41030097
:1073A00030B58BB007900691059204930E9B1B7B22
:1073B0008DF827300E9B00221A730E990498FFF760
:1073C00067FF059B062B7FD801A252F823F000BF70
:1073D000ED730200F7730200077402001B740200D1
:1073E00039740200617402009174020007990E98CA
:1073F00002F09CFA69E0069B1B681A4607990E98F2
:1074000002F094FA61E0069B1A68069B04331B683D
:1074100007990E9802F08AFA57E0069B1A68069BB5
:1074200004331968069B08331B6800930B460799C1
:107430000E9802F07BFA48E0069B1968069B04331D
:107440001868069B08331B68069A0C321268019272
:10745000009303460A4607990E9802F067FA34E053
:10746000069B1868069B04331C68069B08331B6840
:10747000069A0C321268069910310968029101923D
:1074800000932346024607990E9802F04FFA1CE03B
:10749000069B1C68069B04331D68069B08331B680B
:1074A000069A0C3212680699103109680698143051
:1074B000006803900291019200932B46224607999F
:1074C0000E9802F033FA00E000BF00220E990498F3
:1074D000FFF736FF0E9B9DF827201A7300BF0BB0F5
:1074E00030BD00BF00B587B00390029101920093B8
:1074F000029B082B60D8009B1B7B8DF81330009BF0
:1075000000221A7300990198FFF7C2FE0023059329
:1075100014E0059A029B9A4209D2039A059B1344F0
:107520001B781A462649009802F000FA03E0254924
:10753000009802F0FBF9059B01330593059B072B8F
:10754000E7D92149009802F0F1F90023059326E0DC
:10755000059A029B9A421BD2039A059B13441B78FF
:107560008DF812309DF812307E2B0AD89DF812301B
:1075700018460CF059F80346002B02D09DF8123043
:1075800000E02E231A461149009802F0CFF903E0DB
:107590000F49009802F0CAF9059B01330593059B3A
:1075A000072BD5D9012200990198FFF7C9FE009B4E
:1075B0009DF813201A7300E000BF07B05DF804FBCC
:1075C00000420300084203000C4203001042030083
:1075D0001442030084B003468DF807309DF807304D
:1075E0005B08DBB21A460D4B9B5C8DF80F309DF8A3
:1075F000073003F00103002B04D09DF80F301B0966
:10760000DBB204E09DF80F3003F00F03DBB28DF81E
:107610000E309DF80E30184604B0704790360020AA
:1076200084B003460A468DF8073013468DF80630BD
:107630009DF8073003F00103002B01D00F2300E079
:10764000F0238DF80F309DF8073003F00103002B75
:1076500004D09DF806301B01DBB201E09DF8063036
:107660008DF80E309DF807305B08DBB21A46114BDF
:107670009A5C9DF807305B08DBB219469DF80F3025
:107680001340DAB20B4B5A549DF807305B08DBB25B
:107690001A46084B9A5C9DF807305B08DBB2194626
:1076A0009DF80E301343DAB2024B5A5400BF04B0B7
:1076B000704700BF9036002000B585B003468DF8B6
:1076C00007300023039310E00F4B1A68039BDB0085
:1076D00013440293029B1B789DF807209A4201D124
:1076E000029B0DE0039B01330393084B1B781A4662
:1076F000039B9342E8DB0649882007F0D9FE00236C
:10770000184605B05DF804FB583600205C360020B2
:107710002442030000B585B003460A468DF80730C1
:1077200013468DF806309DF807301846FFF7C4FF62
:107730000390039B002B0BD0039B5B68002B07D0AF
:10774000039B5B689DF806109DF80720104698473C
:1077500000BF05B05DF804FB2DE9F04F87B003468C
:107760000A468DF80F3013468DF80E309DF80F3015
:107770001846FFF72FFF0346042B00F2C28001A238
:1077800052F823F0997702000D7802002978020060
:10779000597802006F7802009DF80E30002B00F03F
:1077A000AD809DF80F3001211846FFF739FF002307
:1077B0008DF817300DF11703184601F0BBF99DF84D
:1077C0000F104FF001024FF00003A1F12004C1F1AE
:1077D000200003FA01F702FA04F4274322FA00F02A
:1077E000074302FA01F6494BD3E9002346EA0201B6
:1077F00000913B430193454BDDE90012C3E90012C0
:107800009DF81730184601F0ABF977E09DF80E307F
:10781000002B01D0022200E000229DF80F3011461B
:107820001846FFF7FDFE6CE09DF80E30002B0CD0E3
:107830009DF80F3003211846FFF7F2FE9DF80F3038
:1078400001211846FFF766FF5BE09DF80F3001212C
:107850001846FFF7E5FE54E09DF80E30002B4FD19F
:107860009DF80F3004211846FFF7DAFE48E09DF836
:107870000E30002B06D09DF80F3003211846FFF77D
:10788000CFFE3EE09DF80F3000211846FFF7C8FEFE
:107890009DF80F3000211846FFF73CFF00238DF8BC
:1078A00016300DF11603184601F044F99DF80F103B
:1078B0004FF001024FF00003A1F12006C1F12000BA
:1078C00003FA01F502FA06F6354322FA00F0054301
:1078D00002FA01F46FEA04086FEA05090B4BD3E9D9
:1078E000002308EA020A09EA030B084BC3E900ABCC
:1078F0009DF81630184601F033F902E000BF00E0B1
:1079000000BF00BF07B0BDE8F08F00BF8836002081
:1079100000B583B00648074B1B685B080022194678
:1079200000F00CFE019000BF03B05DF804FB00BF47
:10793000683600206036002000B587B00190002333
:10794000059328E01C4B1A68059BDB001344049345
:10795000049B1B78184605F0BDF903468DF80F30DF
:10796000049B5B78012B0CBF01230023DBB21A467A
:107970009DF80F309A420CBF012300238DF80E3082
:10798000049B1B789DF80E2011461846FFF7E4FE75
:10799000059B01330593094B1B781A46059B9342BF
:1079A000D0DB074BD3E90023134301D0FFF7B0FF2F
:1079B00000BF07B05DF804FB583600205C3600209D
:1079C0008836002000B585B001900B468DF8033055
:1079D000019BDBB21846FFF76FFE0390039B1B78F9
:1079E000184605F077F903468DF80B30039B5B785A
:1079F000012B0CBF01230023DBB21A469DF80B308C
:107A00009A420CBF012300238DF80A309DF80A30FA
:107A1000002B06D0054BD3E90023134301D1FFF718
:107A200077FF00BF05B05DF804FB00BF883600207B
:107A300000B58BB003900B4601928DF80B30019B83
:107A4000092B01D8072367E005F038F8034683F0D7
:107A50000103DBB2002B09D004F0CCFF0990099B95
:107A60000893089B002B01D0089B55E02C4A039BF0
:107A700013602C4A9DF80B3013702B4A019B136046
:107A80001022002129480BF061FE29494FF0000225
:107A90004FF00003C1E9002331E09DF80B30DB001B
:107AA000039A1344079303238DF8143000238DF8B1
:107AB00015309DF816306FF300038DF816309DF8E1
:107AC00016306FF341038DF816309DF816306FF3C2
:107AD00082038DF81630079B9B788DF81530079B35
:107AE0001B78184605AB134A194604F0F3FF0990BA
:107AF000099B0693069B002B01D0069B0CE09DF88A
:107B00000B305A1E8DF80B20002BC6D10A4A0021DB
:107B10000A4800F0DFFC034618460BB05DF804FB92
:107B2000583600205C360020603600209036002059
:107B300088360020C5790200397902009842030096
:107B400000B583B0114B1B68002B04D1104940F2E3
:107B5000351007F0ADFC002301930CE00B4B1A68C5
:107B6000019BDB0013441B780121184605F02EF819
:107B7000019B01330193074B1B781A46019B9342EB
:107B8000ECD30023184603B05DF804FB5836002000
:107B9000244203005C36002086B0039002910192DB
:107BA00001238DF817309DF81730204A039B13608E
:107BB0001E4A029B53601D4A019B9360039B44F243
:107BC0000102934212D0039B44F20202934220D15D
:107BD000019B164AD360154BDB681B68134A9361FF
:107BE000124BDB685B68114AD36112E0019B0F4ABC
:107BF00013610E4B1B699B680C4A53610B4B1B694D
:107C00001B680A4A9361094B1B695B68074AD36189
:107C100000BF72B600BF00BF9DF81730DBB2002B6B
:107C2000FAD162B600BF00BF06B07047A036002090
:107C300000B583B002900091019244F201007146B8
:107C40006A4600F003F803B000BD00BF30B58BB04A
:107C500007900691059272B600BFFFF7F5FA00BFD4
:107C6000FFF7B0F80346002BFAD1079B44F202025B
:107C700093422FD0079B44F20202934269D8079B9C
:107C800044F20102934237D0079B44F2010293422F
:107C90005FD8079B012B05D0079B41F2010293425D
:107CA0000CD056E0394A3A4BD31ADB081B0443F098
:107CB000010338491846FEF7F7FF57E0334A344BC3
:107CC000D31ADB081B0443F0010333491846FEF7BF
:107CD000EBFF4BE0059B09932C4A2D4BD31ADB0895
:107CE0001B0443F00100099B5B681A46099B1B6853
:107CF0002A49FEF7F8FF39E0059B0893234A244BF5
:107D0000D31ADB081B0443F00104089B9D68089B01
:107D10009B68184602F0E2FF03461846089B5B6822
:107D20001946089B1B68069A02920193009103462C
:107D30002A461B492046FFF700F8144A144BD31A71
:107D4000DB081B0443F0010316491846FEF7ACFF9D
:107D50000CE00E4A0E4BD31ADB081B0443F0010360
:107D6000069A11491846FEF7ADFF00BF0F4B1B687E
:107D700003F00103002B00D000BE059A0699079876
:107D8000FFF70AFF00BF0BB030BD00BF103F03007C
:107D9000E83E03009C420300BC420300E0420300B3
:107DA000FC4203002443030038430300F0ED00E0ED
:107DB00084B00190019B9B680393019BDA68039B4D
:107DC000D31A184604B0704782B001900B468DF864
:107DD0000330019B1A68019BDB68019989880B407D
:107DE00013449DF803201A70019BDB685A1C019B09
:107DF000DA6000BF02B0704784B003900B46019276
:107E0000ADF80A30039B1A68039B9968BDF80A30E5
:107E10000B44039989880B4013441A78019B1A700C
:107E200000BF04B0704700B583B001900091009A84
:107E300000210198FFF7E0FF019B9B685A1C019B02
:107E40009A6000BF03B05DF804FB84B00390029118
:107E50001346ADF80630029B002B01D10E231DE026
:107E6000BDF80630002B07D0BDF806305A1EBDF80D
:107E700006301340002B01D009230FE0039B029A28
:107E80001A60BDF80630013B9AB2039B9A80039BAF
:107E900000229A60039B0022DA600023184604B097
:107EA000704700B583B001900B468DF80330019800
:107EB000FFF77EFF0246019B9B889A4207D89DF8F8
:107EC000033019460198FFF77FFF002300E00423E9
:107ED000184603B05DF804FB00B583B00190009133
:107EE0000198FFF765FF0346002B05D00099019824
:107EF000FFF799FF002300E00523184603B05DF863
:107F000004FB0000F0B583B0124801F024FA0346E8
:107F100018464FF00001104BD3E90023861841EBBF
:107F20000307CDE900670D4BD3E90023DDE900012C
:107F3000994208BF904207D2DDE9002312F1807414
:107F400043F10005CDE90045DDE90023104619465F
:107F500003B0F0BD6C2A0020C8360020D0360020C7
:107F600088B001900091019B0793009B0693079BAB
:107F7000D3E90223CDE90423069BD3E90223CDE90B
:107F80000223DDE90423DDE90201994208BF9042A2
:107F90002CBF01230023DBB2184608B07047000055
:107FA00030B585B00190019B5B69002B03D12B4953
:107FB000A22007F07DFA00238DF80F30284B1B78A4
:107FC000002B45D0019B002B42D0019B1B7FDBB2D5
:107FD000002B3DD0FFF796FF019BD3E90223994286
:107FE00008BF90422CD3019B1B69002B02D1019B3F
:107FF00000221A77019B5B69019A926910469847A3
:10800000019B1B69002B23D0019B1B7FDBB2002B44
:108010001ED0019BD3E90201019B1B691A464FF058
:108020000003841841EB0305019BC3E90245019B52
:1080300019460C4802F0ACFD01238DF80F3007E023
:10804000019B1946074802F0A3FD01238DF80F306C
:108050009DF80F30184605B030BD00BF5C430300EB
:10806000C4360020D4430300F0B589B001900091DC
:108070000D230793009B00221A70019BD3E9024550
:10808000FFF740FF02460B46A61A65EB0307CDE952
:108090000467DDE90423012A73F100031BDB049B61
:1080A000B3F5350F05D300F0A7FA0246154B13447C
:1080B00003E0019BD3E90223134603934FF4960395
:1080C000039A0021104801F039F80790079B002B14
:1080D00005D1012313E000210B4801F007F9079BAC
:1080E0000D2B07D10198FFF75BFF03461A46009B53
:1080F0001A7003E00549F52007F0DAF90023184665
:1081000009B0F0BDFFFFB4006C2A00205C430300FF
:1081100000B583B0044802F075FD0190019B18463C
:1081200003B05DF804FB00BFD443030000B583B087
:10813000044802F089FD0190019B184603B05DF8E8
:1081400004FB00BFD443030000B583B0FFF7E0FF9A
:108150000190019B002B02D0019B00221A77019B0A
:10816000002BF3D100BF00BF03B05DF804FB00009B
:10817000054BD3E9002312F1807043F10001024B5B
:10818000C3E9000100BF7047C836002010B582B0B7
:108190000190124B1B68002B1DD0019801F0DBF8F9
:1081A00004460021019801F0C7F80346194620460D
:1081B00000F016FA0346B3F5960F04D308494FF4BE
:1081C000957007F075F9054B1B681846FFF7E8FE38
:1081D000024B00221A6000BF02B010BDC036002062
:1081E0005C43030000B583B00190FFF78BFE0246AD
:1081F0000B460349C1E9002300BF03B05DF804FB4F
:10820000D036002000B585B00190FFF78FFF0390B6
:1082100000238DF80B30039B002B48D02B4B1B68A1
:10822000002B03D101238DF80B3019E0039BD3E918
:108230000201264B1B68D3E90223994208BF9042F2
:108240000ED201238DF80B30204B1B681B7FDBB255
:10825000002B05D01D4B1B6819461D4802F098FCE9
:108260009DF80B30002B2AD0FFF752FF03900DF141
:108270000A0319460398FFF7F7FE0346002B12D0B6
:10828000124B1B68002B02D1019800F063FE0F4ACD
:10829000039B13609DF80A3083F00103DBB2002BCF
:1082A000B3D000BF0EE0094B00221A60ADE7074BC8
:1082B0001B68002B05D1019800F062FE01E000BFB1
:1082C00000E000BF00BF05B05DF804FBC036002031
:1082D000D443030000B587B001902C4A03AB194684
:1082E000104601F036F9059048E0059B1B78022BFB
:1082F0002ED0022B32DC002B02D0012B14D02DE02B
:10830000059B5B681B7FDBB283F00103DBB2002BB4
:1083100026D0059B5B6801221A77059B5B6819468E
:108320001B4802F035FC1BE0059B5A68194B1B6883
:108330009A4203D1174B00221A6012E0059B5B683A
:108340001946134802F094FC03468DF8133008E0F8
:10835000FFF7FAFE104B01221A7002E000BF00E0A6
:1083600000BF0A4A03AB1946104601F00BF9074A51
:1083700003AB1946104601F0ECF80590059B002B65
:10838000B3D100BF00BF07B05DF804FB3037002059
:10839000D4430300C0360020C436002000B583B0AB
:1083A0000190019800F095FF0346002B01D0FFF7E4
:1083B000DFFE0021019800F0AAFF0346002B02D047
:1083C0000198FFF7E3FE0121019800F0A0FF0346AA
:1083D000002B02D00198FFF705FF0198FFF77AFF05
:1083E0000198FFF70FFF00BF03B05DF804FB00002A
:1083F00008B5024800F0BCFF00BF08BD6C2A002091
:1084000000B585B0034600918DF80730114A02ABE4
:108410001946104601F070F80390039B002B13D00F
:10842000039B9DF807201A70039B009A5A60094A23
:1084300002AB1946104601F078F80346002B01D034
:10844000FFF7D6FF002300E00423184605B05DF8CF
:1084500004FB00BF3037002000B583B0164B1B680B
:108460000093164808235822154901F012F801908C
:10847000019B002B01D0019B19E06B46114A194664
:10848000114800F0E9FC0190019B002B01D0019BF9
:108490000DE001210C4800F00BFF01230B4A0121E4
:1084A000094800F083FD0A4B01221A70019B18460F
:1084B00003B05DF804FB00BFD04303003037002059
:1084C000D83600209D8302006C2A0020FFFF7F0029
:1084D000C436002000B587B003900B4601928DF89A
:1084E0000B30039B002B04D1134940F22E2006F0E1
:1084F000DFFF019B002B04D10F4940F22F2006F033
:10850000D7FF019B002B01D1072310E0039B1B68C1
:108510000593059B019A5A619DF80B30012B0CBF06
:1085200001230023DBB21A46059B1A61002318467B
:1085300007B05DF804FB00BF5C43030030B587B0B3
:10854000039002910192039B002B04D1154940F244
:108550003E2006F0ADFF039B0593059B1B7FDBB21E
:10856000002B01D000231AE0059B019A9A61FFF7C6
:10857000C9FC029B1A464FF00003841841EB030527
:10858000059BC3E90245059B1B69002B02D0059B97
:10859000029A1A6105990020FFF732FF0346184638
:1085A00007B030BD5C43030000B585B00190019B6E
:1085B000002B04D109494FF4157006F079FF019B97
:1085C0000393039B00221A7703990120FFF718FFFA
:1085D0000346184605B05DF804FB00BF5C4303008A
:1085E00082B001900091019A009BD31A23F07F433F
:1085F000184602B07047000008B5034800F0ABFE13
:108600000346184608BD00BF6C2A002000B587B09D
:108610000390029113468DF8073000230593039BC6
:108620001B781A46114B9B5C002B09D0039B04332B
:108630009DF807200299184605F07AFE05900FE094
:10864000039B1B781A46094B9B5C002B08D1039BAC
:108650000C339DF807200299184605F013F8059091
:10866000059B184607B05DF804FB00BFB837002033
:1086700000B585B0019000238DF80F30019B1B7869
:108680001A46114B9B5C002B08D0019B0433184603
:1086900005F00CFF03468DF80F300EE0019B1B78B0
:1086A0001A46094B9B5C002B07D1019B0C331846E3
:1086B00005F070F803468DF80F309DF80F3018461E
:1086C00005B05DF804FB00BFB837002000B587B0E7
:1086D0000390029113468DF8073000230593039B06
:1086E0001B781A46114B9B5C002B09D0039B04336B
:1086F0009DF807200299184605F0F0FE05900FE05E
:10870000039B1B781A46094B9B5C002B08D1039BEB
:108710000C339DF807200299184605F093F8059050
:10872000059B184607B05DF804FB00BFB837002072
:1087300084B00190019B9B680393019BDA68039BC3
:10874000D31A184604B0704700B587B00190009165
:10875000019B1B78022B45D0022B6ADC002B52D0E8
:10876000012B66D1019B1B7A002B05D101223349D5
:108770003348FFF7ABFF5DE0019B5B681B78194650
:108780003048FFF78EFB0590059B002B0AD0012394
:108790008DF80C30059B04932B4B1B6803AA1046E5
:1087A00098470DE02748FFF7C3FF0346002B07D08B
:1087B00000238DF80C30244B1B6803AA1046984701
:1087C0002048FFF7B5FF03461E4A9288934205D81A
:1087D00001221A491A48FFF779FF2BE01B4B0122AF
:1087E0001A7027E002238DF80C30019BDB6804939C
:1087F000012212491248FFF769FF134B1B6803AAB5
:108800001046984716E012491248FFF765FB0346E9
:10881000002B05D101220E490948FFF7F7FE09E0B8
:1088200003238DF80C30084B1B6803AA10469847A9
:1088300000E000BF00BF07B05DF804FB4C3700202C
:10884000742A002050370020443700204D37002084
:10885000483700206037002030B591B00390029176
:1088600001928DF803303C4A019B1360029B002B60
:1088700001D107236DE0029B1968029B5B689BB2E4
:108880001A463648FFF7E1FA0F900F9B0E930E9BA6
:10889000002B01D00E9B5CE0029B9968029BDB6879
:1088A0009BB21A462E48FFF7D0FA0F900F9B0D93FC
:1088B0000D9B002B01D00D9B4BE02A4B04AC1D46B9
:1088C0000FCD0FC495E80F0084E80F00039B5B6990
:1088D0000A93039B1B7C002B14BF01230023DBB2F4
:1088E0008DF824309DF803308DF82C30039B5B7C91
:1088F000002B01D00E2300E000238DF82530039BD0
:10890000DB680693039B9B680793039B1B68059397
:10891000039B5B68049304AB134A1946134803F0A6
:1089200075FA0F900F9B0C930C9B002B01D00C9BA6
:108930000FE00F4B00221A70039B1B68B3F1FF3F3F
:1089400006D001220B490948FFF7C0FE034600E0AC
:108950000023184611B030BD4437002050370020A6
:1089600060370020E043030049870200742A00209A
:108970004D3700204C37002000B587B00190019B97
:10898000002B03D11449CA2006F092FD134B1B782B
:108990008DF8173001991248FFF79EFA04909DF860
:1089A0001730002B12D00D4B00221A7001220D49F6
:1089B0000D48FFF78BFE0390039B0293029B002B55
:1089C00004D0054AD6210298FFF732F9049B1846D5
:1089D00007B05DF804FB00BF004403004D370020E2
:1089E000503700204C370020742A002000B585B095
:1089F00003468DF807309DF8073019461048FFF7F9
:108A000050FA0390039B002B15D10E48FFF730FE60
:108A1000034683F00103DBB2002B0CD00A4908485F
:108A2000FFF75AFA0346002B05D1012206490548F3
:108A3000FFF7ECFD0390039B184605B05DF804FBBF
:108A400060370020742A00204837002082B0EFF3FE
:108A500010830093009B019372B600BF019B1846E0
:108A600002B0704762B600BF00BF704700B585B066
:108A70000190FFF7EBFF0390164B9B68002B1BD177
:108A8000144B01229A60144BD3F88020134B1340EF
:108A9000104A1360104B114AC3F880200E4BD3F8D4
:108AA00084300C4A53600C4B4FF0FF32C3F88420E3
:108AB000019B00221A7002E0019B01221A70039BA5
:108AC000002B01D1FFF7CEFF0023184605B05DF85B
:108AD00004FB00BF7037002000E100E0FC06FFBD92
:108AE00000B585B003468DF80730104B9B68002B0E
:108AF00016D09DF80730002B12D1FFF7A7FF039087
:108B00000B4A0A4B1B681360094A084B5B685360A9
:108B1000064B00229A60039B002B01D1FFF7A2FFB6
:108B20000023184605B05DF804FB00BF7037002035
:108B300000E100E000B583B0019000F02BF803469F
:108B4000012B03D00549432006F0B2FC0198FFF742
:108B50008DFF00BF03B05DF804FB00BF7844030045
:108B600000B583B003468DF8073000F013F80346D4
:108B7000012B03D00649512006F09AFC9DF80730DE
:108B80001846FFF7ADFF00BF03B05DF804FB00BF60
:108B90007844030084B0EFF305830193019BC3F392
:108BA00008030393039B002B0DD1EFF31483009371
:108BB000009B0293029B03F00103002B0CBF0123D7
:108BC0000023DBB200E00123184604B07047000028
:108BD00082B003468DF807309DF90730002B0CDB7F
:108BE0009DF8073003F01F0205499DF907305B0926
:108BF000012000FA02F241F8232000BF02B07047C2
:108C000000E100E082B003468DF807309DF907309F
:108C1000002B0DDB9DF8073003F01F0206499DF97C
:108C200007305B09012000FA02F2403341F82320AB
:108C300000BF02B0704700BF00E100E082B0034611
:108C400000918DF807309DF90730002B0ADB009B5F
:108C5000DAB20C499DF907305201D2B20B4483F8C5
:108C600000230BE0009BDAB207499DF8073003F0C0
:108C70000F03043B5201D2B20B441A7600BF02B07C
:108C8000704700BF00E100E000ED00E000B583B0F8
:108C900003460A468DF8073013468DF806309DF8D6
:108CA0000630012B03D99DF80630032B0BD99DF814
:108CB0000630042B03D99DF80630072B03D9084949
:108CC0006B2006F0F5FB9DF806209DF90730114654
:108CD0001846FFF7B3FF00BF03B05DF804FB00BF09
:108CE000F444030000B583B003468DF807309DF9C6
:108CF00007301846FFF76CFF00BF03B05DF804FBB8
:108D000000B585B00190019B002B0AD0074B43F0C2
:108D100001030393019B9B010293039B02989847D5
:108D200000E000BF05B05DF804FB00BF1046030083
:108D300084B0039002910192039B029A02F5A872FB
:108D4000019943F8221000BF04B0704782B001902F
:108D50000091019B009A02F5A87253F82230184640
:108D600002B0704782B001900091019B009AC3F855
:108D7000042300BF02B0704782B001900091019BB4
:108D8000009AC3F8082300BF02B0704782B0019078
:108D90000B46ADF80230BDF80230019A13441B684F
:108DA000184602B0704784B001900B46ADF802300F
:108DB000BDF80230019A134400221A60BDF8023057
:108DC000019A13441B680393039B00BF04B07047D0
:108DD00082B00190019BD3F80435184602B0704769
:108DE00000B583B001900091009BB3F5805F04D380
:108DF00006494FF4BE7006F05BFB019B009AC3F876
:108E0000082500BF03B05DF804FB00BF2445030044
:108E100082B001900B468DF803309DF80320019B32
:108E200013441A460123136000BF02B0704782B09A
:108E300001900091019B009AC3F8442300BF02B047
:108E4000704782B001900091019B009AC3F84823BB
:108E500000BF02B07047000000B587B003900291D8
:108E60000192039B002B03D13349552006F020FBD0
:108E7000029B002B03D13049562006F019FB019BC1
:108E8000002B03D12C49572006F012FB039B5B7982
:108E900019462A4A019B42F82130039B5B79284AF4
:108EA000DB0013441B79002B0ED008230593254AC1
:108EB000254BD31ADB081B0443F002032349184651
:108EC000FDF7F2FE059B32E0039B1A68029B1B88AC
:108ED00019461046FFF784FF039B93F90420029B79
:108EE0009B7819461046FFF7D1FE039B93F9043097
:108EF0001846FFF7F7FE039B5B79114ADB0013442A
:108F000001221A71039B5B7919460D4A039B42F8B3
:108F10003130002305930B4A0B4BD31ADB081B049B
:108F200043F003030A491846FDF7BEFE059B1846A9
:108F300007B05DF804FB00BF544503007C370020F8
:108F400080370020203F0300E83E0300C4450300B3
:108F5000E845030000B583B00190019B002B03D1CD
:108F60000649872006F0A4FA019B1B6800211846D9
:108F7000FFF74EFF00BF03B05DF804FB544503004C
:108F800000B583B00190019B002B03D106498D20D1
:108F900006F08EFA019B1B6804211846FFF738FF84
:108FA00000BF03B05DF804FB5445030000B587B073
:108FB0000390029101928DF80330039B002B03D1A3
:108FC0002149962006F074FA4FF48032029B02FA8F
:108FD00003F30593029B50339BB29B00ADF8123014
:108FE000019B23F07F430193039B1B68059918465F
:108FF000FFF7C2FE039B1B6805991846FFF721FF88
:10900000039B1B68BDF8122011461846FFF7CBFEE4
:10901000039B1B68019A02991846FFF789FE039B80
:109020001B6805991846FFF702FF9DF80330002BD7
:1090300005D0039B1B6805991846FFF793FE00BFF8
:1090400007B05DF804FB00BF5445030000B585B0D0
:109050000390029113468DF80730039B002B03D138
:109060000B49A92006F024FA039B1B6802991846B5
:10907000FFF7DDFE9DF80730002B05D0039B1B6832
:1090800002991846FFF76EFE00BF05B05DF804FBBD
:109090005445030000B583B001900091019B002B63
:1090A00003D10A49B32006F003FA019B1B6800991B
:1090B0001846FFF7C6FE019B1B6800991846FFF78C
:1090C0005BFE00BF03B05DF804FB00BF5445030026
:1090D00000B583B001900B46ADF80230019B002B28
:1090E00003D10F49BA2006F0E3F9019B1B68BDF8D4
:1090F000022011461846FFF749FE0346002B09D00F
:10910000019B1B68BDF8022011461846FFF74BFE75
:10911000012300E00023184603B05DF804FB00BF04
:109120005445030082B001900091019A009BD31A2C
:1091300023F07F43184602B07047000000B58BB0A3
:109140000390029101920093039B002B03D1574996
:10915000CD2006F0ADF94FF48032029B02FA03F302
:109160000993029B50339BB29B00ADF82230019BC8
:1091700023F07F43019309990398FFF78BFF039B2B
:109180001B681846FFF724FE0790039B1B68029993
:109190001846FFF7DBFD0690039B1B68079A0299B0
:1091A0001846FFF7C5FD039B1B68BDF8222011463A
:1091B0001846FFF7F8FD07990698FFF7B3FF034637
:1091C000012B0AD11020FFF79BFD039B1B68BDF804
:1091D000222011461846FFF7E6FD039B1B68184640
:1091E000FFF7F6FD079007990198FFF79BFF0590A1
:1091F000039B1B6809991846FFF719FE059B012B75
:1092000015D1039B1868019B01331A460299FFF799
:109210008FFD1020FFF774FD039B1B681846FFF7B6
:10922000D7FD0246079B934235D00D2339E0039BBF
:109230001B68019A02991846FFF77AFD039B1B6889
:109240001846FFF7C5FD0790019B013B079918469B
:10925000FFF768FF0590009BC3F1FF1303F57F4301
:10926000059A9A4201D90D231BE0059B002B12D1D0
:10927000039B1868019B01331A460299FFF758FDBA
:10928000039B1B681846FFF7A3FD0246079B93420A
:1092900001D00D2305E0012209990398FFF7D6FEBE
:1092A000002318460BB05DF804FB00BF54450300D3
:1092B00000B583B001900B468DF803309DF8033064
:1092C0001A4602210198FFF7C1FE00BF03B05DF806
:1092D00004FB00B583B001904FF482710198FFF751
:1092E000F7FE0346184603B05DF804FB00B583B0F3
:1092F000019000914FF48032009B02FA03F319466B
:109300000198FFF7C7FE00BF03B05DF804FB00B58E
:1093100085B001900091009B50339BB29B00ADF84B
:109320000E30BDF80E3019460198FFF7D1FE034606
:10933000184605B05DF804FB00B583B001900091BC
:10934000019B1B6800991846FFF700FD034618466D
:1093500003B05DF804FB00B583B00190019B1B686E
:109360001846FFF735FD0346184603B05DF804FBC9
:1093700000B583B00190019B93F904301846FFF7C4
:1093800041FC00BF03B05DF804FB000008B5044BCE
:109390001B68044A12681046984700BF08BD00BF0A
:1093A0007C3700208037002086B001900091019B1F
:1093B00053E8011F8AB2D88902449889824228BFA3
:1093C000121A1889824202BFBFF32F8F002307E0D1
:1093D000C2EA010243E801200028E9D14FF001036D
:1093E0008DF80F30059002910492029A009B1A604A
:1093F0009DF80F30DBB2184606B0704784B001907C
:10940000019951E8013FC3EA034341E80132002AD0
:10941000F7D10392029300BF04B0704786B0019069
:109420000091019B53E8021F1FFAA1F2D8888242E3
:1094300002BFBFF32F8F00230DE0D8890244988923
:10944000824228BF121AC1EA024243E802200028E1
:10945000E8D14FF001038DF80F300590029104928E
:10946000029A009B1A609DF80F30DBB2184606B0D6
:10947000704784B00190019951E8023FC3EA234349
:1094800041E80232002AF7D10392029300BF04B0F0
:10949000704784B00390029111461A460B46ADF80E
:1094A00006301346ADF80430029B002B01D10E2389
:1094B0001FE0BDF80630BDF80420B3FBF2F102FB5B
:1094C00001F29B1A9BB2002B01D0092311E0039BF0
:1094D000029A1A60039B00225A60039B00229A6042
:1094E000039BBDF806209A81039BBDF80420DA8116
:1094F0000023184604B0704700B585B00190009174
:10950000009B19460198FFF74FFF0346002B07D039
:10951000019B1B68009A128813440393039B00E08D
:109520000023184605B05DF804FB00B583B0019038
:109530000091009B1A88009B5B889A4204D1019895
:10954000FFF75CFF012300E00023184603B05DF83D
:1095500004FB00B585B001900091009B194601986D
:10956000FFF75CFF0346002B07D0019B1B68009AA6
:10957000528813440393039B00E00023184605B070
:109580005DF804FB00B583B001900091009B1A8840
:10959000009B5B889A4204D10198FFF76AFF012380
:1095A00000E00023184603B05DF804FB10B487B058
:1095B00001900091019B009A53E8004F104643E848
:1095C000000191F0000FF7D1059404900391059BE1
:1095D000184607B05DF8044B704710B487B001908F
:1095E0000091019B009A53E8004F44EA020043E8CF
:1095F000000191F0000FF6D1059404900391049BB3
:10960000184607B05DF8044B704710B487B001905E
:109610000091019B009A53E8004F04EA020043E8DE
:10962000000191F0000FF6D1059404900391059B81
:10963000184607B05DF8044B704710B487B001902E
:109640000091019B009A53E8004F04EB020043E8AD
:10965000000191F0000FF6D1059404900391049B52
:10966000184607B05DF8044B704710B487B00190FE
:109670000091019B009A53E8004FA4EB020043E8DD
:10968000000191F0000FF6D1059404900391049B22
:10969000184607B05DF8044B704700B583B00190E1
:1096A00001210198FFF799FF0346184603B05DF8C2
:1096B00004FB00B583B0019000210198FFF7A5FFDE
:1096C0000346184603B05DF804FB000000B583B004
:1096D00001900B468DF80330019B002B03D1084904
:1096E000E82005F0E5FE019BDA689DF8033001995A
:1096F000098A01FB03F31344184603B05DF804FB29
:109700001846030000B583B001900091019B002B27
:1097100003D10849F52005F0CBFE009B019AD268E1
:109720009B1A019A128AB3FBF2F3DBB2184603B01C
:109730005DF804FB1846030000B585B00190019B5D
:10974000002B01D10E234CE0019B1B68002B03D1A1
:109750002649FF2005F0ACFE019B5B68002B04D17D
:1097600022494FF4807005F0A3FE019B9B68002BFB
:1097700004D11E4940F2011005F09AFE019BDB68FE
:10978000002B04D119494FF4817005F091FE019B23
:109790001B8A002B04D1154940F2031005F088FE06
:1097A000019B9A68019B5B68D31A8DF80F30019B6F
:1097B0001B68019A52681A6007E0019B1A681368D7
:1097C000591C11609DF80F201A709DF80F305A1E19
:1097D0008DF80F20002BF0D1019B1B6800221A711D
:1097E0000023184605B05DF804FB00BF18460300CF
:1097F00000B585B00190019B002B04D11F494FF4A7
:10980000927005F055FE0023039300238DF80A3073
:109810000DF10A031846FFF78DF9019B1B681A68C2
:10982000019B5B689A421FD9019B1B681A68013A29
:109830001A601B681B7819460198FFF747FF0390D1
:10984000019B9A68019B1B681B68D31A8DF80B302B
:10985000019B1B681B799DF80B209A4204D9019B40
:109860001B689DF80B201A719DF80A301846FFF707
:1098700077F9039B184605B05DF804FB1846030012
:1098800010B584B001900091019B002B04D11549C3
:1098900040F2471005F00CFE009B002B04D111494B
:1098A0004FF4A47005F004FE009B039300238DF891
:1098B0000B300DF10B031846FFF73CF9019B1B68B9
:1098C0001C68621C1A6003990198FFF71BFF03468E
:1098D00023709DF80B301846FFF742F900BF04B023
:1098E00010BD00BF1846030000B583B00190019B76
:1098F000002B03D10C49312005F0DAFD019B9B6858
:10990000002B0CD0019B5B69019A1069019A1168C8
:10991000019A92689847019B00229A6000E000BF7C
:1099200003B05DF804FB00BF8C4603000EB400B525
:1099300084B00190019B002B03D11849422005F00F
:10994000B7FD019B5B69002B03D11449432005F04F
:10995000AFFD019B1B68002B03D11049442005F08B
:10996000A7FD019B5B68002B03D10C49452005F046
:109970009FFD059B002B0AD00023039306AB0393A6
:1099800003AB1A460599019800F0B8F900E000BF52
:1099900004B05DF804EB03B0704700BF8C460300D1
:1099A00000B583B001900B468DF803309DF803306D
:1099B0000A2B03D10D210198FFF7F2FF019B1A68D2
:1099C000019B9B68581C0199886013449DF80320F3
:1099D0001A70019B9A68019B5B689A4202D30198B6
:1099E000FFF782FF00BF03B05DF804FB00B587B04E
:1099F000039002910192009300230593009B03F0D2
:109A00000103002B24D00BE0029B01330293059B42
:109A1000013305939DF8133019460398FFF7C0FFF3
:109A2000029B1B788DF813309DF81330002BEBD17F
:109A300006E0019B013B019320210398FFF7B0FF53
:109A4000019A059B9A422ED9019B002BF1D12AE065
:109A5000029B002B0BD0029809F0F4FE059006E063
:109A6000019B013B019320210398FFF799FF019A85
:109A7000059B9A420FD9019B002BF1D10BE0029B71
:109A800001330293059B013305939DF8133019466A
:109A90000398FFF785FF029B1B788DF813309DF824
:109AA0001330002BEBD100BF07B05DF804FB0000C2
:109AB00000B589B00390029101920093029B079335
:109AC0000123069307E0079A019BB2FBF3F3079388
:109AD000069B01330693079A019B9A42F3D2009AA0
:109AE000069B9A4201D9009B06930B9B03F001034E
:109AF000002B22D10A9B002B1FD00B9B03F00203EB
:109B0000002B06D0009B002B03D130238DF817309B
:109B100002E020238DF8173008E00A9B013B0A93EE
:109B20009DF8173019460398FFF73AFF0A9B002B60
:109B300003D0069A0A9B9A42EFD301230793009B16
:109B4000012B03D9009B013B009309E0029A079B7C
:109B5000B2FBF3F30493049A019B9A4200D205E00E
:109B6000079B019A02FB03F30793E8E7029A079B1E
:109B7000B2FBF3F30493049B079A02FB03F3029AEC
:109B8000D31A0293154A049B13441B781946039871
:109B9000FFF706FF079A019BB2FBF3F30793079BBE
:109BA000002BE3D10B9B03F00103002B11D00A9B88
:109BB000002B0ED006E00A9B013B0A93202103985C
:109BC000FFF7EEFE0A9B002B03D0069A0A9B9A42EF
:109BD000F1D300BF09B05DF804FB00BF6C47030080
:109BE00000B589B00590049103920293049B002B69
:109BF000B8BF5B4206930123079307E0039B069AD5
:109C000092FBF3F30693079B01330793039B069A9A
:109C10009A42F3DA029A079B9A4201D9029B079370
:109C20000A9B002B0AD0049B002B04DB0B9B03F048
:109C30000403002B02D00A9B013B0A930B9B03F009
:109C40000203002B02D0029B002B16D00B9B03F0CB
:109C50000103002B11D10A9B002B0ED006E00A9BBA
:109C6000013B0A9320210598FFF79AFE0A9B002BDF
:109C700003D0079A0A9B9A42F1D3049B002B07DA80
:109C8000049B5B4204932D210598FFF789FE08E0B1
:109C90000B9B03F00403002B03D02B210598FFF747
:109CA0007FFE0B9B03F00203002B19D00B9B03F0EC
:109CB0000103002B14D1029B002B11D10A9B002B16
:109CC0000ED006E00A9B013B0A9330210598FFF76E
:109CD00067FE0A9B002B03D0079A0A9B9A42F1D396
:109CE00004990B9B01930A9B0093029B039A05988E
:109CF000FFF7DEFE00BF09B05DF804FB00B58FB0D2
:109D0000059004910392059B002B04D1B64940F2C3
:109D1000522005F0CDFB059B5B69002B04D1B249B5
:109D20004FF4157005F0C4FB059B1B68002B04D194
:109D3000AD4940F2552005F0BBFB059B5B68002B4D
:109D400004D1A94940F2562005F0B2FB049B002B38
:109D500000F09381049B1B788DF83730049B01330E
:109D600004939DF83730002B00F07E819DF837304A
:109D7000252B40F06D8100230A9301230C93049B53
:109D80001B788DF837309DF83730302B0DD0302BC5
:109D90001BDC2B2B11D02D2B17D10A9B43F0010379
:109DA0000A93049B0133049312E00A9B43F00203DD
:109DB0000A93049B013304930AE00A9B43F00403D3
:109DC0000A93049B0133049302E000230C9300BF29
:109DD0000C9B002BD3D1002309939DF837302A2BFD
:109DE0000CD1039B1B68191D039A11601B68099A0B
:109DF00013440993049B013304931AE0049B1B78DA
:109E00008DF837309DF837302F2B12D99DF8373029
:109E1000392B0ED8049B01330493099A13469B00F7
:109E200013445B001A469DF837301344303B0993C6
:109E3000D3E700230B93049B1B788DF837309DF8F4
:109E400037302E2B1DD1049B01330493049B1B78C8
:109E50008DF837309DF837302F2B12D99DF83730D9
:109E6000392B0ED8049B013304930B9A13469B00A5
:109E700013445B001A469DF837301344303B0B9374
:109E8000E4E7049B1B788DF837309DF837306C2B56
:109E900003D09DF83730682B07D1049B013304931E
:109EA000049B1B788DF83730EFE79DF83730252B72
:109EB00000F0C480252BC0F2C680782B00F3C3804D
:109EC000582BC0F2C080583B202B00F2BC8001A26E
:109ED00052F823F0C39F020047A0020047A00200EF
:109EE00047A0020047A0020047A0020047A00200CE
:109EF00047A0020047A0020047A0020047A00200BE
:109F0000599F02007B9F020047A0020047A0020069
:109F100047A0020047A002007B9F020047A002006A
:109F200047A0020047A0020047A0020047A002008D
:109F300047A0020009A0020047A0020047A00200BB
:109F4000ED9F020047A002009F9F020047A0020071
:109F500047A00200C39F0200039B1B68191D039AC0
:109F600011601B680C930C9B8DF81F309DF81F30FF
:109F700019460598FFF714FD66E0039B1B68191D41
:109F8000039A11601B680C930A9B0193099B009331
:109F90000B9B0A220C990598FFF722FE54E0039BC5
:109FA0001B68191D039A11601B680C930C990A9B7E
:109FB0000193099B00930B9B0A220598FFF778FDFC
:109FC00042E0039B1B68191D039A11601B680C93E8
:109FD0000C990A9B0193099B00930B9B10220598F7
:109FE000FFF766FD30E000BFF8460300039B1B68E7
:109FF000191D039A11601B6808930A9B099A089916
:10A000000598FFF7F3FC1FE0039B1B68191D039ADB
:10A0100011601B680C9330210598FFF7C1FC782173
:10A020000598FFF7BDFC0C990023019308230093CA
:10A03000082310220598FFF73BFD05E02521059830
:10A04000FFF7AEFC00E000BF049B0133049305E082
:10A050009DF8373019460598FFF7A2FC049B1B7842
:10A06000002B7FF477AE00E000BF059B1B7B002B2D
:10A0700004D00598FFF738FC00E000BF0FB05DF892
:10A0800004FB00BF00B583B001900198FFF754FBBB
:10A090000346184603B05DF804FB00B58BB0019091
:10A0A0000091019B1B8A043B0793009A079B134472
:10A0B000DA1C079BB2FBF3F38DF81B300198FFF716
:10A0C00097FB0590059B002B01D1002338E0059BF1
:10A0D00000221A71059B01225A71079B9AB2059BB7
:10A0E000DA80059B09939DF81B30013B0493099B83
:10A0F000019A1A60002308931DE00198FFF778FB8E
:10A100000390039B002B0ED0059B5B790133DAB2E1
:10A11000059B5A71099B039A1A60039B019A1A6066
:10A12000039B099304E0059800F00EF8002307E074
:10A13000089B01330893089A049B9A42DDD3059B40
:10A1400018460BB05DF804FB00B58BB00190019B85
:10A150000793079B5B798DF81B30019B08939DF853
:10A160001B30013B05930023099305E0089B1B6806
:10A170000893099B01330993099A059B9A42F5D3E9
:10A18000089B1B680493019B0893002309930BE031
:10A19000089B1B68039308990498FFF771FB039BC6
:10A1A0000893099B013309939DF81B30099A9A4241
:10A1B000EED300BF00BF0BB05DF804FB00B585B067
:10A1C0000190019B0393039B043301211846FFF781
:10A1D00034FA00BF05B05DF804FB00B587B001900C
:10A1E000019B0593059B043301211846FFF73DFAB7
:10A1F0000346039303AB0493049B1B78002B02D10B
:10A200000198FFF7A1FF00BF07B05DF804FB000055
:10A2100000B591B00390029101920093039B002B33
:10A2200003D14349B62005F043F9039B0993039BEF
:10A230000F93099BDB881A46099B5B7903FB02F3AA
:10A24000043B0893009A089B9A4203D33849C420E0
:10A2500005F02EF9099BDB880793009B1A1D079BCD
:10A26000B2FBF3F30E93009B0433079AB3FBF2F2B5
:10A27000079901FB02F29B1A0D93019B1A68009B40
:10A280001344089A9A4203D2089A009BD31A01E019
:10A29000019B1B680C93019B0C9A1A6005E00F9BB5
:10A2A0001B680F930E9B013B0E930E9B002BF6D168
:10A2B00000230B93079A0D9BD31A0A930A9A0C9BBF
:10A2C000934228BF13460A932AE0029A0B9B134439
:10A2D00006930F9A0D9B1344043305939DF8483061
:10A2E000002B05D00A9A0599069809F006FA04E0B1
:10A2F0000A9A0699059809F000FA00230D930F9B1E
:10A300001B680F930C9A0A9BD31A0C930B9A0A9B07
:10A3100013440B93079A0C9B934228BF13460A934E
:10A320000C9B002BD1D100BF00BF11B05DF804FB26
:10A330007C47030000B589B0059004910392029315
:10A34000039B079307AA00230093029B0499059897
:10A35000FFF75EFF079B039A9A4203D00349F6205A
:10A3600005F0A6F800BF09B05DF804FB7C470300C8
:10A3700000B589B00590049103920293039B079363
:10A3800007AA01230093029B04990598FFF740FF59
:10A39000079B039A9A4204D004494FF4807005F059
:10A3A00087F800BF09B05DF804FB00BF7C470300DD
:10A3B00082B003468DF807309DF90730002B0DDB86
:10A3C0009DF8073003F01F0206499DF907305B092D
:10A3D000012000FA02F2603341F8232000BF02B0EE
:10A3E000704700BF00E100E0BFF34F8F00BF064B96
:10A3F000DB6803F4E0620449044B1343CB60BFF312
:10A400004F8F00BF00BFFDE700ED00E00400FA053C
:10A4100000B583B00190019B002B03D10449C420F7
:10A4200005F046F8019B5B68184603B05DF804FB35
:10A43000F047030000B583B00190019B002B03D1CE
:10A440000649722005F034F8019B00221A60BFF320
:10A450005F8F00BF00BF03B05DF804FB44480300FA
:10A4600000B585B00190019B002B03D10A498520DE
:10A4700005F01EF801210198FFF798F80390BFF34B
:10A480005F8F00BF039B002B0CBF01230023DBB2B7
:10A49000184605B05DF804FB4448030000B583B0DE
:10A4A0000190019B002B03D10A49922005F000F88E
:10A4B000019B1B68012B03D00649932004F0F8FF91
:10A4C000BFF35F8F00BF019B00221A6000BF03B083
:10A4D0005DF804FB4448030033DF704700BF1846B3
:10A4E00041DF704700BF18464FF080430122C3F898
:10A4F0000025BFF34F8F00BF20BFFDE700B585B03B
:10A5000000238DF803300DF103031846FEF712FB0C
:10A51000F1EE103A0193019B0393039B23F09F03F9
:10A520000293029BE1EE103A00BFBFF35F8F00BFC2
:10A530002620FFF73DFF9DF803301846FEF710FB7D
:10A54000039B03F00703002B03D004497D2004F094
:10A55000AFFF00BF05B05DF804FB00BF88480300F3
:10A5600008B5064B00221A700548FFF763FF05493E
:10A57000054800F0B1FA0023184608BD90370020C6
:10A580008C370020004903009437002000B583B0C9
:10A59000FFF7B4FF08F0CAFC0346002B0ED0FFF70C
:10A5A0009FFF0190019B002B0BD0019B022B08D039
:10A5B00006494FF4B07004F07BFF02E020BF40BFBB
:10A5C00020BF00BF03B05DF804FB00BF8848030054
:10A5D00000B583B00FE02248FFF71AFF0190019BFE
:10A5E0001B68204A1278104698470346002B32D049
:10A5F0001B4800F09BFA1A48FFF70AFF0346002B9E
:10A60000E9D1FCF721FE00BFFCF7DCFB0346002B81
:10A61000FAD1144B1B78032B03D0124B1B78022B5F
:10A6200001D1FFF7E1FE08F081FC0346002B0FD0BB
:10A63000FFF752FF0090009B002B07D0009B022BDE
:10A6400004D009494FF4D17004F032FF20BFFDE778
:10A65000FFF74AFF00E000BF03B05DF804FB00BF56
:10A6600094370020883700208848030000B583B065
:10A6700003468DF807301748FFF7F2FE034683F0D4
:10A680000103DBB2002B21D19DF80730042B0ED043
:10A69000114B1B78002B03D00E48FFF7FFFE16E08E
:10A6A0000E4A9DF8073013700B4B01221A700A4BAB
:10A6B0001B78002B04D10A4940F2D51004F0F8FEB3
:10A6C000FFF786FF0348FFF7E9FE00E000BF03B095
:10A6D0005DF804FB8C37002090370020883700207D
:10A6E0008848030082B00190019B9B68024A12785F
:10A6F0001344184602B070477E49030000B583B08A
:10A7000001900091019B002B03D10849832004F0A4
:10A71000CFFE019B9B68009A9A4202D2009B0133B4
:10A7200000E00023184603B05DF804FB0C49030069
:10A7300000B585B00190019B1B681B680393019BCA
:10A740001B685B680293029A039B9A4203D3029AA6
:10A75000039BD31A07E00198FFF7C4FF0246039B4F
:10A76000D21A029B1344184605B05DF804FB0000A2
:10A7700000B585B00190019B002B03D10D499820B5
:10A7800004F096FE019B1B681B680393019B1B68EA
:10A790005B68029302990198FFF7B0FF0246039BA2
:10A7A00093420CBF01230023DBB2184605B05DF8CD
:10A7B00004FB00BF0C49030010B588B00190009164
:10A7C00000230793019B002B03D15649A32004F0DB
:10A7D0006FFE009B002B03D15249A42004F068FEB9
:10A7E00000238DF80F300DF10F031846FEF7A2F984
:10A7F0000198FFF7BDFF03468DF81B309DF81B3015
:10A8000083F00103DBB2002B03D1019B1B7C002BE7
:10A810007BD1019B1B685B680593019B1B685A6891
:10A82000019B1C6811460198FFF768FF03466360AF
:10A830009DF81B30002B0AD0019B1B681A68019BF6
:10A840001C6811460198FFF759FF03462360019BDE
:10A85000DB68013B072B38D801A252F823F000BF78
:10A8600081A8020091A80200CBA80200A3A80200C0
:10A87000CBA80200CBA80200CBA80200B5A802001A
:10A88000019B5A68059B1344009A12781A702DE0B8
:10A89000019B5A68059B5B001344009A12881A803A
:10A8A00024E0019B5A68059B9B001344009A1268A0
:10A8B0001A601BE0019B5A68059BDB00D118009BC6
:10A8C000D3E90023C1E9002310E0019B5B6819462E
:10A8D000019BDB68059A02FB03F30B441846019BBE
:10A8E000DB681A46009908F008FF00BF0198FFF7DF
:10A8F0001FFF0490019B1B689B68049A9A4207D92A
:10A90000019B1B68049A9A6002E00423079300E00D
:10A9100000BF9DF80F301846FEF722F9079B184636
:10A9200008B010BD0C49030010B588B00390029127
:10A9300013468DF8073000230793039B002B03D1A8
:10A940004549E72004F0B4FD029B002B03D14249A6
:10A95000E82004F0ADFD00238DF817300DF117034A
:10A960001846FEF7E7F8039800F078F8034683F0FE
:10A970000103DBB2002B63D0039B1B681B680693AB
:10A980009DF8073083F00103DBB2002B0AD0039B54
:10A990001B681A68039B1C6811460398FFF7AEFEFC
:10A9A00003462360039BDB68013B072B37D801A2DA
:10A9B00052F823F0D5A90200E5A902001FAA02005F
:10A9C000F7A902001FAA02001FAA02001FAA020084
:10A9D00009AA0200039B5A68069B13441A78029B3B
:10A9E0001A702FE0039B5A68069B5B0013441A8879
:10A9F000029B1A8026E0039B5A68069B9B00134427
:10AA00001A68029B1A601DE0039B5A68069BDB00D4
:10AA10001344D3E900230299C1E9002312E0039B08
:10AA20005B681946039BDB68069A02FB03F30B4441
:10AA30001946039BDB681A46029808F05EFE01E0A7
:10AA4000052307939DF817301846FEF789F8079BF2
:10AA5000184608B010BD00BF0C49030000B585B012
:10AA60000190019B002B04D10B4940F22B2004F0F4
:10AA70001FFD019B1B681B680393019B1B685B68A0
:10AA80000293039A029B9A420CBF01230023DBB27C
:10AA9000184605B05DF804FB0C49030082B0019034
:10AAA000019B9B6800229A60019B9B6800221A61AF
:10AAB000019B9B6800225A61019B9B680022DA601F
:10AAC000019B9B6800225A60019B9B6800221A60D0
:10AAD00000BF02B07047000000B583B00190009144
:10AAE000019B002B03D11049502004F0E1FC009B96
:10AAF000002B03D10C49512004F0DAFC019B009A91
:10AB00001A60019B1B681A68019B5A60019B5A6876
:10AB1000019B1B685B689A4202D1019B00225A602C
:10AB200000BF03B05DF804FB8049030000B583B0AB
:10AB30000190019B002B03D11449632004F0B8FC61
:10AB4000019B1B68002B03D11049642004F0B0FC6A
:10AB5000019B5B68002B14D0019B5B681A46019B2C
:10AB60001B689B6813441A46019B5A60019B5A68F4
:10AB7000019B1B685B689A4204D1019B00225A60CA
:10AB800000E000BF03B05DF804FB00BF8049030094
:10AB900000B585B001900091019B002B03D11849AD
:10ABA0003A2004F085FC009B002B03D114493B2084
:10ABB00004F07EFC019B5B6803930FE0019B9B68A4
:10ABC000039A1268009910469847034683F00103E0
:10ABD000DBB2002B07D1039B1B680393039B1B680D
:10ABE000002BEBD100E000BF039B1A68009B1A60AA
:10ABF000039B009A1A6000BF05B05DF804FB00BF1C
:10AC00001C4A030000B585B00190019B002B03D1C5
:10AC10000C49512004F04CFC019B5B681B680393BA
:10AC2000019B5B681B68002B06D0019B5B681A6860
:10AC3000019B5B6812681A60039B184605B05DF8BB
:10AC400004FB00BF1C4A030000B583B00190019BC8
:10AC5000002B03D105495D2004F02AFC019B5B68B1
:10AC60001B68184603B05DF804FB00BF1C4A0300D4
:10AC700000B585B001900091019B002B03D11649CE
:10AC8000692004F015FC009B002B03D112496A20B7
:10AC900004F00EFC00238DF80B30019B5B680393DE
:10ACA0000FE0039B1B68009A9A4207D1009B1A6829
:10ACB000039B1A6001238DF80B3006E0039B1B6891
:10ACC0000393039B1B68002BEBD19DF80B301846B8
:10ACD00005B05DF804FB00BF1C4A030000B585B059
:10ACE0000190019800F00EF80390039B002B01D017
:10ACF000039B00E0024B184605B05DF804FB00BF63
:10AD0000944A030086B00190164B0593164B0493AA
:10AD10001FE0049A059BD31ADB10DA0F13445B1073
:10AD2000DB00059A13440393039B1B680293029A6A
:10AD3000019B9A4202D9039B04930AE0029A019B69
:10AD40009A4203D2039B0833059302E0039B5B689E
:10AD500004E0059A049B9A42DBD30023184606B010
:10AD6000704700BF944E0300BC4F030000B583B092
:10AD700001900091019BDBB21846FDF737FE019B65
:10AD8000184603B05DF804FBBFF34F8F00BF064BBE
:10AD9000DB6803F4E0620449044B1343CB60BFF368
:10ADA0004F8F00BF00BFFDE700ED00E00400FA0593
:10ADB00082B01B4B1B68B3F1FF3F0AD1194B1B68D4
:10ADC000DBB20193184B1B681B0903F00F030093C0
:10ADD00005E0134B1B680193144B1B680093019B08
:10ADE000062B19D1009B033B032B13D801A252F869
:10ADF00023F000BF05AE020009AE02000DAE020056
:10AE000011AE0200012308E0012306E0012304E063
:10AE1000012302E0012300E00023184602B070473E
:10AE200030010010E00F00F0E80F00F034010010D6
:10AE300082B0154B1B68DBB20193144B1B681B09D6
:10AE400003F00F030093019B062B19D1009B033BDA
:10AE5000032B13D801A252F823F000BF6DAE0200FD
:10AE600071AE020075AE020079AE0200012308E067
:10AE7000002306E0002304E0002302E0002300E0BA
:10AE80000023184602B07047E00F00F0E80F00F012
:10AE900082B01B4B1B68B3F1FF3F0AD1194B1B68F3
:10AEA000DBB20193184B1B681B0903F00F030093DF
:10AEB00005E0134B1B680193144B1B680093019B27
:10AEC000062B19D1009B033B032B13D801A252F888
:10AED00023F000BFE5AE0200E9AE0200EDAE0200D5
:10AEE000F1AE0200012308E0012306E0012304E0A3
:10AEF000012302E0012300E00023184602B070475E
:10AF000030010010E00F00F0E80F00F034010010F5
:10AF100082B0154B1B68DBB20193144B1B681B09F5
:10AF200003F00F030093019B062B19D1009B033BF9
:10AF3000032B13D801A252F823F000BF4DAF02003B
:10AF400051AF020055AF020059AF0200012308E0E3
:10AF5000002306E0002304E0002302E0002300E0D9
:10AF60000023184602B07047E00F00F0E80F00F031
:10AF700082B01B4B1B68B3F1FF3F0AD1194B1B6812
:10AF8000DBB20193184B1B681B0903F00F030093FE
:10AF900005E0134B1B680193144B1B680093019B46
:10AFA000062B19D1009B033B032B13D801A252F8A7
:10AFB00023F000BFC5AF0200C9AF0200CDAF020051
:10AFC000D1AF0200012308E0012306E0012304E0E1
:10AFD000012302E0012300E00023184602B070477D
:10AFE00030010010E00F00F0E80F00F03401001015
:10AFF00082B0154B1B68DBB20193144B1B681B0915
:10B0000003F00F030093019B062B19D1009B033B18
:10B01000032B13D801A252F823F000BF2DB0020079
:10B0200031B0020035B0020039B00200012308E05F
:10B03000002306E0002304E0002302E0002300E0F8
:10B040000023184602B07047E00F00F0E80F00F050
:10B0500082B0154B1B68DBB20193144B1B681B09B4
:10B0600003F00F030093019B062B19D1009B033BB8
:10B07000032B13D801A252F823F000BF8DB00200B9
:10B0800091B0020095B0020099B00200012308E0DF
:10B09000002306E0002304E0002302E0002300E098
:10B0A0000023184602B07047E00F00F0E80F00F0F0
:10B0B00082B01B4B1B68B3F1FF3F0AD1194B1B68D1
:10B0C000DBB20193184B1B681B0903F00F030093BD
:10B0D00005E0134B1B680193144B1B680093019B05
:10B0E000062B19D1009B033B032B13D801A252F866
:10B0F00023F000BF05B1020009B102000DB102004A
:10B1000011B10200002308E0002306E0012304E05F
:10B11000012302E0012300E00023184602B070473B
:10B1200030010010E00F00F0E80F00F034010010D3
:10B1300082B01B4B1B68B3F1FF3F0AD1194B1B6850
:10B14000DBB20193184B1B681B0903F00F0300933C
:10B1500005E0134B1B680193144B1B680093019B84
:10B16000062B19D1009B033B032B13D801A252F8E5
:10B1700023F000BF85B1020089B102008DB1020049
:10B1800091B10200012308E0012306E0012304E05D
:10B19000012302E0012300E00023184602B07047BB
:10B1A00030010010E00F00F0E80F00F03401001053
:10B1B00082B01B4B1B68B3F1FF3F0AD1194B1B68D0
:10B1C000DBB20193184B1B681B0903F00F030093BC
:10B1D00005E0134B1B680193144B1B680093019B04
:10B1E000062B19D1009B033B032B13D801A252F865
:10B1F00023F000BF05B2020009B202000DB2020046
:10B2000011B20200012308E0012306E0012304E05B
:10B21000012302E0012300E00023184602B070473A
:10B2200030010010E00F00F0E80F00F034010010D2
:10B2300082B0134B1B680193124B1B680093019B58
:10B24000062B19D1009B033B032B13D801A252F804
:10B2500023F000BF65B2020069B202006DB20200C5
:10B2600071B20200002308E0002306E0002304E09E
:10B27000012302E0012300E00023184602B07047DA
:10B280003001001034010010024B034A1A6000BF65
:10B29000704700BF882A00200090D00308B5FFF750
:10B2A00087FD0346002B06D0A04B1B681B0AA04A53
:10B2B00003F01F031360FFF7BBFD0346002B02D012
:10B2C0009C4B9D4A1A60FFF7E3FD0346002B06D016
:10B2D0009A4B1B685B0B9A4A03F007031360FFF756
:10B2E00017FE0346002B05D0964BDB68954A23F0EA
:10B2F0008073D360FFF73CFE0346002B0ED04FF067
:10B3000080430022C3F80C214FF080430022C3F891
:10B3100010214FF080430022C3F83825FFF768FE64
:10B320000346002B02D0884B03221A60FFF790FEE1
:10B330000346002B0BD0854B05221A60844B01225B
:10B340001A60844B00221A60834B3F221A60FFF779
:10B35000AFFE0346002B76D04FF080537F4AD3F8E0
:10B360000434C2F820354FF080537C4AD3F80834B7
:10B37000C2F824354FF08053784AD3F80C34C2F821
:10B3800028354FF08053754AD3F81034C2F82C3565
:10B390004FF08053714AD3F81434C2F830354FF06F
:10B3A00080536E4AD3F81834C2F834354FF08053C6
:10B3B0006A4AD3F81C34C2F840354FF08053674ACC
:10B3C000D3F82034C2F844354FF08053634AD3F8A1
:10B3D0002434C2F848354FF08053604AD3F82834FB
:10B3E000C2F84C354FF080535C4AD3F82C34C2F885
:10B3F00050354FF08053594AD3F83034C2F85435A1
:10B400004FF08053554AD3F83434C2F860354FF0CA
:10B410008053524AD3F83834C2F864354FF0805321
:10B420004E4AD3F83C34C2F868354FF080534B4A4B
:10B43000D3F84034C2F86C354FF08053474AD3F804
:10B440004434C2F87035FFF773FE0346002B05D075
:10B45000434B1B68434A03F04F031360FFF7A8FEFA
:10B460000346002B0DD04FF08043D3F8003403F097
:10B470000103002B05D04FF080436FF00102C3F8A9
:10B480000024FFF7D5FE0346002B05D0364B1B6882
:10B49000354A43F480631360344BD3F88830334A21
:10B4A00043F47003C2F88830BFF34F8F00BFBFF37F
:10B4B0006F8F00BF4FF01023D3F80032002B05DB55
:10B4C0004FF01023D3F80432002B2BDA284B012243
:10B4D000C3F8042500BF264BD3F80034002BFAD064
:10B4E0004FF010231522C3F8002200BF204BD3F8E1
:10B4F0000034002BFAD04FF010231522C3F8042299
:10B5000000BF1B4BD3F80034002BFAD0184B00229D
:10B51000C3F8042500BF164BD3F80034002BFAD033
:10B52000FFF732FCFFF7B0FE00BF08BD2403001098
:10B530004035014074C007400DF0ADBA4402001020
:10B540003C050040F0ED00E0A00500401056004032
:10B5500088560040185600401456004000C0004075
:10B5600058020010E40E00403C17004000ED00E0DF
:10B5700000E0014000B583B00190019B1B681846B4
:10B5800000F011F90346002B04D105494FF4F67081
:10B5900003F08EFF4FF0A043184603B05DF804FBA4
:10B5A000BC4F030000B585B00190084611461A460D
:10B5B00003468DF803300B468DF8023013468DF8A4
:10B5C000013001AB1846FFF7D5FF03909DF803202B
:10B5D0009DF802305B001A439DF801309B001A432E
:10B5E0009DF818301B0242EA03019DF81C301B0431
:10B5F000019A1943039B02F5E07243F8221000BF41
:10B6000005B05DF804FB00B585B0039000230193FD
:10B61000002300930023012201210398FFF7C2FFBA
:10B6200000BF05B05DF804FB00B585B003900B4684
:10B630008DF80B309DF80B30002201920022009211
:10B64000002200210398FFF7ADFF00BF05B05DF8B1
:10B6500004FB00B585B0019001AB1846FFF78AFFE7
:10B660000390019B012202FA03F31946039800F0AC
:10B6700086F800BF05B05DF804FB00B585B0019009
:10B6800001AB1846FFF776FF0390019B012202FAF7
:10B6900003F31946039800F07CF800BF05B05DF88D
:10B6A00004FB00B585B0019001AB1846FFF762FFBF
:10B6B0000390039BD3F804350293029BDA43019B6A
:10B6C000012101FA03F31A40039BC3F80825019BEB
:10B6D00001229A40029B1A40039BC3F80C2500BF2D
:10B6E00005B05DF804FB00B583B001900091009BAC
:10B6F000002B03D10198FFF7C0FF02E00198FFF78C
:10B70000A8FF00BF03B05DF804FB00B585B0019051
:10B7100001AB1846FFF72EFF0390039800F01FF8C7
:10B720000246019B22FA03F303F00103184605B019
:10B730005DF804FB00B585B0019001AB1846FFF73A
:10B7400019FF0390039800F012F80246019B22FAB9
:10B7500003F303F00103184605B05DF804FB82B063
:10B760000190019BD3F81035184602B0704782B0A3
:10B770000190019BD3F80435184602B0704782B09F
:10B7800001900091019B009AC3F8082500BF02B008
:10B79000704782B001900091019B009AC3F80C257C
:10B7A00000BF02B0704784B00190019B5B09029317
:10B7B00000230393029B002B03D14FF0FF3303932D
:10B7C00000BF019B03F01F030193039A019B22FA20
:10B7D00003F303F00103002B14BF01230023DBB2AA
:10B7E000184604B07047000000B585B00190019B79
:10B7F000012B03D911493A2003F05AFE104A019B4C
:10B8000013441B781846FFF795FF0346002B14BF1F
:10B81000012300238DF80F309DF80F30002B14BF4B
:10B8200001230023DBB283F00103DBB203F0010349
:10B83000DBB2184605B05DF804FB00BFEC4F030017
:10B840005450030000B583B00190019B012B03D934
:10B850000749412003F02CFE064A019B13441B7844
:10B8600000211846FFF73FFF00BF03B05DF804FB5F
:10B87000EC4F03005450030000B583B00190019BCE
:10B88000012B03D90749472003F012FE064A019B0A
:10B8900013441B7801211846FFF725FF00BF03B0B2
:10B8A0005DF804FBEC4F03005450030000B583B077
:10B8B0000023019305E00198FFF7DEFF019B0133B0
:10B8C0000193019B012BF6D900BF00BF03B05DF8C7
:10B8D00004FB00B583B00023019305E00198FFF756
:10B8E000B1FF019B01330193019B012BF6D900BFEE
:10B8F00000BF03B05DF804FB00B583B00190019B6D
:10B90000012B03D907495F2003F0D2FD064A019BB2
:10B9100013441B781846FFF7C4FE00BF03B05DF860
:10B9200004FB00BFEC4F03005450030000B583B08C
:10B930000023019309E0094A019B13441B78184630
:10B94000FFF761FE019B01330193019B012BF2D9AB
:10B95000FFF7ACFF00BF03B05DF804FB54500300D9
:10B9600000B585B00190019B012B03D91149AC2092
:10B9700003F09EFD104A019B13441B781846FFF705
:10B98000C4FE0346002B14BF012300238DF80F30A3
:10B990009DF80F30002B14BF01230023DBB283F08E
:10B9A0000103DBB203F00103DBB2184605B05DF81A
:10B9B00004FB00BFEC4F03005850030000B583B0F8
:10B9C000002301930AE0094A019B13441B780321D9
:10B9D0001846FFF729FE019B01330193019B012BC0
:10B9E000F1D900BF00BF03B05DF804FB585003005D
:10B9F00084B001904FF0FF330293002303930DE0D6
:10BA00000A4A039B13441B781A46019B934202D1B6
:10BA1000039B029305E0039B01330393039B012BDC
:10BA2000EED9029B184604B0704700BF585003007F
:10BA300000B583B00190019B012B03D90549CB20B0
:10BA400003F036FD044A019B13441B78184603B0EB
:10BA50005DF804FBEC4F03005850030000B583B0C1
:10BA60000190019B03F00103002B01D0FFF75EFF63
:10BA7000019B03F00203002B01D0FFF79FFF00BFE3
:10BA800003B05DF804FB000082B003468DF8073078
:10BA90009DF90730002B13DB9DF8073003F01F02E0
:10BAA00009499DF907305B09012000FA02F22033B1
:10BAB00041F82320BFF34F8F00BFBFF36F8F00BF4C
:10BAC00000BF02B0704700BF00E100E0044BD3F8B4
:10BAD0000034002B14BF01230023DBB2184670474B
:10BAE0000000014008B507F021FA034683F0010386
:10BAF000DBB2002B03D109497B2003F0D9FCFFF70F
:10BB0000E5FF034683F00103DBB2002B04D000F015
:10BB100041FB034B00229A7000BF08BD6450030034
:10BB20009C37002000B583B000230193184B1B788D
:10BB3000002B02D0852301931CE0154B00229A6054
:10BB4000134B00225A60124B00221A61104B002244
:10BB5000DA60104800F0E4FA019007F0E7F90346D4
:10BB600083F00103DBB2002B01D000F0FFFA084B99
:10BB700001221A70FFF7AAFF0346002B02D0044BE4
:10BB800001229A70019B184603B05DF804FB00BFC8
:10BB90009C3700206DBC020084B00190019B1B68A3
:10BBA0000393039B002B03D0039B1A68019B1A602D
:10BBB000039B184604B0704700B583B0164B1B7842
:10BBC000002B04D1154940F2171003F071FC124B01
:10BBD000DB68002B04D111494FF48C7003F068FC32
:10BBE00000238DF807300DF107031846FCF7A2FF7C
:10BBF000094BDB68013B084AD360074BDB68002B2D
:10BC000001D1FFF76FFF9DF807301846FCF7A8FF3A
:10BC100000BF03B05DF804FB9C37002064500300B4
:10BC200000B585B003468DF807309DF80730002B2E
:10BC300002D10C4B039301E00B4B03930398FFF7E6
:10BC4000ABFF0290029B002B06D0029B5B689DF825
:10BC5000072010469847F1E700BF00BF05B05DF828
:10BC600004FB00BFA4370020AC37002000B583B030
:10BC700003468DF807309DF80730002B05D10A4B9D
:10BC800001225A700020FFF7CBFF9DF80730012BEF
:10BC900005D1054B01229A700120FFF7C1FF00BFBB
:10BCA00003B05DF804FB00BF9C37002000B583B0F3
:10BCB00001900091019B002B05D1054B01225A7088
:10BCC0000020FFF7ADFF00BF03B05DF804FB00BF2D
:10BCD0009C37002000B585B0034600918DF80730F1
:10BCE0009DF80730032B29D0032B35DC002B02D025
:10BCF000012B04D030E00020FFF7C6FE2DE000232A
:10BD00008DF80F300DF10F031846FCF713FF154B9C
:10BD10001B7883F00103DBB2002B01D0FFF702FF99
:10BD2000104BDB6801330F4AD3600E4B01229A702F
:10BD30009DF80F301846FCF713FF0EE0094B1B78F7
:10BD4000002B04D1084940F2522003F0B1FB00F06F
:10BD50000DFAFFF731FF00E000BF00BF05B05DF84E
:10BD600004FB00BF9C3700206450030000B589B07D
:10BD700001900091009B0793019B1B788DF80C307C
:10BD8000019B5B680493019B9B68DBB28DF81430C8
:10BD9000019BDB680693074A079B52F8233006494C
:10BDA000079A51F8221003AA1046984700BF09B01D
:10BDB0005DF804FBB0370020B437002000B589B02F
:10BDC00001900091009B0793019B1B788DF80C302C
:10BDD000019B5B680493019B9B68DBB28DF8143078
:10BDE000019BDB680693074A079B52F823300649FC
:10BDF000079A51F8221003AA1046984700BF09B0CD
:10BE00005DF804FBB0370020B437002030B58FB0A8
:10BE1000039002910192039B1B780C9326490C9B83
:10BE2000019A41F82320029B1A6924490C9B41F88E
:10BE30002320029B5B7F1946214A0C9B13440A4630
:10BE40001A70029B04AC1D460FCD0FC495E80F007D
:10BE500084E80F000C9B089300230D93039B1B7831
:10BE60001A46174B9B5C002B0DD0039B181D019BA2
:10BE7000002B01D0134A00E0002204AB194602F067
:10BE8000F1F90D9014E0039B1B781A460C4B9B5C58
:10BE9000002B0DD1039B03F10C00019B002B01D063
:10BEA000094A00E0002204AB194601F037FB0D906F
:10BEB0000D9B18460FB030BDB0370020B4370020BE
:10BEC000B83700206DBD0200BDBD020082B0034640
:10BED0008DF807309DF90730002B0CDB9DF80730FB
:10BEE00003F01F0205499DF907305B09012000FAA4
:10BEF00002F241F8232000BF02B0704700E100E0E9
:10BF000082B0034600918DF807309DF90730002B71
:10BF10000ADB009BDAB20C499DF907305201D2B21C
:10BF20000B4483F800230BE0009BDAB207499DF82D
:10BF3000073003F00F03043B5201D2B20B441A76D0
:10BF400000BF02B0704700BF00E100E000ED00E07C
:10BF500082B00190019B1B0B5BB2184602B0704788
:10BF600000B583B003460A468DF8073013468DF8B6
:10BF700006309DF80630012B03D99DF80630032BBF
:10BF80000BD99DF80630042B03D99DF80630072BFA
:10BF900003D908496B2003F08BFA9DF806209DF920
:10BFA000073011461846FFF7ABFF00BF03B05DF83E
:10BFB00004FB00BFD850030000B583B003468DF8E2
:10BFC00007309DF907301846FFF780FF00BF03B028
:10BFD0005DF804FB82B003468DF807300F4A9DF9E7
:10BFE0000730002B00DA1F335B115BB252F82320BD
:10BFF0009DF90730594203F01F0301F01F0158BF9C
:10C000004B425BB222FA03F303F00103002B14BF8F
:10C0100001230023DBB2184602B0704700E100E0C4
:10C0200082B001904FF08042019BC2F8083300BFFC
:10C0300002B0704782B003468DF807309DF8073094
:10C0400003F1804301221A6000BF02B0704784B040
:10C050000346ADF80630BDF8063003F180430022F8
:10C060001A60BDF8063003F180431B680393039BFD
:10C0700000BF04B0704782B00346ADF80630BDF88B
:10C08000063003F180431B68002B14BF01230023FB
:10C09000DBB2184602B0704782B001904FF0804288
:10C0A000019BC2F8183500BF02B070474FF08043C3
:10C0B000D3F818341B0C03F00103002B14BF012329
:10C0C0000023DBB21846704700B583B006238DF815
:10C0D00007304FF08040FFF73BFF03461846FFF75D
:10C0E00079FF034683F00103DBB2002B13D04FF03E
:10C0F0008040FFF72DFF03461A469DF8073019468A
:10C100001046FFF72DFF4FF08040FFF721FF034659
:10C110001846FFF751FF00BF03B05DF804FB0000B5
:10C1200000B585B00190019B002B03D10D49A420DF
:10C1300003F0BEF9002303930B4B1B79002B02D0B5
:10C140008523039308E0084A019B1360064B0122F4
:10C150001A71054B00225A71039B184605B05DF811
:10C1600004FB00BF10510300BC37002008B5074B8B
:10C170001B79002B03D10649BD2003F099F9FFF785
:10C18000A3FF0120FFF788FF00BF08BDBC370020D8
:10C190001051030008B50D4B1B79002B03D10C493E
:10C1A000F72003F085F90220FFF73AFF4FF4827081
:10C1B000FFF74DFF0C20FFF73DFF00BFFFF776FFB5
:10C1C0000346002BFAD100BF00BF08BDBC370020DA
:10C1D0001051030008B54FF48070FFF74CFF034681
:10C1E000002B14D04FF48070FFF731FF0120FFF7D0
:10C1F00017FF114B5B7983F00103DBB2002B06D0F4
:10C200000D4B01225A710C4B1B68002098474FF4CC
:10C210008270FFF730FF0346002B0AD04FF4827084
:10C22000FFF715FF0220FFF7FBFE034B1B68012001
:10C23000984700BF08BD00BFBC37002082B003464E
:10C240008DF807309DF90730002B0CDB9DF8073087
:10C2500003F01F0205499DF907305B09012000FA30
:10C2600002F241F8232000BF02B0704700E100E075
:10C2700082B0034600918DF807309DF90730002BFE
:10C280000ADB009BDAB20C499DF907305201D2B2A9
:10C290000B4483F800230BE0009BDAB207499DF8BA
:10C2A000073003F00F03043B5201D2B20B441A765D
:10C2B00000BF02B0704700BF00E100E000ED00E009
:10C2C00082B00190019B1B0B5BB2184602B0704715
:10C2D00000B583B003460A468DF8073013468DF843
:10C2E00006309DF80630012B03D99DF80630032B4C
:10C2F0000BD99DF80630042B03D99DF80630072B87
:10C3000003D908496B2003F0D3F89DF806209DF966
:10C31000073011461846FFF7ABFF00BF03B05DF8CA
:10C3200004FB00BF8451030000B583B003468DF8C1
:10C3300007309DF907301846FFF780FF00BF03B0B4
:10C340005DF804FB00B583B00346ADF80630BDF8D8
:10C350000630184600F026F803461B68012B0CBF78
:10C3600001230023DBB2184603B05DF804FB00B5DF
:10C3700085B00346ADF80630BDF80630184600F02B
:10C3800011F803461A4600231360BDF8063018461C
:10C3900000F008F803461B680393039B00BF05B039
:10C3A0005DF804FB82B00346ADF80630BDF80630F8
:10C3B00003F1804303F5C043184602B07047000004
:10C3C00082B00190034A019BC2F8043300BF02B05F
:10C3D000704700BF0060004082B00190034BD3F86B
:10C3E0000423019B1340184602B0704700600040D0
:10C3F00082B00190084A019B03F5A27352F82330E2
:10C40000054943F00102019B03F5A27341F8232083
:10C4100000BF02B0704700BF0060004084B00390CE
:10C42000029113468DF80730144A039B03F5A2735B
:10C4300052F82330114923F4473323F44073039A0D
:10C4400002F5A27241F822300C4A039B03F5A27355
:10C4500052F82320029B1B0203F4F8519DF8073089
:10C460001B0403F440330B4304491A43039B03F5B5
:10C47000A27341F8232000BF04B070470060004061
:10C4800082B00190054A019B03F5A27352F8233054
:10C490001B0A03F01F03184602B0704700600040FB
:10C4A00082B00190064A019B03F5A27352F8233033
:10C4B0001B0C03F00303DBB2184602B0704700BF49
:10C4C0000060004000B583B00190019B1B681846D6
:10C4D00000F015F90346002B04D105494FF4F6701E
:10C4E00002F0E6FF4FF0A043184603B05DF804FBEE
:10C4F000B451030000B585B00190084611461A46B4
:10C5000003468DF803300B468DF8023013468DF844
:10C51000013001AB1846FFF7D5FF03909DF80320CB
:10C520009DF802305B001A439DF801309B001A43CE
:10C530009DF818301B0242EA03019DF81C301B04D1
:10C54000019A1943039B02F5E07243F8221000BFE1
:10C5500005B05DF804FB00B585B003900B468DF87F
:10C560000B309DF80B300022019200220092002235
:10C5700000210398FFF7BEFF00BF05B05DF804FB84
:10C5800000B585B0019001AB1846FFF79BFF039003
:10C59000019A039B02F5E07253F8223023F0020364
:10C5A0000293019A039B02F5E072029943F822106C
:10C5B00000BF05B05DF804FB00B585B001900B46E7
:10C5C0008DF8033001AB1846FFF77CFF0390019A0A
:10C5D000039B02F5E07253F82230019A23F44031B4
:10C5E000039B02F5E07243F82210019A039B02F5C7
:10C5F000E07253F822309DF8032012041146019A8C
:10C600001943039B02F5E07243F8221000BF05B006
:10C610005DF804FB00B585B0019001AB1846FFF74B
:10C6200051FF0390039800F020F80246019B22FA84
:10C6300003F303F00103184605B05DF804FB00B5F1
:10C6400085B0019001AB1846FFF73CFF0390019ABB
:10C65000039B02F5E07253F822301B0C03F0030336
:10C66000DBB2184605B05DF804FB82B00190019B77
:10C67000D3F81035184602B0704786B00390029187
:10C6800001924FF0A0430493039B059319E0059B8F
:10C690009B0006AA134453F8083CD3F82025019BBD
:10C6A0001A60059B9B0006AA134453F8083C019AA4
:10C6B0001268C3F82025019B04330193059B0133C5
:10C6C0000593039A029B1344059A9A42DFD300BF55
:10C6D00000BF06B0704700B585B0019001AB1846A9
:10C6E000FFF7F0FE0390019B012202FA03F31A46C2
:10C6F000039BC3F8202500BF05B05DF804FB84B0A0
:10C700000190019B5B09029300230393029B002B82
:10C7100003D14FF0FF33039300BF019B03F01F03CE
:10C720000193039A019B22FA03F303F00103002B08
:10C7300014BF01230023DBB2184604B0704784B055
:10C7400001900091009B0393019BDB080293019BE6
:10C7500003F0070301930122019B02FA03F30399FB
:10C76000029A0A4412781340184604B0704784B005
:10C7700001900091009B0393019BDB080293019BB6
:10C7800003F007030193039A029B13441B785AB2E8
:10C790000121019B01FA03F35BB2134359B2039ADF
:10C7A000029B1344CAB21A7000BF04B07047000065
:10C7B00082B001900C4A019B1344303393F900304E
:10C7C000002B09DB084A019B1344303393F90030F6
:10C7D000072B01DC012300E0002303F00103DBB29F
:10C7E000184602B0704700BFC437002082B00190E5
:10C7F000064A019B1344303393F90030072BCCBF1A
:10C8000001230023DBB2184602B07047C437002072
:10C8100082B00190064A019B1344303393F90030F3
:10C82000DB43DBB2DB09DBB2184602B0704700BF66
:10C83000C437002084B00390029101928DF8033038
:10C84000029B59B20E4A039B134430330A461A70B6
:10C850000B49029B019A41F823209DF8033083F095
:10C860000103DBB2002B08D0029B083B039A51B2B4
:10C87000034A13440A4683F8502000BF04B07047AF
:10C88000C437002082B00190044A019B1344303326
:10C89000FF221A7000BF02B0704700BFC4370020EB
:10C8A00000B583B0019004490198FFF760FF00BF15
:10C8B00003B05DF804FB00BF1838002082B001907F
:10C8C000044A019B1344303393F90030184602B0F8
:10C8D000704700BFC437002082B00190034A019B1B
:10C8E00052F82330184602B0704700BFC43700200A
:10C8F00084B00190074A019B1344503393F90030F0
:10C900008DF80F309DF80F3023F0C003184604B0A7
:10C91000704700BFC437002084B00190074A019BD4
:10C920001344503393F900308DF80F309DF80F30D9
:10C930009B09DBB2184604B0704700BFC437002023
:10C9400000B589B00390029113468DF80730FF239C
:10C950008DF81F309DF80730002B01D0002300E038
:10C96000082305939DF80730002B01D0082300E031
:10C970000C230493059B069314E00F4A069B52F880
:10C980002330B3F1FF3F0AD19DF80730029A069990
:10C990000398FFF74FFF069B8DF81F3006E0069BBC
:10C9A00001330693069A049B9A42E6D39DF91F3001
:10C9B000184609B05DF804FBC437002082B0034676
:10C9C0008DF807309DF80730094A4FF0FF3142F8E3
:10C9D00023109DF80730072B07D99DF80730083B37
:10C9E000034A1344FF2283F8502000BF02B070476F
:10C9F000C437002000B583B02D4B93F85830002B7E
:10CA000003D008230093009B4EE000238DF80730ED
:10CA100011E09DF807301846FFF771FE0346002B22
:10CA200004D09DF807301846FFF72CFF9DF807301B
:10CA300001338DF807309DF807301F2BE9D900230B
:10CA40008DF8073009E09DF807301846FFF7B6FF6C
:10CA50009DF8073001338DF807309DF807300B2B18
:10CA6000F1D904220021134806F070FE1248FFF7A6
:10CA700027FC034606211846FFF72AFC0E48FFF75D
:10CA80001FFC03461846FFF74FFC4FF4BE70FFF73C
:10CA90006EFC4FF00040FFF793FC054B012283F83A
:10CAA000582000230093009B184603B05DF804FB58
:10CAB000C43700201838002000600040044B93F871
:10CAC0005830002B14BF01230023DBB218467047F7
:10CAD000C437002000B587B00390029101920398FB
:10CAE000FFF70DFE0346002B04D136494FF40C70BE
:10CAF00002F0DEFC002305930398FFF789FE03464E
:10CB0000002B02D00823059357E0029B9B78C3F3C8
:10CB10004003DBB21A4601990398FFF711FF034661
:10CB20008DF813309DF91330B3F1FF3F43D0029BD2
:10CB30009B78C3F38003DBB283F00103DBB2002BED
:10CB400013D0029B9B7803F00103DBB2002B03D0D0
:10CB50000398FFF715FD05E0029B5B7819460398E3
:10CB6000FFF7F9FC0398FFF79BFE029B9B7803F00D
:10CB70000203DBB2002B08D09DF91300029B1B7847
:10CB80001A460399FFF74AFC17E09DF91330083B5A
:10CB90000D4A134493F95010029B1B789B015AB223
:10CBA0009DF91330083B0A4351B2074A13440A4621
:10CBB00083F8502001E004230593059B184607B035
:10CBC0005DF804FBEC510300C437002000B589B0C8
:10CBD00001900B468DF803300198FFF790FD034656
:10CBE000002B04D13A494FF4187002F061FC01980F
:10CBF000FFF70EFE0346002B04D1354940F26120B9
:10CC000002F056FC0198FFF7F1FD0346002B2AD0F5
:10CC10000198FFF753FE0346083B1846FFF77CFEDA
:10CC200003468DF80F309DF80F30032B0BD1019880
:10CC3000FFF7F0FC0346002B01D0032300E00223A2
:10CC40008DF81F3008E09DF80F30012B01D1022331
:10CC500000E003238DF81F309DF81F30194601981E
:10CC6000FFF7AAFC30E00198FFF7A2FD0346002B76
:10CC70002AD00198FFF722FE03460693069B9BB23B
:10CC800040339BB29B00ADF81630069B1846FFF769
:10CC9000AFFBBDF816301846FFF769FB9DF803306F
:10CCA000002B11D00198FFF709FE03461846FFF745
:10CCB00013FE0490049B002B06D00122069B02FA6F
:10CCC00003F31846FFF77CFB00BF09B05DF804FBD7
:10CCD000EC51030000B583B001900198FFF70FFD00
:10CCE0000346002B04D1094940F2AF2002F0E0FBDB
:10CCF0000198FFF78FFC0346002B14BF012300238C
:10CD0000DBB2184603B05DF804FB00BFEC51030032
:10CD100000B585B00190019A01210020FFF7ADFC1C
:10CD2000002303930BE0039B9B00019A13441B68B1
:10CD3000002B01D0012306E0039B01330393039BE7
:10CD4000002BF0D00023184605B05DF804FB00006E
:10CD500000B587B00190002305935BE0344A059B42
:10CD60001344503393F90030B3F1FF3F4ED0059890
:10CD7000FFF7BEFD049001990498FFF7E0FC03461D
:10CD8000002B44D00598FFF7C7FD03468DF80F3000
:10CD90000498FFF754FC03468DF80E309DF80E30D2
:10CDA000022B01D1032300E002238DF80D309DF802
:10CDB0000D3019460498FFF7FFFB0498FFF78BFC32
:10CDC0000498FFF77BFD03461846FFF785FD0290A8
:10CDD000029B002B1BD09DF80F30032B0FD09DF82A
:10CDE0000E30022B03D19DF80F30012B07D09DF898
:10CDF0000E30032B0BD19DF80F30022B07D19DF87D
:10CE00000F20029B11460498984700E000BF059B45
:10CE100001330593059B032BA0D90198FFF778FFF9
:10CE20000346002B97D100BF00BF07B05DF804FB9D
:10CE3000C437002000B589B0002306930023009377
:10CE40004FF48073ADF8123001230793002305934C
:10CE500021E0BDF812301846FFF774FA0346002BA4
:10CE60000ED00798FFF7B8FA0346002B08D0BDF89C
:10CE700012301846FFF77BFA069A079B1343069376
:10CE8000079B5B000793BDF812300433ADF81230F6
:10CE9000059B01330593059B072BDAD94FF4BE7030
:10CEA000FFF750FA0346002B0DD04FF4BE70FFF78A
:10CEB0005EFA069B43F0004306936B461A46012137
:10CEC0000020FFF7DAFB069BDBB2002B29D0012301
:10CED00007930023059321E0079A069B1340002B3C
:10CEE00016D00598FFF7CCFA03900598FFF7D8FA0B
:10CEF00003468DF80B300598FFF7EEFC0190019B7F
:10CF0000002B05D09DF80B20019B114603989847F4
:10CF1000079B5B000793059B01330593059B072B3C
:10CF2000DAD9069B002B03DA6B461846FFF710FF91
:10CF300000BF09B05DF804FB08B5064B1B68002B69
:10CF400003D10549512002F0B3FA024B1B68984700
:10CF500000BF08BD203800206452030082B0019059
:10CF6000019B044A934201D1034B00E00023184681
:10CF700002B07047002000402038002000B587B084
:10CF800001900091019B002B03D11C49772002F0F6
:10CF90008FFA0198FFF7E2FF0590059B002B25D043
:10CFA00000238DF8133000238DF80B300DF10B03A7
:10CFB0001846FBF7BFFD059B1B79002B03D001230F
:10CFC0008DF8133005E0059B009A1A60059B01223D
:10CFD0001A719DF80B301846FBF7C2FD9DF813300F
:10CFE000002B03D011230393039B02E00023039340
:10CFF000039B184607B05DF804FB00BF64520300B2
:10D0000082B003468DF807309DF90730002B0CDB0A
:10D010009DF8073003F01F0205499DF907305B09B1
:10D02000012000FA02F241F8232000BF02B070474D
:10D0300000E100E082B0034600918DF807309DF9D1
:10D040000730002B0ADB009BDAB20C499DF9073050
:10D050005201D2B20B4483F800230BE0009BDAB2FA
:10D0600007499DF8073003F00F03043B5201D2B289
:10D070000B441A7600BF02B0704700BF00E100E029
:10D0800000ED00E082B00190019B1B0B5BB21846E3
:10D0900002B0704700B583B003460A468DF80730EA
:10D0A00013468DF806309DF80630012B03D99DF804
:10D0B0000630032B0BD99DF80630042B03D99DF8BD
:10D0C0000630072B03D908496B2002F0F1F99DF8CF
:10D0D00006209DF9073011461846FFF7ABFF00BF49
:10D0E00003B05DF804FB00BFD852030000B583B065
:10D0F00003468DF807309DF907301846FFF780FF8B
:10D1000000BF03B05DF804FB84B001900B46ADF89E
:10D110000230BDF80230019A134400221A60BDF8B3
:10D120000230019A13441B680393039B00BF04B0B1
:10D13000704782B001900B46ADF80230BDF8023066
:10D14000019A13441B68002B14BF01230023DBB298
:10D15000184602B0704782B001900091019B009A7E
:10D16000C3F8042300BF02B0704782B00190009161
:10D17000019BD3F80423009B1340002B14BF012311
:10D180000023DBB2184602B0704782B001900091D4
:10D19000019B009AC3F8082300BF02B0704784B017
:10D1A0000190019BD3F880340393019B039AC3F849
:10D1B0008024039B184604B0704782B00190019B05
:10D1C0000422C3F8002500BF02B0704784B003906A
:10D1D00002910192039B019AC3F81425039B029AC2
:10D1E000C3F80C2500BF04B0704784B003900291CF
:10D1F0000192039B029AC3F80825039B019AC3F886
:10D20000102500BF04B0704782B00190019BD3F895
:10D210001835DBB2184602B0704782B001900B4659
:10D220008DF803309DF80320019BC3F81C2500BF37
:10D2300002B0704782B001900B468DF803309DF824
:10D240000330019A134401221A6000BF02B07047F4
:10D2500082B001900B468DF8033013468DF80230F2
:10D260009DF803209DF802301343DBB21A46019B60
:10D27000C3F86C2500BF02B0704782B001900091E6
:10D28000019B009AC3F8242500BF02B0704700003C
:10D2900000B583B00190019B1B68184600F085F82B
:10D2A0000346002B04D105494FF4F67002F000F953
:10D2B0004FF0A043184603B05DF804FB0853030089
:10D2C00000B585B00190084611461A4603468DF810
:10D2D00003300B468DF8023013468DF8013001AB58
:10D2E0001846FFF7D5FF03909DF803209DF8023004
:10D2F0005B001A439DF801309B001A439DF81830DB
:10D300001B0242EA03019DF81C301B04019A1943D9
:10D31000039B02F5E07243F8221000BF05B05DF8F0
:10D3200004FB00B585B00390002301930023009314
:10D330000023012201210398FFF7C2FF00BF05B0BF
:10D340005DF804FB00B585B003900B468DF80B30FB
:10D350009DF80B3000220192002200920022002151
:10D360000398FFF7ADFF00BF05B05DF804FB00B503
:10D3700085B0019001AB1846FFF78AFF0390019B2F
:10D38000012202FA03F31946039800F004F800BFE3
:10D3900005B05DF804FB82B001900091019B009AFA
:10D3A000C3F8082500BF02B0704784B00190019B0C
:10D3B0005B09029300230393029B002B03D14FF0E0
:10D3C000FF33039300BF019B03F01F030193039AF4
:10D3D000019B22FA03F303F00103002B14BF012386
:10D3E0000023DBB2184604B0704700B583B001904B
:10D3F0000091009B1B68B3F1FF3F09D0009B1B68A5
:10D400001846FFF7B4FF009B1B681846FFF789FF1B
:10D41000009B5B68B3F1FF3F05D0009B5B68002178
:10D420001846FFF78FFF019B1A68009B9B691946FE
:10D430001046FFF722FF019B1868009B597D009B57
:10D440001B7D1A46FFF704FF019B1868009B1968B3
:10D45000009B5B681A46FFF7B9FE009B1B7D012B02
:10D4600022D1009B9B68B3F1FF3F05D0009B9B68D6
:10D4700000211846FFF766FF009BDB68B3F1FF3F12
:10D4800009D0009BDB681846FFF771FF009BDB6843
:10D490001846FFF746FF019B1868009BD968009B60
:10D4A0009B681A46FFF7A1FE00BF03B05DF804FBBE
:10D4B00000B583B001900B468DF80330019B1B68CB
:10D4C0004FF48E711846FFF71FFE019B1B684FF447
:10D4D000A2711846FFF718FE019B1B680E491846FB
:10D4E000FFF739FE019B1B681846FFF7CBFD03468B
:10D4F0001A469DF8033019461046FFF7CBFD019BF5
:10D500001B681846FFF7BEFD03461846FFF7EEFD01
:10D5100000BF03B05DF804FB8000020000B587B0D7
:10D52000039002910192029B002B03D12D49AA2066
:10D5300001F0BEFF039B1B791A462C2303FB02F369
:10D54000294A1344049300230593049B93F82A303B
:10D55000002B03D008230593059B3EE0039B1A682C
:10D56000039B1B791946214B53F82130194610466D
:10D57000FFF704FD0346002B03D011230593059B01
:10D580002BE002990398FFF730FF049B019A5A6041
:10D59000029B1A69049B1A60049B5B68002B05D0F0
:10D5A000029B1B7F19460398FFF782FF039B1B68B2
:10D5B0001846FFF702FE049B00229A61049B00229A
:10D5C000DA61049B002283F82920049B00225A611F
:10D5D000049B012283F82A20059B184607B05DF8BA
:10D5E00004FB00BF4053030028380020B053030061
:10D5F00000B585B0019000914FF48E710198FFF74E
:10D6000083FD009B9A68009B1B6A13441B788DF86E
:10D610000F30009B1B6A5A1C009B1A629DF80F304A
:10D6200019460198FFF7F9FD00BF05B05DF804FB4E
:10D6300000B585B001900091009B5B69039316E0F3
:10D64000009B93F82830DBB2002B01D0002314E0BC
:10D650004FF48E710198FFF76CFD034683F00103D0
:10D66000DBB2002BECD100990198FFF7C1FF009BC2
:10D670001B6A039A9A42EBD80123184605B05DF85D
:10D6800004FB000000B587B0039002910192039B58
:10D690001B791A462C2303FB02F33C4A13440493E0
:10D6A000049B93F82A30012B04D039494FF48C7035
:10D6B00001F0FEFE029B002B04D1354940F2191007
:10D6C00001F0F6FE019B002B04D131494FF48D701F
:10D6D00001F0EEFE039800F05DF80346002B03D046
:10D6E00011230593059B4CE0049B019A5A61049B0E
:10D6F000029A9A60049B00221A62049B002283F81B
:10D70000282000230593039B1B684FF48E71184655
:10D71000FFF7FAFC039B1B6808211846FFF78AFDF8
:10D72000039B1B6804991846FFF762FF049B5B6824
:10D73000002B25D1039B1B6804991846FFF778FF3F
:10D74000034683F00103DBB2002B02D00F230593C5
:10D7500013E000BF039B1B684FF48E711846FFF760
:10D76000E8FC034683F00103DBB2002BF2D1039BFC
:10D770001B680C211846FFF75DFD049B00225A61CF
:10D78000059B184607B05DF804FB00BF2838002051
:10D790004053030082B00190019B1B791946074A50
:10D7A0002C2303FB01F3134414331B68002B14BF19
:10D7B00001230023DBB2184602B07047283800204E
:10D7C00000B583B00190019B1B684FF4927118461D
:10D7D000FFF79AFC019B1B684FF484711846FFF712
:10D7E00093FC019B1B6800211846FFF723FD00BF37
:10D7F00003B05DF804FB10B582B001900091009B6E
:10D800009B69002B08D14FF484710198FFF77CFCD1
:10D810000198FFF7F9FC13E04FF484710198FFF7CA
:10D8200073FC009BDA68009B5B6AD4180198FFF7D1
:10D83000EBFC03462370009B5B6A5A1C009B5A62F8
:10D8400002B010BD00B589B0039002910192039B14
:10D850001B791A462C2303FB02F37F4A13440593DA
:10D86000039B1B7919467C4A2C2303FB01F31344C9
:10D870002A331B78012B04D078494FF4B67001F09D
:10D8800017FE029B002B04D1744940F26D1001F089
:10D890000FFE019B002B04D170494FF4B77001F0CB
:10D8A00007FE00238DF81C30059B5B68002B06D01B
:10D8B000039B1B684FF401711846FFF766FC059B3C
:10D8C0009B69002B15D0059BDB69002B0ED0059BB7
:10D8D0005B68002B06D0039B1B684FF40171184650
:10D8E000FFF739FC11230693069BB0E001238DF866
:10D8F0001C309DF81C3083F00103DBB2002B0CD0F0
:10D90000059B019A9A61059B029ADA60059B0022A9
:10D910005A62059B0022DA6105E0059B029A1A61B2
:10D92000059B019ADA61059B93F8293083F0010386
:10D93000DBB2002B09D09DF81C3083F00103DBB271
:10D94000002B02D00398FFF73BFF059B5B68002B81
:10D9500073D1039B1B684FF4A2711846FFF7D4FBE9
:10D96000039B1B684FF492711846FFF7E2FB0346D6
:10D970008DF81F30039B1B684FF484711846FFF726
:10D98000D8FB03468DF81E30039B1B684FF4A27131
:10D990001846FFF7CEFB03468DF81D309DF81E306C
:10D9A00083F00103DBB2002B0DD09DF81D3083F016
:10D9B0000103DBB2002B06D09DF81F3083F001037A
:10D9C000DBB2002BCCD19DF81F30002B0FD19DF87E
:10D9D0001D30002B0BD1039B1B6805991846FFF7E0
:10D9E0000AFF059B9A69059B5B6A9A42B8D8059B1A
:10D9F00000229A619DF81F30002B03D00323069369
:10DA0000069B24E09DF81D30002B03D00F230693C6
:10DA1000069B1CE0059B93F82930002B06D0039B46
:10DA20001B6800211846FFF705FC0DE0039B1B68EF
:10DA300004211846FFF7FEFB06E0039B1B684FF42A
:10DA400001711846FFF787FB00230693069B1846D3
:10DA500009B05DF804FB00BF2838002040530300E4
:10DA600000B589B003900291019201238DF8103026
:10DA7000029B0693019B0593039B5B68039A1168C5
:10DA800004AA1046984700BF09B05DF804FB00B532
:10DA900087B00190009100238DF80830009B04931B
:10DAA000019B9B680393019B00225A61019B5B6869
:10DAB000019A116802AA1046984700BF07B05DF8A6
:10DAC00004FB00B58BB0019000914FF400710198F8
:10DAD000FFF74BFB0346002B39D04FF492710198AE
:10DAE000FFF727FB0346002B31D04FF492710198CA
:10DAF000FFF70AFB4FF401710198FFF746FB009B0B
:10DB000093F8293083F00103DBB2002B03D004210A
:10DB10000198FFF78FFB02238DF80C300198FFF777
:10DB20003EFB03460693009B9B690593009BDB68C5
:10DB30000493009B00229A61009B0022DA61009B03
:10DB40005B68009A116803AA1046984752E00421C6
:10DB50000198FFF70AFB0346002B4BD04FF484716A
:10DB60000198FFF7E6FA0346002B43D0009901988D
:10DB7000FFF741FE009B9A69009B5B6A9A4239D18C
:10DB8000009BDB69002B19D0009BDB680993009B8D
:10DB90005B6A0893009BDA69009B9A61009B1A6993
:10DBA000009BDA60009B0022DA61009B00225A622F
:10DBB000099A08990098FFF753FF1BE0009B93F820
:10DBC000293083F00103DBB2002B03D0042101983C
:10DBD000FFF730FB4FF401710198FFF7D6FA009B75
:10DBE00000229A61009B596A009BDB681A460098E4
:10DBF000FFF736FF4FF48E710198FFF79AFA03464C
:10DC0000002B24D0009B5B690793009B1B6A079A3B
:10DC10009A420DD9009B93F82830DBB283F00103C0
:10DC2000DBB2002B04D000990198FFF7E1FC0EE075
:10DC30004FF48E710198FFF767FA009B5B69002B28
:10DC400005D0009B5B6919460098FFF720FF4FF451
:10DC5000A2710198FFF76DFA0346002B1CD04FF418
:10DC6000A2710198FFF750FA009B93F82930002B1E
:10DC700003D000210198FFF7DDFA009B9B69002B80
:10DC80000AD0009B00229A61009B596A009BDB68C6
:10DC90001A460098FFF7E4FE00BF0BB05DF804FBE6
:10DCA00008B503490348FFF70CFF00BF08BD00BFDC
:10DCB000283800200020004082B003468DF807304D
:10DCC0009DF90730002B0CDB9DF8073003F01F0295
:10DCD00005499DF907305B09012000FA02F241F87D
:10DCE000232000BF02B0704700E100E082B003468D
:10DCF00000918DF807309DF90730002B0ADB009B5F
:10DD0000DAB20C499DF907305201D2B20B4483F8C4
:10DD100000230BE0009BDAB207499DF8073003F0BF
:10DD20000F03043B5201D2B20B441A7600BF02B07B
:10DD3000704700BF00E100E000ED00E082B001901C
:10DD4000019B03F06043B3F1005F0CBF012300238C
:10DD5000DBB2184602B0704782B00190019B1B0BEA
:10DD60005BB2184602B0704700B583B003460A465E
:10DD70008DF8073013468DF806309DF80630012BDC
:10DD800003D99DF80630032B0BD99DF80630042BE0
:10DD900003D99DF80630072B03D908496B2001F001
:10DDA00087FB9DF806209DF9073011461846FFF7BE
:10DDB0009DFF00BF03B05DF804FB00BFB453030038
:10DDC00000B583B003468DF807309DF9073018463B
:10DDD000FFF772FF00BF03B05DF804FB84B0019051
:10DDE0000B46ADF80230BDF80230019A1344002210
:10DDF0001A60BDF80230019A13441B680393039B19
:10DE000000BF04B0704782B001900B46ADF80230FD
:10DE1000BDF80230019A13441B68002B14BF012384
:10DE20000023DBB2184602B0704782B00190009127
:10DE3000019BD3F80022009B1A43019BC3F80022E8
:10DE400000BF02B0704782B001900091019BD3F8EF
:10DE50000022009BDB431A40019BC3F8002200BF55
:10DE600002B0704782B001900091019B009AC3F804
:10DE7000042300BF02B0704782B001900091019B63
:10DE8000009AC3F8082300BF02B0704784B0019025
:10DE9000019BD3F880340393019B039AC3F8802439
:10DEA000039B184604B0704782B00190019B082282
:10DEB000C3F8002500BF02B0704784B00390029100
:10DEC0000192039B029AC3F80C25039B019AC3F8A5
:10DED000142500BF04B0704784B0039002910192F2
:10DEE000039B029AC3F80825039B019AC3F81025E7
:10DEF00000BF04B0704782B001900B468DF803302C
:10DF00009DF80330019A134401221A6000BF02B049
:10DF1000704782B001900B468DF8033013468DF8A0
:10DF200002309DF803209DF802301343DBB21A46FD
:10DF3000019BC3F86C2500BF02B0704782B001900E
:10DF40000091019B009AC3F8242500BF02B07047DE
:10DF500084B0039002910192029A039BC3F8442576
:10DF6000039B019AC3F8482500BF04B0704782B0F4
:10DF70000190019BD3F84C35184602B0704784B02D
:10DF8000039002910192029A039BC3F83425039BEC
:10DF9000019AC3F8382500BF04B0704782B00190E1
:10DFA000019BD3F83C35184602B0704700B583B0EA
:10DFB0000190019B1B68184600F085F80346002B72
:10DFC00004D105494FF4F67001F072FA4FF0A04306
:10DFD000184603B05DF804FBE453030000B585B0B8
:10DFE0000190084611461A4603468DF803300B4649
:10DFF0008DF8023013468DF8013001AB1846FFF75B
:10E00000D5FF03909DF803209DF802305B001A4372
:10E010009DF801309B001A439DF818301B0242EA1C
:10E0200003019DF81C301B04019A1943039B02F560
:10E03000E07243F8221000BF05B05DF804FB00B5A4
:10E0400085B0039000230193002300930023012255
:10E0500001210398FFF7C2FF00BF05B05DF804FB84
:10E0600000B585B003900B468DF80B309DF80B3052
:10E070000022019200220092002200210398FFF763
:10E08000ADFF00BF05B05DF804FB00B585B00190A1
:10E0900001AB1846FFF78AFF0390019B012202FAA9
:10E0A00003F31946039800F004F800BF05B05DF8CB
:10E0B00004FB82B001900091019B009AC3F80825EF
:10E0C00000BF02B0704784B00190019B5B090293CE
:10E0D00000230393029B002B03D14FF0FF330393E4
:10E0E00000BF019B03F01F030193039A019B22FAD7
:10E0F00003F303F00103002B14BF01230023DBB261
:10E10000184604B0704700B583B001900091009BA1
:10E110001B68B3F1FF3F09D0009B1B681846FFF74F
:10E12000B4FF009B1B681846FFF789FF009B5B68E4
:10E13000B3F1FF3F05D0009B5B6800211846FFF755
:10E140008FFF019B1A68009B9B6919461046FFF7D9
:10E15000F5FE019B1868009B597D009B1B7D1A46AC
:10E16000FFF7D7FE019B1868009B1968009B5B684E
:10E170001A46FFF7A2FE009B1B7D012B22D1009BBC
:10E180009B68B3F1FF3F05D0009B9B6800211846B8
:10E19000FFF766FF009BDB68B3F1FF3F09D0009BF0
:10E1A000DB681846FFF771FF009BDB681846FFF736
:10E1B00046FF019B1868009BD968009B9B681A4624
:10E1C000FFF78AFE00BF03B05DF804FB00B583B023
:10E1D00001900B468DF80330019B1B684FF488714A
:10E1E0001846FFF7FBFD019B1B684FF49071184622
:10E1F000FFF7F4FD019B1B684FF492711846FFF77F
:10E20000EDFD019B1B684FF4A2711846FFF7E6FD78
:10E21000019B1B684FF4AC711846FFF7DFFD019BB3
:10E220001B680F491846FFF71DFE019B1B68184627
:10E23000FFF792FD03461A469DF803301946104633
:10E24000FFF792FD019B1B681846FFF785FD03460B
:10E250001846FFF7B5FD00BF03B05DF804FB00BF33
:10E260001003420000B587B0039002910192029B17
:10E27000002B03D12B49CF2001F01AF9039B1B7906
:10E280001A461346DB0013449B00274A13440493A9
:10E2900000230593049B93F82030002B03D0082320
:10E2A0000593059B3AE0039B1A68039B1B7919466B
:10E2B0001E4B53F8213019461046FEF75FFE034609
:10E2C000002B03D011230593059B27E002990398A7
:10E2D000FFF719FF049B019A5A60029B1A69049B7D
:10E2E0001A60049B5B68002B05D0029B1B7F1946BC
:10E2F0000398FFF76BFF039B1B681846FFF7D4FDDD
:10E30000049B00229A61049B0022DA61049B002294
:10E310005A61049B012283F82020059B184607B010
:10E320005DF804FB1C540300543800209054030093
:10E3300000B589B0039002910192039B1B791A46A4
:10E340001346DB0013449B00564A13440593059B78
:10E3500093F82030012B04D0534940F2531001F0C0
:10E36000A7F8029B002B04D14F494FF4AA7001F08B
:10E370009FF8019B002B04D14B4940F2551001F04E
:10E3800097F8039B1B79002B02D1019BFF2B04D92B
:10E3900045494FF4AB7001F08BF80298FFF7CEFCC3
:10E3A000034683F00103DBB2002B03D01023079355
:10E3B000079B73E0039800F079F80346002B03D025
:10E3C00011230793079B69E0059B019A5A61059BFE
:10E3D000029A9A6000230793039B1B684FF4907185
:10E3E0001846FFF7FBFC039B1B684FF4AC71184603
:10E3F000FFF7F4FC039B1868059B9968059B5B6914
:10E400001A46FFF7A5FD039B1B6808211846FFF776
:10E4100072FD059B5B68002B3FD1039B1B684FF48B
:10E4200090711846FFF7EFFC03468DF81B30039BF5
:10E430001B684FF4AC711846FFF7E5FC03468DF8F6
:10E440001A309DF81B3083F00103DBB2002B06D09D
:10E450009DF81A3083F00103DBB2002BDDD19DF86B
:10E460001A30002B02D00F23079313E0039B1B6885
:10E470000C211846FFF73FFD00BF039B1B684FF4BC
:10E48000AC711846FFF7BFFC034683F00103DBB213
:10E49000002BF2D1059B00225A61079B184609B058
:10E4A0005DF804FB543800201C54030082B0019036
:10E4B000019B1B791946084A0B46DB000B449B0065
:10E4C000134414331B68002B14BF01230023DBB259
:10E4D000184602B0704700BF5438002000B589B01C
:10E4E000039002910192039B1B791A461346DB00AD
:10E4F00013449B00864A13440593039B1B791946DA
:10E50000834A0B46DB000B449B00134420331B78EB
:10E51000012B04D07F494FF4D37000F0C9FF029B58
:10E52000002B04D17B4940F2A71000F0C1FF019BF2
:10E53000002B04D177494FF4D47000F0B9FF039B4E
:10E540001B79002B02D1019BFF2B04D9714940F2AA
:10E55000A91000F0ADFF0298FFF7F0FB034683F02F
:10E560000103DBB2002B03D010230693069BCAE005
:10E5700000238DF81F30059B5B68002B06D0039BA2
:10E580001B684FF404711846FFF776FC059B9B69E6
:10E59000002B15D0059BDB69002B0ED0059B5B681B
:10E5A000002B06D0039B1B684FF404711846FFF73D
:10E5B00059FC11230693069BA5E001238DF81F301B
:10E5C0009DF81F3083F00103DBB2002B09D0059BBF
:10E5D000019A9A61059B029ADA60059B0022DA6132
:10E5E00005E0059B029A1A61059B019ADA610023F6
:10E5F0000693039B1B684FF488711846FFF7EEFBE8
:10E60000039B1B684FF4A2711846FFF7E7FB039BBF
:10E610001B68019A02991846FFF7B1FC9DF81F305C
:10E6200083F00103DBB2002B06D0039B1B680021A3
:10E630001846FFF760FC05E0039B1B682021184685
:10E64000FFF7F3FB039B1B791946314A0B46DB00AE
:10E650000B449B00134404331B68002B4BD1039BDA
:10E660001B684FF488711846FFF7CDFB03468DF801
:10E670001330039B1B684FF4A2711846FFF7C3FBCE
:10E6800003468DF81230039B1B684FF492711846B5
:10E69000FFF7B9FB03468DF811309DF8133083F076
:10E6A0000103DBB2002B0DD09DF8123083F0010383
:10E6B000DBB2002B06D09DF8113083F00103DBB2F2
:10E6C000002BCCD1039B1B791946114A0B46DB006A
:10E6D0000B449B001344183300221A609DF811303C
:10E6E000002B01D0032306939DF81230002B09D094
:10E6F0000F23069306E0039B1B684FF40471184632
:10E70000FFF7B0FB069B184609B05DF804FB00BF9D
:10E71000543800201C54030000B589B003900291C6
:10E72000019201238DF81030029B0693019B059303
:10E73000039B5B68039A116804AA1046984700BFC0
:10E7400009B05DF804FB00B587B00190009100238B
:10E750008DF80830009B0493019B9B680393019BF9
:10E7600000225A61019B5B68019A116802AA104657
:10E77000984700BF07B05DF804FB00B589B0019071
:10E7800000914FF492710198FFF73DFB0346002B77
:10E7900022D04FF492710198FFF720FB02238DF8ED
:10E7A00008300198FFF772FB034605930198FFF7C5
:10E7B000F5FB03460493009BDB680393009B002258
:10E7C0009A61009B0022DA61009B5B68009A1168E5
:10E7D00002AA104698473BE04FF488710198FFF772
:10E7E00012FB0346002B33D04FF488710198FFF7DA
:10E7F000F5FA0198FFF7D2FB0790009B9B69079AF7
:10E800009A4225D1009BDB69002B17D0009BDB6867
:10E81000069320210198FFF716FB009BDA69009B05
:10E820009A61009B1A69009BDA60009B0022DA6102
:10E83000069A07990098FFF76FFF09E0009B0022F6
:10E840009A61009BDB681A4607990098FFF764FFFE
:10E850004FF4A2710198FFF7D6FA0346002B18D0A7
:10E860004FF4A2710198FFF7B9FA009B9B69002B46
:10E870000FD0009B00229A61009B0022DA61019870
:10E88000FFF78CFB0146009BDB681A460098FFF7F8
:10E8900043FF4FF490710198FFF7B5FA0346002B40
:10E8A00014D04FF490710198FFF798FA0C21019859
:10E8B000FFF721FB009B5B69002B07D00198FFF756
:10E8C00056FB034619460098FFF73DFF4FF4AC7125
:10E8D0000198FFF798FA0346002B10D04FF4AC7163
:10E8E0000198FFF77BFA009B5B69002B07D001982A
:10E8F000FFF73DFB034619460098FFF724FF00BFD2
:10E9000009B05DF804FB000008B503490348FFF7B0
:10E9100034FF00BF08BD00BF543800200020004075
:10E9200000B583B00190019B1B68184600F03EF8CB
:10E930000346002B04D105494FF4F67000F0B8FDF2
:10E940004FF0A043184603B05DF804FB9454030055
:10E9500000B585B001900B468DF8033001AB184629
:10E96000FFF7DEFF0390019A039B02F5E07253F874
:10E970002230019A23F44031039B02F5E07243F800
:10E980002210019A039B02F5E07253F822309DF8A1
:10E99000032012041146019A1943039B02F5E07209
:10E9A00043F8221000BF05B05DF804FB84B001906D
:10E9B000019B5B09029300230393029B002B03D16D
:10E9C0004FF0FF33039300BF019B03F01F0301933C
:10E9D000039A019B22FA03F303F00103002B14BFF7
:10E9E00001230023DBB2184604B0704700B583B0A2
:10E9F0000190019B012B04D80198FCF7B1FF03465D
:10EA000000E00023184603B05DF804FB00B587B0B2
:10EA100003460A468DF8073013468DF8063000236A
:10EA20008DF81730002304939DF807301846FCF743
:10EA3000DFFF0490049B012B61D89DF80630022B68
:10EA400052D0022B5EDC002B31D0012B5AD136493B
:10EA5000049A13465B0013440B441B788DF817305F
:10EA60003149049A13465B0013440B4401331B786D
:10EA7000002B0ED02D4B2E4A4FF480411846F9F74B
:10EA80005DFD0390039B002B03D1294A9DF80730BD
:10EA900013702549049A13465B0013440B44023358
:10EAA0001978244A049B13440A461A702AE01F4B23
:10EAB0001846F9F779FD1F4A049B134419781A4840
:10EAC000049A13465B001344034402331B789942B3
:10EAD00017D11549049A13465B0013440B440233C3
:10EAE0001B788DF817300CE00F49049A13465B0031
:10EAF00013440B4401331B788DF8173002E000BF3C
:10EB000000E000BF9DF81730002B09D00A4B1B68AE
:10EB1000002B05D0084B1B689DF81720104698471E
:10EB200000BF07B05DF804FBCC380020D8380020C7
:10EB3000F8380020FC380020C838002000B583B029
:10EB40000190019B1B7802211846FFF75FFF00BF71
:10EB500003B05DF804FB000000B583B00C4B1B78DC
:10EB6000002B0FD00023019308E0019B022B02D061
:10EB70000198FCF781FE019B01330193019B012B5E
:10EB8000F3D901E0FCF792FE00BF03B05DF804FB8F
:10EB9000803800202DE9F04F87B003468DF80F3004
:10EBA0000023059300230493D14B1B78002B04D042
:10EBB000CF4B00221A70FFF7CFFF9DF80F30172BB5
:10EBC00000F2298201A252F823F000BF2DEC0200CE
:10EBD00045EC020045EC0200D7EC020065ED0200B6
:10EBE000D9ED020065EE020085EE020095EE02000E
:10EBF000B3EE0200D1EE0200FDEE02001BEF0200B8
:10EC000029EF020029EF020029EF020029EF02009C
:10EC100029EF0200B9EF0200C7EF0200DBEF0200AC
:10EC2000EFEF020009F0020009F00200FFF794FF85
:10EC3000B04B1846F9F7B8FC0590AF4A9DF80F3075
:10EC40001370E9E10020FCF7CFFD0346002B0DD047
:10EC50000020FCF711FE9DF80F30022B02D14FF47B
:10EC6000E16301E04FF47A6304930BE00020FCF7CA
:10EC7000E9FD9DF80F30022B01D1C82301E04FF4CC
:10EC8000C87304939C4A9DF80F301370994C049BF1
:10EC900018464FF000014FF000024FF00003CB0385
:10ECA00043EA5043C20312F57A71009143F1000325
:10ECB00001934FF4FA624FF00003DDE9000104F024
:10ECC000BFFB02460B461346002219462046F9F7C1
:10ECD00035FC0590A0E10020FCF786FD0346002BE3
:10ECE0000DD00020FCF7C8FD9DF80F30032B02D19A
:10ECF0004FF4487301E04FF47A6304930BE0002073
:10ED0000FCF7A0FD9DF80F30032B01D1C82301E0D3
:10ED10004FF4C8730493784A9DF80F301370754C04
:10ED2000049B18464FF000014FF000024FF0000323
:10ED3000CB0343EA5043C20312F57A7A43F1000B46
:10ED40004FF4FA624FF000035046594604F078FB46
:10ED500002460B461346002219462046F9F7EEFB01
:10ED6000059059E10020FCF73FFD0346002B06D03B
:10ED70000020FCF781FD4FF47A63049305E0002046
:10ED8000FCF760FD4FF4C87304935B4A9DF80F30A5
:10ED90001370584C049B18464FF000014FF00002CE
:10EDA0004FF00003CB0343EA5043C20312F57A78D5
:10EDB00043F100094FF4FA624FF000034046494620
:10EDC00004F03EFB02460B4613460022194620463D
:10EDD000F9F7B4FB05901FE10020FCF705FD0346A1
:10EDE000002B0CD00020FCF747FD9DF80F30052BC1
:10EDF00001D1C82301E04FF47A6304930BE00020B3
:10EE0000FCF720FD9DF80F30052B01D1C82301E050
:10EE10004FF4C8730493384A9DF80F301370354C83
:10EE2000049B18464FF000014FF000024FF0000322
:10EE3000CB0343EA5043C20312F57A7643F100074D
:10EE40004FF4FA624FF000033046394604F0F8FA06
:10EE500002460B461346002219462046F9F76EFB80
:10EE60000590D9E00020FCF747FD234A9DF80F30BC
:10EE70001370204B002240F266611846F9F75EFBE2
:10EE80000590C9E00020FCF7F7FC1B4A9DF80F3005
:10EE90001370C1E0164B01221A700120FCF72CFD03
:10EEA000144B002240F266611846F9F747FB0590C3
:10EEB000B2E00F4B01221A700120FCF71DFD0D4B33
:10EEC00000224FF400511846F9F738FB0590A3E0F3
:10EED000074B01221A700120FCF70EFD054B0022A2
:10EEE00040F266611846F9F729FB059094E000BFEF
:10EEF000793800208838002078380020494B0122DA
:10EF00001A700120FCF7F8FC474B00224FF4005127
:10EF10001846F9F713FB05907EE0FCF7DAFC434A4C
:10EF20009DF80F30137077E0414B1846F9F73CFB22
:10EF300005909DF80F30C3F111030493049B002B3F
:10EF400033D0059B002B30D1049B012B26D9384EA2
:10EF5000049B9BB21A46C82303FB02F318464FEAF0
:10EF6000E0714FF000024FF00003CB0343EA50433F
:10EF7000C20312F57A7443F100054FF4FA624FF0C0
:10EF800000032046294604F05BFA02460B4613466E
:10EF9000002219463046F9F7D1FA05900220FCF715
:10EFA00051FC244B01221A7036E00220FCF764FC6D
:10EFB000204B00221A702FE0FFF7CEFD1B4A9DF870
:10EFC0000F30137028E0FFF7C7FD0020FCF73AFC74
:10EFD000164A9DF80F3013701EE0FFF7BDFD0120AB
:10EFE000FCF730FC114A9DF80F30137014E0FFF766
:10EFF000B3FD0020FCF726FC0120FCF723FC0B4AA4
:10F000009DF80F30137007E0FCF763FC074A9DF88A
:10F010000F30137000E000BF059B184607B0BDE835
:10F02000F08F00BF79380020883800207838002021
:10F03000A83800208038002000B583B00190074B2D
:10F040001B6803F00103002B04D0054B1B78184606
:10F05000FFF7A0FD00BF03B05DF804FB7C38002083
:10F060007838002000B583B001900220FCF744FC02
:10F0700000BF03B05DF804FB00B585B003468DF812
:10F08000073000230393084B1B6803F00103002B98
:10F0900005D09DF807301846FFF77CFD0390039BD1
:10F0A000184605B05DF804FB7C38002000B585B03B
:10F0B00001900091002303932A4A019B13602A4A7E
:10F0C000009B1360019B03F00203002B2AD0002356
:10F0D000029308E001220121029800F055F8039004
:10F0E000029B01330293029B012B02D8039B002B4E
:10F0F000F0D0039B002B06D140F2333202211B4893
:10F10000F8F796FC0390039B002B02D1F8F718FD4B
:10F110000390039B002B05D1154A00211548F9F7F0
:10F12000D9F90390019B03F00103002B14D00120B7
:10F13000FCF794FC039B002B05D10F4A00210F48DC
:10F14000F9F7C8F90390039B002B05D10C4A012164
:10F150000C48F9F7BFF90390039B184605B05DF81A
:10F1600004FB00BF7C380020C8380020D0540300C6
:10F170003DEB0200CC54030039F00200C4540300FC
:10F1800065F00200C854030084B001900B468DF86E
:10F19000033013468DF8023000230393019B012BAB
:10F1A0003CD89DF80230012B0BD19DF80330012B88
:10F1B00004D1019BDBB20E33DBB200E000238DF8FB
:10F1C00002309DF80330022B0FD0022B23DC002BE2
:10F1D00016D0012B1FD11449019A13465B0013442A
:10F1E0000B449DF802201A701AE00F49019A134649
:10F1F0005B0013440B4401339DF802201A700FE0AA
:10F200000949019A13465B0013440B4402339DF8ED
:10F2100002201A7004E00723039301E007230393FD
:10F22000039B184604B07047CC38002000B585B069
:10F2300001900B468DF80330019B012B14D89DF8EB
:10F240000330002B01D0032300E000238DF80F30A2
:10F250000198FCF7EDFB02469DF80F301946104669
:10F26000FFF776FB002300E00623184605B05DF8A3
:10F2700004FB00B583B0019001210198FFF7D6FF90
:10F280000346184603B05DF804FB00B583B00122C5
:10F2900000210020FFF778FF0190019B002B04D094
:10F2A000019B072B01D0019B1CE0072202210120BA
:10F2B000FFF76AFF0190019B002B04D0019B072BF5
:10F2C00001D0019B0EE0042202210020FFF75CFF29
:10F2D0000190019B002B04D0019B072B01D0019BC7
:10F2E00000E00023184603B05DF804FB00B583B0CE
:10F2F000012202210020FFF747FF0190019B002B14
:10F3000004D0019B072B01D0019B1CE007220221A6
:10F310000120FFF739FF0190019B002B04D0019BD6
:10F32000072B01D0019B0EE00A2200210020FFF7ED
:10F330002BFF0190019B002B04D0019B072B01D0D8
:10F34000019B00E00023184603B05DF804FB00B504
:10F3500083B001900120FFF749FB0346002B03D047
:10F36000019B02221A700CE00020FFF73FFB0346CE
:10F37000002B03D0019B0B221A7002E0019B00229C
:10F380001A7000BF03B05DF804FB00B583B0002025
:10F39000FFF76FFF0190019B002B04D0019B062B10
:10F3A00001D0019B0CE00120FFF763FF0190019B5E
:10F3B000002B04D0019B062B01D0019B00E0002311
:10F3C000184603B05DF804FB00B585B001900091CC
:10F3D000019B1B88102B02D0112B18D02FE01A4B49
:10F3E0001B68002B0DD1FFF750FF0390039B002BF0
:10F3F00007D0164B1B68002B03D0144B1B680398D7
:10F400009847114B1B6801330F4A136017E00E4BEE
:10F410001B68013B0C4A13600B4B1B68002B0DD182
:10F42000FFF764FF0390039B002B07D0074B1B687B
:10F43000002B03D0054B1B680398984700BF00BF03
:10F4400005B05DF804FB00BF04390020003900203E
:10F4500000B585B001900091002303930A4A019BF7
:10F460001360009B002B02D00098FFF770FF074B42
:10F470001B68002B02D1FFF739FF0390039B18464E
:10F4800005B05DF804FB00BF0039002004390020FE
:10F4900075DF704700BF184676DF704700BF18461B
:10F4A0007FDF704700BF18468FDF704700BF1846E8
:10F4B00000B583B003460091ADF80630BDF80630C4
:10F4C000009A19460348F8F7B3FB00BF03B05DF894
:10F4D00004FB00BFEFBEADDE00B583B00190044A6F
:10F4E00078210198F8F7A4FB00BF03B05DF804FB96
:10F4F0000455030000B585B00F4803F0A3F803904E
:10F50000039B0293029B002B04D00C4A8221029899
:10F51000F8F78EFB0120FFF7AFFD0390039B0193EB
:10F52000019B002B04D0054A85210198F8F780FB48
:10F5300000BF05B05DF804FB34390020045503001A
:10F5400070B58AB00590059B1B78062B13D0062B4F
:10F5500044DC042B34D0052B40D1059B5B68089319
:10F56000089B0793079B002B3AD01F4A94210798CA
:10F57000F8F75EFB34E0059B5B6809931B4A1C4B64
:10F58000D31ADB081B0443F00300099B5B781D467C
:10F59000099B9B781E46099BDB781A46099B1B79C1
:10F5A0001946099B5B791C46099B9B79039302943E
:10F5B0000191009233462A460E49F7F7D8FB10E036
:10F5C0000A4A0B4BD31ADB081B0443F003030A4916
:10F5D0001846F7F769FBFFF78DFF02E000BF00E078
:10F5E00000BF00BF0AB070BD04550300103F030008
:10F5F000E83E030078550300A855030000B589B024
:10F600006B4610220021184604F0A0F801238DF863
:10F61000043001238DF80C306B461A4A19461A48FB
:10F6200002F0B5FF0790079B0693069B002B04D0C2
:10F63000164ABF210698F8F7FBFA154A002112482E
:10F6400002F011FE0790079B0593059B002B04D049
:10F650000E4AC5210598F8F7EBFA002201210A4865
:10F6600002F024FE0790079B0493049B002B04D018
:10F67000064AC8210498F8F7DBFA00BF09B05DF824
:10F6800004FB00BF41F5020034390020045503009B
:10F69000E054030000B583B001900199034803F0E2
:10F6A00085F800BF03B05DF804FB00BF08390020F7
:10F6B00000B587B001900B46ADF8023000230393EC
:10F6C00029E0019A039B13441B781846F9F78EF939
:10F6D0000590059B002B18D0059B112B15D01A4ABD
:10F6E0001A4BD31ADB081B0443F00103039A184991
:10F6F0001846F7F7E7FA059B0493049B002B04D008
:10F70000144AEF210498F8F793FA059B112BD8D0EF
:10F71000039B01330393BDF80230039A9A42D0D37E
:10F72000BDF80230013B019A13441B780D2B06D122
:10F7300000BF0A20F9F75AF90346112BF9D000BF90
:10F7400007B05DF804FB00BF103F0300E83E030074
:10F75000B85503000455030000B585B00190019B26
:10F760001B78022B55D0022B55DC002B02D0012B2D
:10F770003BD050E02B4B1B881A462B4B13441846AA
:10F78000F9F7FAF8274B1B8801339AB2254B1A80F8
:10F79000244B1B88013B244AD35C0A2B05D0214B08
:10F7A0001A88224B1B889A4237D31E4B1B881A4655
:10F7B0001D491F4803F084F90390039B082B0DD0CB
:10F7C000039B132B0AD0039B0293029B002B05D0B3
:10F7D000184A4FF494710298F8F72AFA039B132BF6
:10F7E000E3D0104B00221A8017E0134A134BD31AB0
:10F7F000DB081B0443F0010311491846F7F754FADC
:10F80000019B5B680B4A4FF49C711846F8F710FA9D
:10F8100004E000BF02E000BF00E000BF00BF05B091
:10F820005DF804FB283B00202C3B002074300020B6
:10F830000839002004550300103F0300E83E030090
:10F84000E055030000B587B001900091009B1B7844
:10F85000022B49D0022B55DC002B02D0012B3AD0D1
:10F8600050E02A4A2A4BD31ADB081B0443F0030357
:10F8700028491846F7F718FA009B5988009B0E3361
:10F880001A46019803F084F90590059B0493049BA4
:10F89000002B05D0204A40F253110498F8F7C8F91C
:10F8A000019803F0EFF80590059B0393039B002B51
:10F8B00005D0194A4FF4AB710398F8F7B9F9134A18
:10F8C000134BD31ADB081B0443F0030313491846F8
:10F8D000F7F7EAF916E0009B9A68009B9B891946A6
:10F8E0001046FFF7E5FE0DE0084A094BD31ADB0886
:10F8F0001B0443F003030A491846F7F7D5F9FFF74D
:10F90000F9FD00BF00BF07B05DF804FB103F030026
:10F91000E83E03000C560300045503002056030084
:10F920005056030000B587B003468DF8073000201D
:10F93000FFF7A2FB0590059B0493049B002B05D0C9
:10F94000104A40F271110498F8F772F99DF80730E7
:10F95000002B0ED1FFF719FD0590059B0393039B28
:10F96000002B08D0074A4FF4BC710398F8F760F9F0
:10F9700001E000BF00E000BF0123184607B05DF8BA
:10F9800004FB00BF0455030000B58FB00190009147
:10F99000019B04330B93019B1B883B2B62DC102BD8
:10F9A000C0F22381103B2B2B00F21F8101A252F8E1
:10F9B00023F000BF6DFA0200D9FA0200EBFB02004F
:10F9C00019FB0200EBFB0200EBFB0200EBFB020069
:10F9D000EBFB0200EBFB0200EBFB0200EBFB020087
:10F9E000F9FA0200EBFB0200EBFB0200EBFB02006A
:10F9F00041FB0200EBFB02006BFB0200EBFB020091
:10FA0000EBFB0200EBFB0200EBFB0200EBFB020056
:10FA1000EBFB0200EBFB0200EBFB0200EBFB020046
:10FA2000EBFB0200EBFB0200EBFB0200EBFB020036
:10FA3000EBFB0200EBFB0200EBFB0200EBFB020026
:10FA4000EBFB0200EBFB0200EBFB0200EBFB020016
:10FA5000EBFB0200EBFB0200EBFB0200EBFB020006
:10FA60009FFB0200562B00F0AD80BEE0019B9B88FF
:10FA700000221946664803F08BF80D900D9B069303
:10FA8000069B002B05D0634A40F293110698F8F7C5
:10FA9000CFF80720FFF7F0FA0D900D9B0593059B1B
:10FAA000002B05D05B4A4FF4CB710598F8F7C0F8EE
:10FAB000019B9B881946584801F042FB0D900D9B15
:10FAC0000493049B002B00F09280524A4FF4CD71B6
:10FAD0000498F8F7ADF88AE0504A514BD31ADB0886
:10FAE0001B0443F003000B9B1B881A460B9B1B79DE
:10FAF0004C49F7F7F8F887E00B9B1B79022B78D17C
:10FB0000464A474BD31ADB081B0443F0030346491C
:10FB10001846F7F7C9F86CE0019B9888002300228B
:10FB20008521FFF7BDFC0D900D9B0793079B002BD4
:10FB300061D0384A4FF4D7710798F8F779F85AE04E
:10FB40000B9B1A880B9B043319461046FFF7A0FC49
:10FB50000D900D9B0893089B002B4ED02D4A40F230
:10FB6000B5110898F8F764F847E000238DF80C30D9
:10FB700000238DF80D30019B9B8803AA114618467F
:10FB8000FFF792FC0D900D9B0993099B002B36D03B
:10FB9000204A40F2C1110998F8F74AF82FE0019B7A
:10FBA0009B8813211846FFF777FC0D900D9B0A9355
:10FBB0000A9B002B25D0174A40F2C9110A98F8F782
:10FBC00037F81EE0019B9B8813211846FFF764FC61
:10FBD0000D900D9B0C930C9B002B14D00D4A40F202
:10FBE000D1110C98F8F724F80DE000BF0CE000BF2D
:10FBF0000AE000BF08E000BF06E000BF04E000BF6D
:10FC000002E000BF00E000BF00BF0FB05DF804FBE2
:10FC100008390020045503008C2A0020103F0300FF
:10FC2000E83E0300605603009056030000B587B01D
:10FC300003F028F90590059B0493049B002B05D045
:10FC4000164A40F2E3110498F7F7F2FF00230193FC
:10FC500001AB1946012003F0CDF90590059B0393F4
:10FC6000039B002B05D00D4A40F2E9110398F7F7EA
:10FC7000DFFF01AB184603F0DBFA0590059B02930A
:10FC8000029B002B05D0054A40F2ED110298F7F7D0
:10FC9000CFFF00BF07B05DF804FB00BF04550300B1
:10FCA00000B583B001900091009B1B8840F677223D
:10FCB00093421FD1114A124BD31ADB081B0443F0A5
:10FCC000030310491846F6F7EFFF009B9B88033BA0
:10FCD0009AB20D4B1A80094A094BD31ADB081B0450
:10FCE00043F00300084B1B881A46074B1B88074943
:10FCF000F6F7F9FF00BF03B05DF804FB103F030007
:10FD0000E83E0300B056030074300020CC560300D8
:10FD100000B585B01149124801F0C6FC0390039B61
:10FD20000293029B002B05D00E4A40F20721029855
:10FD3000F7F77EFFF7210A4801F0E1FC0390039BEF
:10FD40000193019B002B05D0064A40F20A2101983D
:10FD5000F7F76EFF00BF05B05DF804FBA1FC0200E1
:10FD6000203900200455030000B585B003468DF806
:10FD700007309DF80730042B05D00A2B19D100203D
:10FD8000FAF774FC18E00E4B5B8813211846FFF756
:10FD900083FB0390039B082B0DD0039B0293029BD4
:10FDA000002B08D0074A40F221210298F7F740FFC4
:10FDB00001E000BF00E000BF00BF05B05DF804FB3C
:10FDC000083900200455030030B58DB0134B04AC46
:10FDD0001D460FCD0FC495E8030084E80300104BC7
:10FDE00000934FF4807301930E4B02934FF4807392
:10FDF0000393694604A807230B4AF8F72DFD0B90DF
:10FE00000B9B0A930A9B002B05D0084A40F2412124
:10FE10000A98F7F70DFF00BF0DB030BDF456030090
:10FE2000203C0020203D002059F70200045503002B
:10FE300000B587B00D4B01930D4B02930D4B03930F
:10FE400001AB19460C4802F045FD0590059B049353
:10FE5000049B002B05D0094A40F24F210498F7F784
:10FE6000E7FE00BF07B05DF804FB00BF45F80200E5
:10FE7000D9F4020060300020083900200455030046
:10FE800000B585B012490120FFF710F90390039BDC
:10FE90000293029B002B05D00E4A40F25A21029891
:10FEA000F7F7C6FE0DF1030319460020FFF7D0FA5D
:10FEB0000390039B0193019B002B05D0054A40F260
:10FEC0005D210198F7F7B4FE00BF05B05DF804FBB3
:10FED00069FD02000455030000B583B0F8F7BCFAD1
:10FEE0000190019B0093009B002B05D0044A40F237
:10FEF00065210098F7F79CFE00BF03B05DF804FB96
:10FF00000455030000B583B04FF480410020F6F79C
:10FF1000F7FB0190019B0093009B002B05D0064A44
:10FF200040F26D210098F7F783FEF6F77FFB00BFE4
:10FF300003B05DF804FB00BF0455030000B583B0B7
:10FF4000FAF70EFB0190019B0093009B002B05D05C
:10FF5000044A40F279210098F7F76AFE00BF03B027
:10FF60005DF804FB0455030000B585B06B4608221C
:10FF70000021184603F0EAFB0B4B00930B4B019357
:10FF80006B46184601F018F80390039B0293029BFE
:10FF9000002B05D0064A4FF422710298F7F748FE6D
:10FFA00000BF05B05DF804FB95F60200603000204C
:10FFB0000455030008B5F6F705FF034683F0010377
:10FFC000DBB2002B01D0FAF7E1FA00BF08BD000058
:10FFD00008B5FFF797FFFFF77FFFFFF751FFFFF728
:10FFE000C3FFFFF7ABFFFFF721FEFFF791FEFFF71F
:10FFF0001FFFFFF703FBFFF7E7FE094803F04CFB89
:020000023000CC
:10000000084A094BD31ADB081B0443F003030749D2
:100010001846F6F749FEFFF76DFAFFF7CBFFFCE74E
:100020000C570300103F0300E83E03003057030065
:1000300000B583B01F4B0193019B02221A61019B03
:1000400002225A61019B1C4A9A61019B1B4ADA6198
:10005000019B4FF400721A62019B00229A62019B7D
:1000600000225A62019B0022DA62019B124A9A64C2
:10007000019B134ADA64019B10221A65019B00223E
:100080009A65019B00225A65019B0022DA65019B5B
:1000900007330C49184603F08CFB019B0A491846AC
:1000A00003F087FB019B20229A7100BF03B05DF82B
:1000B00004FB00BF203E002054570300983E002060
:1000C00098400020605703006457030000B589B0D2
:1000D00003900291019200230693039BDB68059332
:1000E000039B1B690493049A059B9A4205D9049AC1
:1000F000059BD31A013B079307E0039B9A68049979
:10010000059BCB1A1344013B0793039B9A68059BFD
:10011000D31A079A934228BF13460793079A019B65
:10012000934228BF13460793039B5A68059B1344C9
:10013000079A0299184603F0E0FA069A079B1344BF
:100140000693029A079B13440293019A079BD31AC2
:100150000193059A079B13440593039B9B68059A9B
:100160009A4201D100230593039B059ADA60019B13
:10017000002BB5D1069B184609B05DF804FB00B50D
:1001800089B0039002910192039BDB680793039B64
:100190009A68079BD31A0693069A019B9A420ED936
:1001A000039B5A68079B1344019A0299184603F06F
:1001B000A4FA079A019B1A44039BDA601AE0069B93
:1001C0000593039B5A68079B1344059A02991846A6
:1001D00003F093FA019A069BD31A0593039B586880
:1001E000029A069B1344059A194603F086FA039B6C
:1001F000059ADA6000BF09B05DF804FB86B0019093
:10020000019B1B690493019BDB680393049A039B86
:100210009A4208D8019B9A68039BD21A049B134404
:10022000013B059304E0049A039BD31A013B059319
:10023000059B184606B0704700B589B0039002913F
:100240000192029B0693039B5A1C13465B001344C6
:10025000DB00204A13440593059B5B69022B29D0E0
:10026000022B2ED8002B02D0012B13D029E00598A9
:10027000FFF7C4FF0490049A019B9A4202D2002324
:10028000079321E0019B0793019A06990598FFF7D0
:1002900076FF19E00598FFF7B1FF0490019A049BDF
:1002A000934228BF13460793079A06990598FFF7CC
:1002B00066FF09E0019A06990598FFF707FF079086
:1002C00002E00023079300BF079B184609B05DF8C2
:1002D00004FB00BF203E002008B5FFF7A9FE00BFC9
:1002E00008BD86B0039001921A460B46ADF80A305D
:1002F00013468DF80930039B002B02D0019B002B85
:1003000001D100235CE00023ADF816300CE0BDF80D
:100310001630039A13441B789AB2BDF81630134472
:100320009BB20133ADF81630BDF816305A1CBDF83B
:100330000A309A420FDA019B1B88BDF816209A42B8
:10034000E5D3BDF816300133039A13441B789DF8AA
:1003500009209A42DBD1BDF81620BDF80A309A4236
:1003600001D300232CE0BDF816300233ADF8143071
:10037000BDF81630039A13441B78002B08D0BDF843
:100380001630039A13441B789BB2013B9BB200E0EA
:100390000023ADF81230BDF81230002B08D0BDF8A4
:1003A0001420BDF812301A44BDF80A309A4201DD1B
:1003B000002305E0019BBDF814201A80BDF812301F
:1003C000184606B0704700B589B003900B460192FD
:1003D000ADF80A300023ADF81630019B002B01D197
:1003E00000232DE00DF11602BDF80A100923039831
:1003F000FFF777FF0346ADF81E30BDF816301A46FA
:10040000039B13440693BDF81630002B17D0BDF89C
:100410001E30002B13D0019803F014FA0246BDF8E9
:100420001E309A420BD1BDF81E301A46069901982B
:1004300003F0FFF80346002B01D1012300E0002365
:10044000184609B05DF804FB84B0019000230393C3
:1004500016E0104A039B9B0013449A78019B9B78FB
:100460009A420AD10B4A039B32F82320019B1B8836
:100470009A4202D1084B1B6808E0039B01330393A7
:10048000064B1B68039A9A42E3D30023184604B034
:10049000704700BFA8400020C0400020C840002096
:1004A00000B583B0019000910198FFF7CDFF03469E
:1004B000002B01D0002314E00C4B1B68052B0FD838
:1004C0000A4B1B680A4A01999B0013440A461068AC
:1004D0001860064B1B680133044A1360002300E0D8
:1004E0000423184603B05DF804FB00BFC840002099
:1004F000A840002000B585B001900023039311E0CF
:10050000019A039BDB01134403F553731B68039AA1
:10051000D20102F5347201990A4410469847039BB0
:1005200001330393064B1B68039A9A42E8D3019B5D
:100530000022C3F8CC2200BF05B05DF804FB00BF69
:10054000C840002000B5A3B001900B46ADF80230C2
:1005500003AB7C220021184603F0F8F8BDF8023006
:10056000ADF80E3003238DF80C30019B0493064B3D
:100570001B68002B04D0044B1B6803AA1046984745
:1005800000BF23B05DF804FBC040002000B5A7B059
:10059000039002911346ADF80630039B93F8C632E0
:1005A0001A46762303FB02F3039A13442593259BF3
:1005B0001846FFF749FF2490249B002B12D005AB6F
:1005C0007C220021184603F0C1F801238DF8143075
:1005D000BDF80630ADF81630029B069305AA249BA1
:1005E0001046984700BF27B05DF804FB00B587B000
:1005F000039002911346ADF80630029B0593059BCC
:10060000002283F8C822BDF806301A4603990598DF
:10061000FFF7BCFFBDF8063019460598FFF792FFBB
:1006200000BF07B05DF804FB00B585B001900B4634
:100630008DF803301346ADF80030019B93F8C632B5
:100640001A46762303FB02F3019A13440393039B98
:100650001846FFF7F9FE0290029B002B52D0019B37
:10066000D3F8CC32052B4DD8019BD3F8CC32019A6C
:10067000DB01134403F2D223BDF800201A80019B52
:10068000D3F8CC32019ADB01134403F53473039A97
:10069000043311467622184603F02FF89DF80330F4
:1006A000002B0AD0019BD3F8CC32019ADB01134412
:1006B00003F5347300221A7009E0019BD3F8CC32A1
:1006C000019ADB01134403F5347302221A70019B73
:1006D000D3F8CC32019ADB01134403F55373029A29
:1006E0001A60019BD3F8CC325A1C019BC3F8CC2270
:1006F000019BD3F8CC22054B1B689A4202D101988A
:10070000FFF7F8FE00BF05B05DF804FBC84000200D
:1007100000B58DB001900B46ADF8023002AB20223F
:100720000021184603F012F8019B93F8C7320133F9
:10073000DAB2019B83F8C722019B93F8C7321A46AD
:100740002A4B1B689A4244D2019B002283F8C5229F
:10075000019B93F8C6320133DAB2019B83F8C622BB
:10076000019B93F8C6321A46762303FB02F3019AE3
:1007700013440B93019B93F8C6320B991C4A9B00C0
:100780001344186808600B9B00221A7102238DF82D
:1007900008300123ADF818300B9A0DF11A031268D6
:1007A0001A60019B0593134B0493134B1B68BDF810
:1007B000022002A9184601F03DFB0A900A9B002B7B
:1007C00011D0BDF802301A4601990A98FFF70EFFC2
:1007D00009E0019B002283F8C822BDF802301946C7
:1007E0000198FFF7AFFE0DB05DF804FBC840002094
:1007F000A8400020ED050300C440002082B0019015
:100800000091009B1A89019B93F8C6321846019902
:10081000762303FB00F30B4408331B889A4201D272
:10082000012300E00023184602B0704784B0039013
:10083000029101920093019B002B25D1029B1A8902
:10084000039B93F8C63218460399762303FB00F303
:100850000B4408331B889A4201D100232AE0029BF3
:100860001B8901339AB2009B1A80039B93F8C6320E
:100870001946039A762303FB01F3134408331A88BD
:10088000009B5A80012315E0029B1B890133019ACA
:10089000D288934201D100230CE0029B1B890133D3
:1008A0009AB2009B1A80019BDB88013B9AB2009BA5
:1008B0005A800123184604B07047000000B58FB07D
:1008C00001900B46ADF8023002AB20220021184601
:1008D00002F03CFF0AAB04220021184602F036FF6A
:1008E000019B93F8C6321A46762303FB02F3019A62
:1008F00013440D93019B93F8C532002B21D0019B2B
:1009000093F8C532013B8DF83330019B93F8C63222
:100910001A46762303FB02F3019A13440D939DF8C4
:1009200033201346DB0013445B0008330D9A134455
:1009300002330B930B9B1B8901339BB2ADF828301C
:1009400003E00D9BDB88ADF828300D9B1B89ADF8CB
:100950002A3003238DF808300A9B0693019B0593E8
:10096000074B0493074B1B68BDF8022002A91846E9
:1009700001F060FA034618460FB05DF804FB00BFB3
:10098000ED050300C440002000B593B00390029130
:100990001346ADF8063000238DF8433005AB202216
:1009A0000021184602F0D2FE039B93F8C6321A4685
:1009B000762303FB02F3039A13440E93039B93F8ED
:1009C000C5321A461346DB0013445B0008330E9A07
:1009D000134402331193039B93F8C53201330E9AEB
:1009E0001279934209D10DAB002211990398FFF7B8
:1009F0001DFF03468DF843303DE0039B93F8C5325D
:100A00008DF8423031E09DF842200E9B1B79013B6E
:100A10009A4202D100230F930BE09DF842305A1CFA
:100A20001346DB0013445B0008330E9A1344023371
:100A30000F930DAB0F9A11990398FFF7F7FE03463A
:100A4000002B03D001238DF8433014E00F9B11934A
:100A5000039B93F8C5320133DAB2039B83F8C522B6
:100A60009DF8423001338DF842300E9B1B799DF882
:100A700042209A42C7D39DF8433083F00103DBB292
:100A8000002B04D0029B01221A70002314E0029B69
:100A900000221A7004238DF814300D9B0993039BD8
:100AA0000893074B0793074B1B68BDF8062005A961
:100AB000184601F0BFF90346184613B05DF804FB71
:100AC000ED050300C440002000B587B001900091FF
:100AD000019B93F8C6321A46762303FB02F3019A70
:100AE00013440393009B1A88019BB3F8CA329A42BD
:100AF00061D1009B5B88002B4FD1009B063305938F
:100B0000039B059A0633063212681A60019B93F81C
:100B1000C4328DF81330059B1B888DF812309DF878
:100B200013209DF812301344062B0ADC019B93F826
:100B3000C4229DF812301344DAB2019B83F8C42218
:100B400019E0019B062283F8C4221D4A1D4BD31ACB
:100B5000DB081B0443F002031B491846F6F7A4F810
:100B6000174A184BD31ADB081B0443F0020317493A
:100B70001846F6F799F8009B1B8819460198FFF76D
:100B80009DFE0290029B002B16D0009B1B881A46EC
:100B900001990298FFF72AFD0EE0009B1B881A4678
:100BA00000210198FFF740FD009B1B881946019822
:100BB000FFF7AEFD00E000BF07B05DF804FB00BF2B
:100BC000283F0300E83E03007857030098570300CE
:100BD00000B58DB00190009100238DF82F30009B5F
:100BE0001A88019BB3F8CA329A4240F0FC80019BFC
:100BF00093F8C6321A46762303FB02F3019A134494
:100C00000893009B5B88002B40F0BC80009B063360
:100C10000793089B1B798DF81B30079B1B888DF869
:100C20001A309DF81B209DF81A301344062B08DC5F
:100C3000089B1A799DF81A301344DAB2089B1A718E
:100C40001AE0089B06221A71694A6A4BD31ADB081C
:100C50001B0443F00200089B1B881A466649F6F7FE
:100C600031F8634A634BD31ADB081B0443F00203D9
:100C700062491846F6F718F89DF81B300A930023CE
:100C8000099345E008990A9A1346DB0013445B0078
:100C90000B4403F108010798099A13469B0013447B
:100CA0005B00C2188B1C02321068516818605960D2
:100CB00012891A8108990A9A1346DB0013445B00D3
:100CC0000B44143300221A8008990A9A1346DB0059
:100CD00013445B000B44163300221A8008990A9AC9
:100CE0001346DB0013445B000B44183300221A80C8
:100CF00008990A9A1346DB0013445B000B441A332D
:100D000000221A800A9B01330A93099B013309933D
:100D1000089B1B791A460A9B9342B3D30A9B5A1E1F
:100D20001346DB0013445B000833089A1344023374
:100D3000059305990198FFF761FD034683F00103D0
:100D4000DBB2002B03D1089B1B79062B03D10123B7
:100D50008DF82F3019E0089B1A79019B83F8C52282
:100D6000009B1B8819460198FFF7A8FD0490049B7F
:100D7000002B0AD0009B1B881A4601990498FFF7A4
:100D800035FC31E001238DF82F309DF82F30002BFA
:100D90002AD0019B002283F8C522009B1A880DF1FE
:100DA0000F0319460198FFF7EFFD0490049B002BF9
:100DB00007D0009B1B881A4601990498FFF716FC80
:100DC00012E09DF80F30002B0ED0009B1B881A46B6
:100DD00001210198FFF728FC009B1B881946019808
:100DE000FFF796FC00E000BF0DB05DF804FB00BF0C
:100DF000283F0300E83E0300E057030028580300A3
:100E000000B589B001900091009B1A88019BB3F84E
:100E1000CA329A4240F0CC80019B93F8C6321A46FF
:100E2000762303FB02F3019A13440693009B0633D7
:100E30000593019B93F8C5321A461346DB00134411
:100E40005B000833069A134402330493009B5B88CB
:100E5000002B70D10023079365E00599079A13468C
:100E60005B0013445B000B4404331B88A3F524533D
:100E7000082B45D801A252F823F000BFB90E030099
:100E8000D10E0300A10E0300010F0300010F0300A8
:100E9000010F0300010F0300010F0300E90E03001F
:100EA0000599079A13465B0013445B000B44023319
:100EB0001A88049B5A8123E00599079A13465B0020
:100EC00013445B000B4402331A88049B9A8117E099
:100ED0000599079A13465B0013445B000B440233E9
:100EE0001A88049BDA810BE00599079A13465B0088
:100EF00013445B000B4402331A88049B1A8200BF20
:100F0000049B5B89002B0BD0049B9B89002B07D093
:100F1000049BDB89002B03D0049B1B8A002B09D187
:100F2000079B01330793059B1B881A46079B934237
:100F300093D300E000BF00238DF80B30019B93F8A2
:100F4000C5320133069A1279934203D101238DF8F9
:100F50000B301BE0019B93F8C5320133DAB2019BE1
:100F600083F8C522009B1A880DF10B0319460198DE
:100F7000FFF70AFD0390039B002B07D0009B1B8803
:100F80001A4601990398FFF731FB12E09DF80B30E8
:100F9000002B0ED0009B1B881A4601210198FFF7F9
:100FA00043FB009B1B8819460198FFF7B1FB00E04B
:100FB00000BF09B05DF804FB84B0019000230393E7
:100FC000019B002B01D10E231AE0019B1B68002B13
:100FD00001D10E2314E0019B5B68002B01D10E238D
:100FE0000EE0094B00221A60084B01221A70019B87
:100FF0001B68074A1360019B5B68064A1360039BEA
:10100000184604B0704700BFC8400020CC40002004
:10101000C0400020C440002000B583B00190019B77
:10102000002B01D10E230FE0094B1B7883F0010345
:10103000DBB2002B01D0082306E0064B1B681946E3
:101040000198FFF72DFA0346184603B05DF804FB3C
:10105000CC400020C040002000B58FB001900B466E
:10106000ADF802304FF4BA620021019802F06EFB35
:1010700003AB20220021184602F068FB2D4B1B68B1
:10108000BDF802201146184600F072FF0D900D9B2E
:101090000C930C9B002B01D00C9B47E0019BBDF8EF
:1010A0000220A3F8CA22019B0022C3F8CC22019B94
:1010B000002283F8C722019B002283F8C622019BED
:1010C000002283F8C522019B93F8C6321A46762384
:1010D00003FB02F3019A13440B93019B93F8C6326E
:1010E0000B99154A9B0013441868086002238DF879
:1010F0000C300123ADF81C300B9A0DF11E03126861
:101100001A60019B06930D4B05930A4B1B68BDF8B3
:10111000022003A9184600F08DFE0D900D9B002BB8
:1011200003D1019B012283F8C8220D9B18460FB002
:101130005DF804FBC4400020A8400020ED0503003A
:1011400000B583B001900B46ADF80230019B002B37
:1011500001D10E231CE0104B1B7883F00103DBB29E
:10116000002B01D0082313E00C4B1B68002B01D18E
:1011700008230DE0019B93F8C832002B01D0112306
:1011800006E0BDF8023019460198FFF765FF0346F7
:10119000184603B05DF804FBCC400020C840002096
:1011A00082B001900091009B1A88019BB3F8CA326B
:1011B0009A4208D1019B002283F8C822019B4FF676
:1011C000FF72A3F8CA2200BF02B0704700B585B015
:1011D00001900091019B002B35D0009B002B34D057
:1011E0001E4B1B7883F00103DBB2002B2FD1009B39
:1011F0000393019B1B88332B17D0332B29DC322B15
:101200000CD0322B25DC112B16D0302B21D1019B99
:10121000043319460398FFF757FC1BE0019B043386
:1012200019460398FFF7D4FC14E0019B04331946D8
:101230000398FFF7E5FD0DE0019B04331946039881
:10124000FFF7AEFF06E000BF04E000BF02E000BF12
:1012500000E000BF05B05DF804FB00BFCC400020FB
:1012600090DF704700BF1846A5DF704700BF1846E3
:10127000B5DF704700BF184682B00190019BF7228E
:101280001A80019B17225A80019B00221A71019B30
:1012900000225A71019BFB229A71019B1B22DA7179
:1012A00000BF02B07047000030B589B003460A465F
:1012B000ADF806301346ADF80430BDF80430ADF893
:1012C0001430BDF80430ADF816300023ADF81830F6
:1012D0000023ADF81A3003AB00221A609A8003AAEB
:1012E00005A9BDF806301846FFF7BAFF0790079B1F
:1012F000002B39D01E4A1F4BD31ADB081B0443F0C6
:101300000104BDF806500798F9F7E8FC03462A46A1
:1013100019492046F5F7E7FCBDF80C30002B03D146
:10132000BDF80E30002B0ED0114A124BD31ADB0839
:101330001B0443F00100BDF80C301A46BDF80E3016
:101340000E49F5F7D0FCBDF81030002B0CD0084A40
:10135000084BD31ADB081B0443F00103BDF810202F
:1013600007491846F5F7AEFC079B184609B030BD93
:10137000483F0300E83E030094580300E058030090
:101380002059030010B586B001900091009B9B8806
:10139000ADF80E30BDF80E30DB00019A1344063371
:1013A0000593019B1A79059B9A71009BDB7B012BAE
:1013B00002D0022B05D009E0019B1A88059B1A80F8
:1013C00004E0019B5A88059B1A8000BF059B1A8880
:1013D000059B5B889A4226D9059B1A88BDF80E307A
:1013E00011461846FFF740FF0490049B002B03D1E1
:1013F000059B01225A7116E0049B112B03D1059B1A
:1014000001221A710FE0114A114BD31ADB081B0499
:1014100043F001040498F9F761FC03461A460D49AC
:101420002046F5F74FFC059B9A79059BDB799A429C
:1014300008D9059B9B799AB2BDF80E301146184623
:10144000FFF732FF00BF06B010BD00BF483F0300EA
:10145000E83E03007859030000B583B00190009185
:10146000009B9B88DB00019A134406331846FFF764
:1014700003FF00BF03B05DF804FB00B587B0019027
:101480000091009B9B88ADF81630009B5B89ADF8FE
:101490001430BDF81630DB00019A13440633049370
:1014A000049B1B88BDF81420934228BF13469AB2B0
:1014B000049B5A80049B5B88172B38BF17239AB272
:1014C000049B5A80019B1B69002B15D0049B5B7900
:1014D000002B11D040F67723ADF80830BDF8163058
:1014E000ADF80A30049B5B88ADF80C30019B1B699A
:1014F00002AA114601989847049B00225A71049B46
:1015000000221A7100BF07B05DF804FB10B588B067
:1015100001900091009B9B88ADF81A30009BDB88FE
:10152000ADF81830BDF81A30DB00019A13440633C9
:101530000593BDF81830172B38BF1723ADF81830B6
:10154000059B1B88BDF81820934228BF13469AB20A
:10155000059B5A80059B00221A71059B1A88BDF8CD
:101560001A3011461846FFF783FE0790079B002BA1
:101570000FD0174A174BD31ADB081B0443F00104A2
:101580000798F9F7ABFB03461A4613492046F5F7CF
:1015900099FB059B5B79002B16D1019B1B69002BE6
:1015A00013D040F67723ADF80C30BDF81A30ADF803
:1015B0000E30059B5B88ADF81030019B1B6903AAB8
:1015C00011460198984700E000BF08B010BD00BF69
:1015D000483F0300E83E0300AC59030030B591B02A
:1015E00001900091009B04AC1D1D0FCD0FC40FCDC9
:1015F0000FC495E8070084E80700BDF81030ADF887
:101600003E30BDF81420BDF83E30D1B2019ADB0067
:1016100013440A465A73019B1B69002B19D002AB75
:1016200000221A609A804DF67A23ADF80830BDF892
:101630003E30ADF80A30BDF83E30019ADB0013446D
:101640005B7B8DF80C30019B1B6902AA1146019847
:10165000984700BF11B030BD00B587B00190009130
:10166000009B04330593059B1B88DB00019A134400
:1016700006330493059B9B888DF80F30049B9B7960
:101680009DF80F20934228BF13468DF80E30059B1E
:101690001B889DF80E2092B211461846FFF704FEF3
:1016A00000BF07B05DF804FB00B585B00190009164
:1016B000019B002B01D10E231DE0019B009A1A61B2
:1016C000019BF7221A80019BF7225A80019BFB2283
:1016D0001A71002303930AE0039BDB00019A134471
:1016E00006331846FFF7C8FD039B01330393039BA2
:1016F000002BF1D00023184605B05DF804FB82B042
:1017000001900B46ADF80230019B002B01D10E2356
:101710000EE0BDF80230162B03D9BDF80230F72BCE
:1017200001D9072304E0019BBDF802205A80002361
:10173000184602B07047000010B586B001900091C5
:10174000009B0593019B9B88ADF81230BDF81230C9
:10175000002B40F09880019B1B88552B48D0552BBF
:1017600055DC242B32DC102B51DB103B142B4ED8D4
:1017700001A252F823F000BFD3170300DD170300C6
:101780000F1803000F1803000F1803000F180300B1
:101790000F1803000F1803000F1803000F180300A1
:1017A0000F1803000F1803000F1803000F18030091
:1017B0000F1803000F1803000F1803000F18030081
:1017C0000F18030005180300FB1703003A2B0AD07B
:1017D0001DE001990598FFF7D5FD19E001990598DD
:1017E000FFF73AFE14E001990598FFF746FE0FE077
:1017F00001990598FFF78AFE0AE001990598FFF71D
:10180000EDFE05E001990598FFF726FF00E000BF17
:10181000BDF81230059ADB0013449B7A002B33D0BD
:10182000BDF81230059ADB001344DA88BDF8123097
:1018300011461846FFF718FD0390039B002B0ED1AD
:10184000BDF81230059ADB00134400229A72BDF8ED
:101850001230059ADB0013440122DA7214E0039B74
:10186000112B11D0094A0A4BD31ADB081B0443F091
:1018700001040398F9F732FA03461A46054920464F
:10188000F5F720FA00E000BF06B010BD483F0300A6
:10189000E83E0300785903009BDF704700BF1846FD
:1018A0009DDF704700BF18469EDF704700BF184697
:1018B000A1DF704700BF1846A3DF704700BF18467E
:1018C000AEDF704700BF184600B585B001900091AB
:1018D000009B10330393039BDB88102B01D9092352
:1018E00019E0039BDB8819460198F8F7D6FB0246FE
:1018F000009B5A60009B5B68002B01D104230AE027
:10190000009B5868039B9968039BDB881A46002359
:10191000F8F710FD0023184605B05DF804FB00B58C
:1019200085B001900091009B10330393039B9B684B
:101930001B88102B01D9092324E0039B9B681B887B
:10194000023319460198F8F7A8FB0246009B5A603B
:10195000009B5B68002B01D1042313E0009B5868B7
:10196000039B996800230222F8F7E4FC009B586867
:10197000039BD968039B9B681B881A460223F8F7D0
:10198000D9FC0023184605B05DF804FB00B587B00C
:1019900005900B460392ADF81230039B002B1ED02E
:1019A000114A124BD31ADB081B0443F00100059BBC
:1019B0001B781946BDF81220039B009313460A4674
:1019C0000B49F5F7A4F9059B9B68002B07D0059BF5
:1019D0009B68059AD168BDF812200398984700BF0C
:1019E00007B05DF804FB00BF503F0300E83E030072
:1019F000E859030000B597B001900B46ADF80230EE
:101A00000CAB012219460198F8F78EFF1590159B33
:101A1000002B40F0AC809DF83030052B7ED801A221
:101A200052F823F03D1A0300531A03007D1A0300F5
:101A3000951A0300AB1A0300C11A0300BDF8401049
:101A4000BDF84220BDF802301846FFF731FF15906F
:101A500071E008AB12930D981299BDF846301A4602
:101A60000023F8F785FC0CAB03F11002BDF802303F
:101A700011461846FFF720FF15905CE0BDF84010B6
:101A80000CAB03F11202BDF802301846FFF704FF59
:101A9000159050E00CAB03F11002BDF80230114676
:101AA0001846FFF7FDFE159045E00CAB03F1100260
:101AB000BDF8023011461846FFF7F6FE15903AE0E1
:101AC00004AB13930D980DF10E0100230222F8F7D9
:101AD0004FFC0DF10E0312930D981399129B1B8866
:101AE0001A460223F8F744FCBDF80E30ADF8523028
:101AF0000CAB03F11002BDF8023011461846FFF797
:101B0000DFFE1590159B002B14D1BDF80E30BDF8EB
:101B100052209A420ED00C2315930BE0164A174B15
:101B2000D31ADB081B0443F0020315491846F5F7E6
:101B3000BBF800E000BF159B112B18D09DF830308A
:101B40001A46104B53F82230002B03D00D9B184639
:101B5000F8F7FAFA0CAB002219460198F8F7E4FE00
:101B6000BDF802100CAB159A1846FFF70FFF00BF27
:101B700017B05DF804FB00BF503F0300E83E0300D0
:101B8000345A0300505A030000B58FB00190019BF6
:101B9000DB680DF12E0100221846F8F7C5FE0D9006
:101BA00031E0019B9A68BDF82E3019460B469B0028
:101BB0000B449B0013440C9303AB002219460C9872
:101BC000F8F7B2FE0D9012E09DF80C301A46124B59
:101BD00053F82230002B03D0049B1846F8F7B4FAD0
:101BE00003AB002219460C98F8F79EFE0D900D9B52
:101BF000002BE9D0019BDB680DF12E010022184675
:101C0000F8F792FE0D900D9B002BCAD000BF00BFCD
:101C10000FB05DF804FB00BF505A030000B585B05B
:101C200001900B46ADF8023000230393019B1B7813
:101C3000052B63D801A252F823F000BF551C030006
:101C40006B1C0300811C0300991C0300AF1C0300E4
:101C5000C51C0300019B198A019B5A8ABDF80230FA
:101C60001846FFF725FE039055E0019B03F1100293
:101C7000BDF8023011461846FFF71EFE03904AE0F9
:101C8000019B198A019B03F11202BDF8023018462C
:101C9000FFF702FE03903EE0019B03F11002BDF846
:101CA000023011461846FFF7FBFD039033E0019B1D
:101CB00003F11002BDF8023011461846FFF7F4FD9B
:101CC000039028E0019B9B691B88ADF80A30019BBB
:101CD00003F11002BDF8023011461846FFF7F0FD7F
:101CE0000390039B002B15D1019B9B691B88BDF8BA
:101CF0000A209A420ED00C2303930BE00E4A0F4B9E
:101D0000D31ADB081B0443F002030D491846F4F70D
:101D1000CBFF00E000BF039B112B01D1002307E0A4
:101D2000BDF80230039A19460198FFF72FFE0123F0
:101D3000184605B05DF804FB503F0300E83E030081
:101D4000345A030084B001900B46ADF802300023F2
:101D5000ADF80E3012E0019B5A68BDF80E305B0002
:101D600013441B88BDF802209A4202D1BDF80E3000
:101D70000CE0BDF80E300133ADF80E30019B1B882E
:101D8000BDF80E209A42E6D3BDF80E30184604B0D6
:101D9000704784B001900B46ADF802300023ADF8D7
:101DA0000E301AE0019B5A68BDF80E305B001344F8
:101DB0001B884FF6FF7293420AD1019B5A68BDF807
:101DC0000E305B001344BDF802201A8000230BE0A4
:101DD000BDF80E300133ADF80E30019B1B88BDF805
:101DE0000E209A42DED30423184604B0704784B014
:101DF00001900023ADF80E3011E0019B5A68BDF848
:101E00000E305B0013441B884FF6FF72934201D0E3
:101E100001230BE0BDF80E300133ADF80E30019B0D
:101E20001B88BDF80E209A42E7D30023184604B061
:101E30007047000000B589B0039002911346ADF8D9
:101E4000063000230693039B002B01D10E2389E06B
:101E5000029B002B01D10E2384E00398FFF794FE30
:101E6000BDF8063019460398FFF76CFF0346ADF83E
:101E70001E30029B1B78052B05D8039B1B88BDF8E1
:101E80001E209A4201D107236CE0039B9968BDF89C
:101E90001E2013469B0013449B000B441846F8F782
:101EA000DDFD0346002B0ED0BDF806301946029822
:101EB000FFF7B4FE03468DF817309DF81730002B5E
:101EC00001D0069B4EE0029B1B781A46274B53F825
:101ED0002230002B18D0039B1B69002B01D10E234D
:101EE00040E0029B1B781A46204B53F82230039A9D
:101EF00012690299104698470690069B0493049B2A
:101F0000002B01D0049B2DE0039B9968BDF81E2097
:101F100013469B0013449B000B4402991846F8F7A4
:101F20004BFC0690069B002B0CD0029B1B781A469C
:101F30000E4B53F82230002B04D0029B5B681846EE
:101F4000F8F702F9039B9968BDF81E2013469B0021
:101F500013449B000B44BDF8062011461846FFF7BA
:101F600049FD069B184609B05DF804FB505A030072
:101F700000B587B001900B46ADF802300023059301
:101F8000019B002B01D10E232FE00198FFF7FCFDF0
:101F9000BDF8023019460198FFF7D4FE0346ADF8AC
:101FA0001230019B1B88BDF812209A421CD1019867
:101FB000FFF71DFF034683F00103DBB2002B05D0C2
:101FC000019B1B691846F8F75DF80590BDF80230D3
:101FD00019460198FFF7DDFE0590059B0393039BCF
:101FE000002B01D0039B00E0059B184607B05DF86D
:101FF00004FB00B587B001900091009B0493019B06
:10200000002B5AD0049B002B57D0019B1B88112B0F
:1020100004D1019B9B88ADF8163018E0019B1B880A
:102020002F2B08D9019B1B884F2B04D8019B9B8821
:10203000ADF816300BE0019B1B884F2B3FD9019B5D
:102040001B886F2B3BD8019B9B88ADF81630BDF8E1
:10205000163019460498FFF775FE0346ADF80E30AA
:10206000049B1A88BDF80E309A422AD0019B1B8827
:10207000112B11D1049B5A68BDF80E305B0013443C
:102080004FF6FF721A80049BDB680DF10E021146B9
:102090001846F8F791FB15E0049B9A68BDF80E30DE
:1020A00019460B469B000B449B001344BDF81620B9
:1020B00011461846FFF79EFC04E000BF02E000BF97
:1020C00000E000BF07B05DF804FB8ADF704700BF87
:1020D00018468BDF704700BF18468CDF704700BF83
:1020E000184600B58DB001900091009B0233099312
:1020F000019B2E330893019B24330B93019B93F890
:102100002C308DF82B30019B93F8233083F00103A2
:10211000DBB2002B21D100F035FA02AB14220021F2
:10212000184601F013FB9DF82B300B9A089909987B
:10213000FFF7D3FF079005238DF80830079B039323
:10214000079B002B0AD0019BDB6B002B06D0019B69
:10215000DB6B02AA1046984700E000BF0DB05DF8A7
:1021600004FB00B587B001900091009B0493009B95
:1021700093F820308DF80F30019B9B8BADF80C301D
:1021800000238DF8173015E0019B98699DF81730F2
:102190005B01049A1A44BDF80C301946FEF713F996
:1021A0000346002B01D001230BE09DF817300133CB
:1021B0008DF817309DF817209DF80F309A42E3D321
:1021C0000023184607B05DF804FB10B586B00190F7
:1021D0000091019B20330493009801F033FB0346E8
:1021E0008DF80F309DF80F30002B03D09DF80F3085
:1021F000202B01D90C2333E0049B1B78002B01D04A
:1022000004232DE000238DF8173012E09DF81730DD
:102210005B01019A13440099184601F0ECFA034659
:10222000002B01D100231BE09DF8173001338DF8FE
:1022300017309DF81730002BE8D0049B1B785A1CF0
:10224000D1B2049A11705B01019AD418009801F080
:10225000F9FA03461A460099204601F04EFA002387
:10226000184606B010BD00B587B003900B4601922A
:102270008DF80B30039B002B01D10E2311E0019B45
:10228000002B01D10E230CE09DF80B30002B07D161
:10229000019B059305990398FFF797FF034600E01C
:1022A0000723184607B05DF804FB000000B585B0B1
:1022B00001900B468DF8033013468DF80230019BD8
:1022C000002B01D10E233DE09DF8033003F0020303
:1022D000002B19D19DF8033003F00103002B13D11B
:1022E0009DF8033003F00403002B0DD19DF803305B
:1022F00003F01003002B07D19DF8033003F008030F
:10230000002B01D107231DE0019800F021F8039074
:10231000039B002B04D00D4940F2F620FDF7C8F8CE
:10232000019B02939DF8033003F00103002B03D0BF
:10233000029B012283F82120029B9DF8022083F852
:1023400022200023184605B05DF804FB745A0300F0
:1023500084B00190019B002B01D10E2306E0019B6C
:1023600021330393039B00221A700023184604B004
:10237000704700B58BB00190009100238DF8273095
:1023800000238DF8263003AB14220021184601F0FB
:10239000DDF9019B2E330793019800F081F8034685
:1023A000002B14D002238DF80C30009B0493019B6A
:1023B000DB6B03AA10469847019B60331946002047
:1023C000FFF783FE00990198FFF78BFE65E0019B04
:1023D00093F822308DF8243000238DF82530019BAE
:1023E00093F821308DF823309DF82330002B19D03D
:1023F0009DF8273001338DF8273001990098FFF7B9
:10240000B0FE0346002B0DD09DF8263001338DF829
:1024100026309DF8143043F001038DF81430012369
:102420008DF82530009B04939DF82430002B0DD0AF
:102430009DF826209DF827309A4207D100238DF879
:102440000C3000990198FFF74CFE17E09DF82430FE
:1024500083F00103DBB2002B0BD09DF82530002B5D
:1024600007D000238DF80C3000990198FFF739FE52
:1024700004E003238DF80C30009B0493019BDB6B7D
:10248000002B04D0019BDB6B03AA10469847019BED
:10249000603319460020FFF718FE0BB05DF804FB0F
:1024A00082B00190019B93F82E3003F01803DBB249
:1024B000082B07D0019B93F82E3003F01803DBB2F2
:1024C000182B01D1012300E00023184602B0704709
:1024D00082B00190019A92F82E3043F0040382F802
:1024E0002E30019BA0221A86019B50225A86019B06
:1024F00000229A86019A92F82E306FF3C40382F874
:102500002E30019B012283F82F2000BF02B07047BC
:1025100082B00190019B4FF4C8725A85019B06223C
:102520009A84019B1822DA84019B00221A8500BF3D
:1025300002B0704700B589B001900091009B043350
:10254000079302AB14220021184601F0FFF8079B05
:102550001B78012B12D1019BDB6B002B0ED00423C7
:102560008DF80830019B2E330693079B1B788DF85E
:102570000C30019BDB6B02AA1046984700BF09B0E4
:102580005DF804FB08B5FFF7A4FD00BF08BD10B55A
:1025900084B0039002910192039B002B01D10E2382
:1025A0004DE0039B019ADA63039B23220021184626
:1025B00001F0CCF8029B002B2DD0029B1A79039BD3
:1025C00083F82320029B1A7B039B83F82C20029B19
:1025D0001B68002B0CD0029B1A68039B2E331468D7
:1025E000506891681C605860996092899A8102E0F5
:1025F0000398FFF76DFF029B9B68002B07D0029B9F
:102600009A68039B24331068516803C30DE0039854
:10261000FFF77EFF09E00398FFF75AFF0398FFF7E3
:1026200077FF039B002283F82320039B03F14002E2
:10263000039B1A66039B1F22A3F8642000231846FD
:1026400004B010BD00B589B00190019B002B01D1F1
:102650000E2338E002AB14220021184601F076F870
:10266000FFF790FF0198FFF71BFF0346002B0BD0ED
:10267000019BDB6B002B07D001238DF80830019BF9
:10268000DB6B02AA10469847019B03F12E02019BC7
:10269000603319461046FFF718FD0790079B082B7B
:1026A00010D0079B002B0DD0094A0A4BD31ADB0828
:1026B0001B0443F00103079A07491846F4F702FB8D
:1026C000079B00E00023184609B05DF804FB00BF3B
:1026D000383F0300E83E0300EC5A030000B589B020
:1026E0000190009103AB14220021184601F02EF84E
:1026F00006238DF80C30009B04330493009B1B8849
:10270000ADF81430019B2E330793019BDB6B002B3C
:1027100004D0019BDB6B03AA1046984700BF09B0A9
:102720005DF804FB00B587B001900091009B059314
:10273000019B08330493019B04330393019B1B8883
:102740001D2B06D01D2B13DC102B0CD01B2B05D002
:102750000EE004990598FFF70CFE0AE0039905982E
:10276000FFF7E8FE05E003990598FFF7B7FF00E0E3
:1027700000BF00BF07B05DF804FB62DF704700BF19
:10278000184600B587B0039002911346ADF80630A5
:10279000029B0593059B1B69002B03D0059B1B69BE
:1027A0000398984700BF07B05DF804FB00B58BB0F5
:1027B0000190009103AB14220021184600F0C6FFDF
:1027C000009B0E330893009B1B78002B57D1009B76
:1027D0009B88012B53D1009B9A79019B1B789A42CD
:1027E0004DD10023099333E0099A1346DB001344CB
:1027F0005B001A46089B13441B88022B02D0032B54
:102800000CD022E0099A1346DB0013445B001A4601
:10281000089B13441B89ADF81E3016E0099A134635
:10282000DB0013445B001A46089B13441B89ADF878
:102830001A30099A1346DB0013445B001A46089BC2
:1028400013445B89ADF81C3000BF099B0133099329
:10285000009B1B7A1A46099B9342C5D3019BDB68F8
:10286000002B0CD0009B5B88ADF80E3000238DF858
:102870000C30019BDB6803AA11460198984700BF02
:102880000BB05DF804FB00B589B001900091019B8D
:102890009B88002B19D0009B5A89019B9B889A42E8
:1028A00013D1019BDB68002B0FD001238DF80C3076
:1028B000009B10330593009BDB89ADF81830019B1A
:1028C000DB6803AA11460198984700BF09B05DF87C
:1028D00004FB000010B58AB001900091234B03ACBB
:1028E0000FCB84E80F00019B002B01D10E233AE0AF
:1028F000009B002B01D10E2335E0009B9B68002B31
:1029000001D10E232FE0019A03AB11461846FFF7C1
:1029100034FF0990099B0893089B002B01D0089B6A
:1029200021E0019B1B788DF81E300123ADF81C308F
:10293000019B4FF6FF725A80009B1A68019BDA6078
:10294000009B5A68019B1A61019B00229A80019B9F
:1029500000221A81009B9A68019B5A6107AB1846B6
:10296000FEF75AFB034618460AB010BD1C5B030075
:1029700000B589B001900091009B0793079B002B45
:1029800031D0019B002B2ED0079B5B884FF6FF7246
:1029900093422AD0079B5A88019B9B889A4224D154
:1029A000019B1B88112B06D0392B20D10199079848
:1029B000FFF769FF1EE0019B9A88079B5B889A429C
:1029C00017D1079BDB68002B13D002238DF808304A
:1029D000079B4FF6FF725A80079BDB6802AA1146DD
:1029E0000798984705E000BF04E000BF02E000BF81
:1029F00000E000BF09B05DF804FB000000B58DB039
:102A000001900B468DF803309DF80330ADF82E3061
:102A100003AB20220021184600F098FEBDF82E30AE
:102A2000DBB28DF80830BDF82E301B0A9BB2DBB24A
:102A30008DF8093001238DF80C30114B0593019B63
:102A40000693019BDB88ADF81E300223ADF82230DF
:102A50000023ADF8203002AB099301238DF81C3020
:102A600001238DF81D30019B5869019B5A8803ABE7
:102A70001946FFF7DFF9034618460DB05DF804FB71
:102A80008327030000B583B00190019B002B01D187
:102A90000E2310E0019B5B884FF6FF72934203D038
:102AA000019BDB88002B01D1082304E00121019860
:102AB000FFF7A4FF0346184603B05DF804FB0000CF
:102AC00000B58DB0039002911346ADF80630039B1C
:102AD000002B01D10E234CE004AB2022002118462C
:102AE00000F034FEBDF80630F42B0CD9234A244BF9
:102AF000D31ADB081B0443F0020322491846F4F7FB
:102B0000D3F8072335E0039B5B884FF6FF729342AF
:102B10000CD11A4A1A4BD31ADB081B0443F00203E8
:102B200019491846F4F7C0F8082322E001238DF86C
:102B30001030164B0693039B0793039B1B89ADF83C
:102B40002230BDF80630ADF826300023ADF8243031
:102B5000029B0A9302238DF8203001238DF8213047
:102B6000039B5869039B5A8804AB1946FFF762F927
:102B7000034618460DB05DF804FB00BF303F03006C
:102B8000E83E03002C5B0300405B03008327030047
:102B900000B585B003900B460192ADF80A30039B57
:102BA000002B01D10E231BE0039BBDF80A205A80A5
:102BB000019B002B0BD0019B5A88039BDA80019B61
:102BC0001A88039B9A80019B9A88039B1A81039B16
:102BD0005B69BDF80A2011461846FFF7C9F903469C
:102BE000184605B05DF804FB82B003468DF8073047
:102BF0009DF90730002B0CDB9DF8073003F01F0216
:102C000005499DF907305B09012000FA02F241F8FD
:102C1000232000BF02B0704700E100E082B003460D
:102C20008DF807309DF90730002B09DB0B4A9DF921
:102C30000730134493F80033DBB25B09DBB20AE0E0
:102C4000074A9DF8073003F00F03043B13441B7E33
:102C5000DBB25B09DBB2184602B0704700E100E06E
:102C600000ED00E000B583B00190019B002B03D183
:102C70000449C420FCF71CFC019B5B68184603B0A8
:102C80005DF804FB5C5B030010DF704700BF184673
:102C900082B003468DF807309DF907301F2B0CDCFE
:102CA0009DF907300F4A22FA03F303F00103002BCA
:102CB00014BF01230023DBB210E09DF907303F2B46
:102CC0000BDC9DF90730203B012202FA03F3002BB5
:102CD00014BF01230023DBB200E00123184602B039
:102CE000704700BFFC06FFBD82B00190019B072B1F
:102CF00007D8EC22019B42FA03F303F00103002BF7
:102D000001D1002300E00123184602B07047000003
:102D100000B583B003468DF807309DF9073018469B
:102D2000FFF7B6FF0346002B02D142F201032EE06B
:102D30009DF907301846FFF771FF03461846FFF765
:102D4000D3FF0346002B02D142F202031FE0124BD5
:102D50009B68002B15D09DF907305B090E4A52F88D
:102D600023209DF8073003F01F03012101FA03F32C
:102D700019469DF907305B090A43074941F82320AA
:102D800004E09DF907301846FFF72EFF0023184690
:102D900003B05DF804FB00BF7037002000B587B0BA
:102DA00003468DF8073002AB14491846F7F794FE36
:102DB00017E002AB1846FFF755FF0590059B1B680F
:102DC0000493059B59689DF80720049B104698477B
:102DD0000346002B01D111230BE002AB1846F7F795
:102DE000A5FE02AB1846FFF73DFF0346002BE0D1DE
:102DF0000023184607B05DF804FB00BF305C0300F9
:102E000000B587B003468DF8073002AB114918466C
:102E1000F7F762FE12E002AB1846FFF723FF0590BA
:102E2000059B1B680493059B59689DF80720049B2C
:102E30001046984702AB1846F7F778FE02AB1846E3
:102E4000FFF710FF0346002BE5D100BF00BF07B01E
:102E50005DF804FB3C5C030000B583B01620FFF76F
:102E600057FF0190019B0093009B002B04D0044A64
:102E7000A1210098F4F7DCFE00BF03B05DF804FB6D
:102E8000B85B030000B585B0234B1B78002B01D045
:102E900008233CE0214B01221A700020FFF77EFF3F
:102EA0000346112B01D1002331E00020FFF7A8FFDA
:102EB0001B4B1B68029300238DF807300DF10703AD
:102EC0001846F5F737FE02AB16491846FFF7DCFE49
:102ED0000390039B002B0CBF01230023DAB20E4B9F
:102EE0001A709DF807301846F5F73AFE039B002B41
:102EF00001D0039B0BE0094B00221A700A4B002201
:102F00001A70FFF7A9FF0120FFF77AFF0023184688
:102F100005B05DF804FB00BFCD400020CF4000208D
:102F20002C5C03004D7C0200CE400020014B1B783E
:102F300018467047CD40002000B585B06B4611495A
:102F40001846F7F7C9FD10E06B461846FFF78AFEF2
:102F50000390039B1B680293039B5A68029B1046D5
:102F600098476B461846F7F7E1FD6B461846FFF7A2
:102F700079FE0346002BE7D100BF00BF05B05DF826
:102F800004FB00BF485C030008B5FFF7D5FF00BF96
:102F900008BD60DF704700BF184669DF704700BF9B
:102FA000184661DF704700BF1846000000B583B0C7
:102FB0000190019B002B03D10449C420FCF778FA4F
:102FC000019B5B68184603B05DF804FB545C03008A
:102FD00082B00190019B002B01D10E2304E0044B31
:102FE0001A46019B1A600023184602B0704700BFC2
:102FF000282A002010B586B0034600918DF80730CE
:103000000098FFF7E5FF0590059B002B01D0059B7D
:10301000ECE002AB0C220021184600F097FB9DF873
:1030200007308DF8083001238DF80A300623ADF8FB
:103030000C30009B1A6802AB19462020FFF7ADFF49
:103040000590059B002B0FD06A4A6B4BD31ADB0807
:103050001B0443F001040598F7F740FE03461A46A7
:1030600066492046F3F72EFE02AB0C2200211846DB
:1030700000F06CFB00238DF8093001238DF80A3035
:1030800001238DF80B30009B1A6802AB19464020D3
:10309000FFF783FF0590059B002B0FD0554A564B39
:1030A000D31ADB081B0443F001040598F7F716FE5A
:1030B00003461A4652492046F3F704FE02AB0C229F
:1030C0000021184600F042FB9DF807308DF80830CB
:1030D000F723ADF80A30009B1A6802AB194623208B
:1030E000FFF75BFF0590059B002B0FD0414A424B39
:1030F000D31ADB081B0443F001040598F7F7EEFD33
:1031000003461A463F492046F3F7DCFD02AB0C228A
:103110000021184600F01AFB01238DF80830009BAF
:103120001A6802AB19460120FFF737FF0590059B8F
:10313000002B0FD02F4A304BD31ADB081B0443F06F
:1031400001040598F7F7CAFD03461A462E492046A2
:10315000F3F7B8FD02AB0C220021184600F0F6FA96
:103160004FF4B0630293009B1A6802AB1946A1208A
:10317000FFF713FF0590059B002B0FD01D4A1E4B38
:10318000D31ADB081B0443F001040598F7F7A6FDEA
:1031900003461A461D492046F3F794FD02AB0C2264
:1031A0000021184600F0D2FA9DF808306FF30003B2
:1031B0008DF80830009B1A6802AB1946A020FFF773
:1031C000ECFE0590059B002B0FD00A4A0A4BD31A40
:1031D000DB081B0443F001040598F7F77FFD034665
:1031E0001A460B492046F3F76DFD0023184606B03A
:1031F00010BD00BF603F0300E83E0300B45C030065
:10320000FC5C0300485D0300905D0300DC5D03008F
:10321000305E030082B04FF08053D3F80C319B0234
:103220000193019B03F10053184602B07047000060
:1032300010B584B00190019B1B6803930198FFF7C0
:10324000A8FE0290019B1B68039A9A4229D2224A47
:10325000224BD31ADB081B0443F002032049184613
:10326000F3F722FD1C4A1D4BD31ADB081B0443F065
:103270000200019B1B68039A1A49F3F734FD164AB2
:10328000164BD31ADB081B0443F00204FFF7C2FFFE
:103290000246019B1B68D31A1A4613492046F3F7CE
:1032A00011FD029B002B03D1104B01221A700FE07D
:1032B000094A0A4BD31ADB081B0443F001040298A5
:1032C000F7F70CFD03461A4609492046F3F7FAFCC6
:1032D000029B184604B010BD603F0300E83E0300A7
:1032E000845E0300B45E0300E85E0300D04000206B
:1032F000145F030000B5ADF5077D01AB1860244BEA
:103300001B7883F00103DBB2002B3BD14FF4FA733F
:10331000ADF806320DF2062202AB11461846FFF751
:1033200040FE8590859B002B03D0859B052B22D1E9
:1033300029E002AB84937FAB16491846F7F7CCFB24
:1033400011E07FAB1846FFF731FE8390839B1B682B
:103350008293839B5A68829B1146849898477FABDF
:103360001846F7F7E3FB7FAB1846FFF71FFE03464F
:10337000002BE6D1CAE7084A40F23B118598F4F7E2
:1033800057FC00E000BF0DF5077D5DF804FB00BFB2
:10339000D0400020AC5F0300345F030000B583B071
:1033A0000190019B002B03D10449C420FCF780F855
:1033B000019B5B68184603B05DF804FBB85F03002F
:1033C0004BDF704700BF184600B589B0019004ABD1
:1033D0001846FFF7F5FF0790079B002B03D0079BCC
:1033E000052B20D124E002AB13491846F7F774FBF4
:1033F00011E002AB1846FFF7D1FF0690069B1B6851
:103400000593049A069B5968059B1046984702ABA2
:103410001846F7F78BFB02AB1846FFF7BFFF0346D2
:10342000002BE6D1D3E7054A6B210798F4F700FC9F
:1034300000BF09B05DF804FB906003001860030052
:1034400053EA020C61D02DE9F04BB3FA83F51E006C
:1034500007BFB2FA82F502FA05F403FA05F416463C
:10346000C5F120051EBF22FA05F73C43203556EA78
:10347000044C4FEA144418BF0134A3464FF000092E
:10348000C846904271EB030C39D3094207BFB0FA2A
:1034900080F700FA07F6B1FA81F701FA07F6C7F1EB
:1034A00020071EBF20FA07FC46EA0C062037B6FBB1
:1034B000FBFC7F1B103F07F01F04C4F120060CFA31
:1034C00004F42CFA06F644BF34460026202FA4BF8D
:1034D0002646002454EA060C08BF012418EB040811
:1034E00049EB0609A4FB027CC01B06FB02CC04FBD3
:1034F00003CC71EB0C01904271EB030CC5D20B466F
:10350000024649464046BDE8F08BB2FBF3F20000AC
:103510007F2805D8034B185C034B5B5C1840704751
:1035200000207047A860030028610300A0F1610338
:10353000192B98BF20387047A0F14103192B98BF71
:10354000203070477F2805D8034B185C034B5B5C29
:103550001840704700207047A860030028610300EE
:10356000A0F16103192B98BF20387047A0F14103E7
:10357000192B98BF203070477F299ABF0170012016
:103580006FF02E0070475AB10A787F2A0AD800B12E
:103590000260002119605960501A18BF012070475D
:1035A000002070476FF02E00704738B5044608467B
:1035B000A26842B1236861685D1C8D4208BF00208B
:1035C0008B4208D2D054E3682BB1216862689142E3
:1035D00001D22146984723680133236038BD70B576
:1035E0004C1E09D41646C5B229463046FFF7DDFF0A
:1035F000013CB4F1FF3FF7D170BD10F0100F08D1BE
:1036000008B510F4007F14BF30202020FFF7E7FF3B
:1036100008BD704708B5034B5B689B681B689847FB
:1036200008BD00BF7830002008B50921FFF7F2FF80
:1036300008BD7AB370B414460F2A15D902460B465A
:1036400040EA010515F0030F01D0013C0EE01946D8
:1036500010460432043306680D68AE4204D11046A9
:103660001946043C042CF2D8013C0ED00A4603460D
:103670000444114618460133013206780D78AE42F3
:1036800003D118461146A342F3D100780B78C01A33
:1036900070BC7047002070470FB410B586B008ABFF
:1036A00053F8044B0593002303936FF000430293F8
:1036B000084B049300F010FC059A214601A800F085
:1036C000F1F8044600F009FC204606B0BDE81040C1
:1036D00004B070476DAD0200037853B159B1014495
:1036E000034613F8012F12B18B42FAD10B46181A78
:1036F00070470346FBE70346F9E7844640EA0103C7
:1037000013F0030F18D18446202A0BD32DE9F007BC
:10371000B1E8F807A0E8F807A2F12002202AF7D2C2
:10372000BDE8F007042A07D351F8043B40F8043BF6
:10373000A2F10402042AF7D2002A05D011F8013BB5
:1037400000F8013B013AF9D1604670478446002AEF
:103750002DD010F0030F04D000F8011B013A26D041
:10376000F7E7C9B241EA012141EA0141202A12D317
:10377000A2F120022DE9F0030B460C460D460E4641
:103780000F4688468946A0E8FA03203AFBD2BDE8F6
:10379000F00320320BD0042A05D340F8041B043A6E
:1037A00005D0042AF9D200F8011B013AFBD160468A
:1037B0007047024610F0030F16D111F0030F13D11A
:1037C0002DE9F0004FF001374FF0803351F8044BF2
:1037D000A4EB070525EA04051D4002D142F8044B7D
:1037E000F4E7A1F10401F0BC11F8013B02F8013B40
:1037F000002BF9D1704710F0030F19D111F0030F0E
:1038000016D12DE970004FF001364FF0803350F89B
:10381000044B51F8045BAC4205D1A4EB060525EA44
:1038200004051D40F3D0A0F10400A1F1040170BC17
:1038300010F8012B11F8013BD21A01D1002BF7D15E
:103840001046704700F1010110F0030F11D010F87D
:10385000012B002A23D010F0030F0AD010F8012BFF
:10386000002A1CD010F0030F03D010F8012B002AFF
:1038700015D02DE970004FF001324FF0803350F831
:10388000044BA4EB020525EA04051D4000D1F6E730
:10389000A0F1040070BC10F8012B002AFBD1A0EBB2
:1038A000010070472DE9F04F89B0074603920023CD
:1038B00003600C4614F8011B002900F0FA82DFF8BF
:1038C00014B5E9E2002507E05E2868D145F480558B
:1038D00001E045F040051C46234613F8010B302853
:1038E000F2D81F2837D9A0F12002102A33D801A11D
:1038F00051F822F0D3380300573903005739030039
:103900003939030057390300573903005739030089
:103910003F39030057390300573903005739030073
:1039200045390300573903004B3903005739030069
:10393000573903005139030045F08005CBE745F4C2
:103940000045C8E745F02005C5E745F01005C2E78A
:1039500045F40075BFE72A2821D1039A111D039170
:10396000D2F800A0BAF1000FBCBFCAF1000A45F0BE
:1039700010051878A31C2AEAEA7A2E2826D00021FE
:10398000742847D07A2845D06C2800F0A8804C28AD
:1039900000F0AB80682800F0B8801C463DE0A0F144
:1039A0003002D2B2092A88BF4FF0000AE3D84FF0A4
:1039B000000A0AEB8A0A303800EB4A0A13F8010BB6
:1039C000A0F13002D2B2092AF3D9D4E718782A2814
:1039D0000AD1039A111D0391116858780233002906
:1039E000CEDB45F48075CBE70133A0F13002D2B2D3
:1039F000092A88BF0021F4D8002101EB8101303869
:103A000000EB410113F8010BA0F13002D2B2092AF8
:103A1000F3D9E4E71C4614F8010B002800F05582A6
:103A2000A0F12503DBB2532B62D8A0F12503532B61
:103A30005ED8DFE813F076005D005D005D005D009C
:103A40005D005D005D005D005D005D005D005D008E
:103A50005D005D005D005D005D005D005D005D007E
:103A60005D005D005D005D005D005D005D005D006E
:103A70005D005D005D005D005D005D005D005D005E
:103A80005D005D005D005D005D005D005D005D004E
:103A90005D005D005D005D005D005D00EB005D00B0
:103AA0005D005D005D005D005D005D005D005D002E
:103AB0005D007B0020015D005D005D005D00200178
:103AC0005D005D005D005D0095000E01D1005D00B0
:103AD0005D00A6005D0019015D005D00ED001C4663
:103AE00014F8010B45F0010597E745F001051C4668
:103AF000B44B1E68002E00F0CC8103AB0193009103
:103B000053462A463946B047C3E11878682803D09F
:103B10005C1C45F0040580E745F008059C1C5878BE
:103B20007BE725213846FFF740FDB2E1039B1A1DD4
:103B300003921E780AF1FF3A3A4651462846FFF7AB
:103B40005CFD31463846FFF730FDA94619F0100FED
:103B500000F09F813A4651462020FFF740FD98E152
:103B600015F0080F06D03A68039B191D03911B68D6
:103B70001A708EE1039B1A1D03921B683A681A6043
:103B800087E1039B1A1D0392D3F800808E4BB8F196
:103B9000000F08BF9846464625F4007915F4807F4B
:103BA00015D04046FFF798FD0546AAEB050A3A46B0
:103BB00051464846FFF721FD002DC7D0454416F871
:103BC000011B3846FFF7F1FCB542F8D1BEE740468D
:103BD000FFF738FE0546E8E7039B1A1D03921B68B2
:103BE00015F0800F0CBF0026232645F480750821B0
:103BF0001A46002B00F0298105AB4FF0000805F4B0
:103C0000005CA64660468C460146D1E045F400556E
:103C100015F0800F1BD043F2780643F25803782842
:103C200018BF1E4615F4807F01D025F4007515F4E9
:103C3000804F32D0039B1A1D03921B6815F0040FAE
:103C40001FD01BB2002B20DA5B422D262DE0002670
:103C5000E8E715F0800F0CBF0026302615F4807FB2
:103C6000E5D025F40075E2E715F4807F07D025F450
:103C700000750026DBE745F480450026D7E70026DF
:103C8000D5E715F0080FDDD0DBB215F0200F60D1BD
:103C900015F0400F18BF202607E0039B1A1D039262
:103CA0001B6815F0040F4FD09BB215F4807F14BF32
:103CB00025F4007501215838202800F2AE8001A2B9
:103CC00052F820F0F13B03001B3E03001B3E0300B3
:103CD0001B3E03001B3E03001B3E03001B3E030074
:103CE0001B3E03001B3E03001B3E03001B3E030064
:103CF0001B3E03007F3D03001B3E03001B3E0300F1
:103D00001B3E03001B3E03007F3D03001B3E0300E0
:103D10001B3E03001B3E03001B3E03001B3E030033
:103D2000573D0300F13B03001B3E03001B3E030015
:103D30001B3E03001B3E03007F3D03001B3E0300B0
:103D40001B3E0300F13B030015F0080FADD0DBB2C2
:103D5000ABE72B26A9E71A464FF00008002B5ED0F0
:103D600005A84FF0000803F00703303300F8013BCB
:103D700008F10108D2081346002AF4D14FE0184692
:103D80004FF00008002B4AD04FF0000805F4004E19
:103D90004FF02C0973468E4619462FE002F00F00B3
:103DA0000A4C205C03F8010B08F10108120906D047
:103DB0000029F3D002F00F00054C205CF2E77446B6
:103DC00061462CE0D4400020FC620300DC6203006A
:103DD000EC620300CDCCCCCC08AB03EB080CABFB06
:103DE0000032D20802EB8203A0EB430330330CF81D
:103DF0000C3C08F1010809280DD910460029EBD028
:103E000008F00303032BE7D108AB434403F80C9CF1
:103E100008F10108E0E7714601E04FF00008A1EB6E
:103E2000080121EAE179AAEB090AAAEB080AFF2EA8
:103E30000ED9AAF1020AC6F307213846FFF7B5FBEF
:103E4000F1B23846FFF7B1FB04E04FF00008E6E7B7
:103E5000002E3DD13A4651462846FFF7CEFB3A4662
:103E600049463020FFF7BBFBB8F1000F0EDD0DF126
:103E7000140908F1FF38C84498F80010464638463F
:103E8000FFF793FBC14508F1FF38F5D115F0100F8E
:103E900009D114F8011B61B125293FF413AD38464F
:103EA000FFF783FBF5E73A4651462020FFF797FBE3
:103EB000EFE7BB682BB13A6879688A423CBF0021C2
:103EC0009954386809B0BDE8F08F4FF0FF30F9E73A
:0C3ED0000AF1FF3AB4E700BF70477047EA
:083EDC00ADBC02000000000073
:043EE40025F90200BA
:103EE8000851030000000000E45103000000000036
:103EF8006052030000000000385303000000000077
:103F08001454030000000000D8400300000003031D
:103F180018420300000000005043030000000000A6
:103F28006C57030000000303105B03000000030349
:103F3800685A0300000003035C50030000000000FF
:103F48008458030000000303DC5903000000030346
:103F5800B05B030000000303A85C03000000030338
:103F68000C600300000003037C480300000000000D
:083F7800104A030000000000E4
:103F800098310020D0300020D8300020D8300020D8
:103F900018000000203B0020583A0020603A002022
:083FA000603A00201800000047
:103FA8004C3A0020483A00200100000002000000BE
:043FB8000100000004
:083FBC00D5BC0200000000006A
:103FC400F532030000000000C933030000000000C4
:103FD400C9F3020000000000391703002039002053
:103FE400CD1103008C2A002025270300343900203A
:103FF400F31F0300603000207129030008390020FA
:0840040089F902000000000030
:10400C001C4003000000000038400300282A002058
:10401C00B9640200EB640200E164020000000000DD
:10402C00000000000338FDD8704700007274745F04
:10403C006C6F675F6261636B656E6400443A5C44ED
:10404C006576696365446F776E6C6F61645F53442A
:10405C004B31372E322E305C6E52463553444B3139
:10406C00373032643637346464655C4E52465C6E6D
:10407C005246355F53444B5F31372E302E325F64DE
:10408C003637346464655C636F6D706F6E656E7427
:10409C00735C6C69627261726965735C6C6F675C8E
:1040AC007372635C6E72665F6C6F675F646566618A
:1040BC00756C745F6261636B656E64732E63000074
:1040CC00A03100207F0000002032002061707000C1
:1040DC00443A5C446576696365446F776E6C6F61D6
:1040EC00645F53444B31372E322E305C6E52463562
:1040FC0053444B31373032643637346464655C4E2C
:10410C0052465C6E5246355F53444B5F31372E300E
:10411C002E325F643637346464655C636F6D706F28
:10412C006E656E74735C6C69627261726965735CE6
:10413C006C6F675C7372635C6E72665F6C6F675FEB
:10414C0066726F6E74656E642E6300004261636B01
:10415C00656E647320666C7573686564000000009E
:10416C006572726F720000007761726E696E670023
:10417C00696E666F00000000646562756700000080
:10418C001B5B306D000000001B5B313B33306D005E
:10419C001B5B313B33316D001B5B313B33326D00AC
:1041AC001B5B313B33336D001B5B313B33346D0098
:1041BC001B5B313B33356D001B5B313B33366D0084
:1041CC001B5B313B33376D0025734C6F6773206479
:1041DC00726F70706564202825642925730D0A00A0
:1041EC00257300003C25733E2025733A2000000007
:1041FC000D0A00002025303278000000202020001D
:10420C007C00000025630000200000006170705FDE
:10421C00627574746F6E0000443A5C446576696331
:10422C0065446F776E6C6F61645F53444B31372E0E
:10423C00322E305C6E52463553444B31373032643B
:10424C003637346464655C4E52465C6E5246355F5C
:10425C0053444B5F31372E302E325F643637346423
:10426C0064655C636F6D706F6E656E74735C6C69A6
:10427C00627261726965735C627574746F6E5C6195
:10428C0070705F627574746F6E2E630068360020F8
:10429C00534F46544445564943453A2041535345A0
:1042AC005254494F4E204641494C454400000000B1
:1042BC00534F46544445564943453A20494E56417E
:1042CC004C4944204D454D4F525920414343455391
:1042DC0053000000415353455254494F4E20464120
:1042EC00494C45442061742025733A257500000023
:1042FC004552524F52202575205B25735D20617409
:10430C002025733A25750D0A50432061743A2030EC
:10431C007825303878000000456E64206F66206583
:10432C0072726F72207265706F727400554E4B4EC4
:10433C004F574E204641554C5420617420307825FF
:10434C00303858006170705F74696D6572000000E0
:10435C00443A5C446576696365446F776E6C6F6153
:10436C00645F53444B31372E322E305C6E524635DF
:10437C0053444B31373032643637346464655C4EA9
:10438C0052465C6E5246355F53444B5F31372E308C
:10439C002E325F643637346464655C636F6D706FA6
:1043AC006E656E74735C6C69627261726965735C64
:1043BC0074696D65725C6170705F74696D65723281
:1043CC002E630000010006000000000040370020B2
:1043DC00617F0200FFFFFFFFFFFFFFFFFFFFFFFFFB
:1043EC00FFFFFFFF00000000000000000000D601EE
:1043FC0006010000443A5C446576696365446F7756
:10440C006E6C6F61645F53444B31372E322E305CCF
:10441C006E52463553444B31373032643637346440
:10442C0064655C4E52465C6E5246355F53444B5F3E
:10443C0031372E302E325F643637346464655C63FA
:10444C006F6D706F6E656E74735C6C6962726172A5
:10445C006965735C756172745C6170705F756172B3
:10446C00745F6669666F2E6300000000443A5C441A
:10447C006576696365446F776E6C6F61645F5344F6
:10448C004B31372E322E305C6E52463553444B3105
:10449C00373032643637346464655C4E52465C6E39
:1044AC005246355F53444B5F31372E302E325F64AA
:1044BC003637346464655C636F6D706F6E656E74F3
:1044CC00735C6C69627261726965735C7574696C3A
:1044DC005C6170705F7574696C5F706C6174666F31
:1044EC00726D2E63000000002E2E2F2E2E2F2E2EDE
:1044FC002F2E2E2F2E2E2F2E2E2F696E7465677257
:10450C006174696F6E2F6E7266782F6E7266785F4B
:10451C00676C75652E6800002E2E2F2E2E2F2E2EDA
:10452C002F2E2E2F2E2E2F2E2E2F6D6F64756C6529
:10453C00732F6E7266782F68616C2F6E72665F7265
:10454C0074632E6800000000443A5C44657669632D
:10455C0065446F776E6C6F61645F53444B31372EDB
:10456C00322E305C6E52463553444B313730326408
:10457C003637346464655C4E52465C6E5246355F29
:10458C0053444B5F31372E302E325F6436373464F0
:10459C0064655C636F6D706F6E656E74735C6C6973
:1045AC00627261726965735C74696D65725C647268
:1045BC00765F7274632E630052544320696E737479
:1045CC00616E636520616C726561647920696E69E6
:1045DC007469616C697A65642E0000005254433A28
:1045EC0020696E697469616C697A65642E000000DB
:1045FC005254433A20556E696E697469616C697ADC
:10460C0065642E000338FDD870470000443A5C44C2
:10461C006576696365446F776E6C6F61645F534454
:10462C004B31372E322E305C6E52463553444B3163
:10463C00373032643637346464655C4E52465C6E97
:10464C005246355F53444B5F31372E302E325F6408
:10465C003637346464655C636F6D706F6E656E7451
:10466C00735C6C69627261726965735C62616C6CBB
:10467C006F635C6E72665F62616C6C6F632E63005D
:10468C00443A5C446576696365446F776E6C6F6120
:10469C00645F53444B31372E322E305C6E524635AC
:1046AC0053444B31373032643637346464655C4E76
:1046BC0052465C6E5246355F53444B5F31372E3059
:1046CC002E325F643637346464655C657874657269
:1046DC006E616C5C667072696E74665C6E72665F3D
:1046EC00667072696E74662E63000000443A5C4416
:1046FC006576696365446F776E6C6F61645F534474
:10470C004B31372E322E305C6E52463553444B3182
:10471C00373032643637346464655C4E52465C6EB6
:10472C005246355F53444B5F31372E302E325F6427
:10473C003637346464655C65787465726E616C5C84
:10474C00667072696E74665C6E72665F66707269B2
:10475C006E74665F666F726D61742E63000000008C
:10476C00303132333435363738394142434445469B
:10477C00443A5C446576696365446F776E6C6F612F
:10478C00645F53444B31372E322E305C6E524635BB
:10479C0053444B31373032643637346464655C4E85
:1047AC0052465C6E5246355F53444B5F31372E3068
:1047BC002E325F643637346464655C636F6D706F82
:1047CC006E656E74735C6C69627261726965735C40
:1047DC006D656D6F626A5C6E72665F6D656D6F6242
:1047EC006A2E63002E2E2F2E2E2F2E2E2F2E2E2F96
:1047FC002E2E2F2E2E2F636F6D706F6E656E747351
:10480C002F6C69627261726965732F65787065725D
:10481C00696D656E74616C5F73656374696F6E5FEF
:10482C00766172732F6E72665F73656374696F6EF7
:10483C005F697465722E68002E2E2F2E2E2F2E2E51
:10484C002F2E2E2F2E2E2F2E2E2F636F6D706F6E00
:10485C00656E74732F6C69627261726965732F6D0A
:10486C00757465782F6E72665F6D74782E680000B3
:10487C007077725F6D676D7400000000443A5C44A1
:10488C006576696365446F776E6C6F61645F5344E2
:10489C004B31372E322E305C6E52463553444B31F1
:1048AC00373032643637346464655C4E52465C6E25
:1048BC005246355F53444B5F31372E302E325F6496
:1048CC003637346464655C636F6D706F6E656E74DF
:1048DC00735C6C69627261726965735C7077725F2C
:1048EC006D676D745C6E72665F7077725F6D676D0D
:1048FC00742E6300E43E0300E83E03000400000055
:10490C00443A5C446576696365446F776E6C6F619D
:10491C00645F53444B31372E322E305C6E52463529
:10492C0053444B31373032643637346464655C4EF3
:10493C0052465C6E5246355F53444B5F31372E30D6
:10494C002E325F643637346464655C636F6D706FF0
:10495C006E656E74735C6C69627261726965735CAE
:10496C0071756575655C6E72665F71756575652EC2
:10497C0063000100443A5C446576696365446F7773
:10498C006E6C6F61645F53444B31372E322E305C4A
:10499C006E52463553444B313730326436373464BB
:1049AC0064655C4E52465C6E5246355F53444B5FB9
:1049BC0031372E302E325F643637346464655C6375
:1049CC006F6D706F6E656E74735C6C696272617220
:1049DC006965735C6578706572696D656E74616C20
:1049EC005F73656374696F6E5F766172735C6E7210
:1049FC00665F73656374696F6E5F697465722E634D
:104A0C0000000000736F72746C6973740000000016
:104A1C00443A5C446576696365446F776E6C6F618C
:104A2C00645F53444B31372E322E305C6E52463518
:104A3C0053444B31373032643637346464655C4EE2
:104A4C0052465C6E5246355F53444B5F31372E30C5
:104A5C002E325F643637346464655C636F6D706FDF
:104A6C006E656E74735C6C69627261726965735C9D
:104A7C00736F72746C6973745C6E72665F736F7251
:104A8C00746C6973742E6300556E6B6E6F776E2049
:104A9C006572726F7220636F646500004E52465FE0
:104AAC0053554343455353004E52465F4552524F64
:104ABC00525F5356435F48414E444C45525F4D49FB
:104ACC005353494E470000004E52465F4552524FD9
:104ADC00525F534F46544445564943455F4E4F54DD
:104AEC005F454E41424C4544000000004E52465F2B
:104AFC004552524F525F494E5445524E414C000064
:104B0C004E52465F4552524F525F4E4F5F4D454D90
:104B1C00000000004E52465F4552524F525F4E4FBE
:104B2C00545F464F554E44004E52465F4552524FCD
:104B3C00525F4E4F545F535550504F5254454400A2
:104B4C004E52465F4552524F525F494E56414C4968
:104B5C00445F504152414D004E52465F4552524FB8
:104B6C00525F494E56414C49445F535441544500A1
:104B7C004E52465F4552524F525F494E56414C4938
:104B8C00445F4C454E475448000000004E52465F6F
:104B9C004552524F525F494E56414C49445F464C28
:104BAC00414753004E52465F4552524F525F494E59
:104BBC0056414C49445F4441544100004E52465FBB
:104BCC004552524F525F444154415F53495A45003C
:104BDC004E52465F4552524F525F54494D454F55C8
:104BEC00540000004E52465F4552524F525F4E5594
:104BFC004C4C00004E52465F4552524F525F464F4E
:104C0C005242494444454E004E52465F4552524F23
:104C1C00525F494E56414C49445F41444452000056
:104C2C004E52465F4552524F525F42555359000007
:104C3C004E52465F4552524F525F434F4E4E5F436A
:104C4C004F554E54000000004E52465F4552524F95
:104C5C00525F5245534F5552434553004E52465F97
:104C6C004552524F525F4D4F44554C455F4E4F5439
:104C7C005F494E495449414C495A45440000000093
:104C8C004E52465F4552524F525F4D555445585FF8
:104C9C00494E49545F4641494C4544004E52465F8B
:104CAC004552524F525F4D555445585F4C4F434BF4
:104CBC005F4641494C4544004E52465F4552524F67
:104CCC00525F4D555445585F554E4C4F434B5F46C4
:104CDC0041494C45440000004E52465F4552524FEC
:104CEC00525F4D555445585F434F4E445F494E49B2
:104CFC00545F4641494C4544000000004E52465F0B
:104D0C004552524F525F4D4F44554C455F414C52AA
:104D1C00454144595F494E495449414C495A4544CF
:104D2C00000000004E52465F4552524F525F5354A2
:104D3C004F524147455F46554C4C00004E52465F22
:104D4C004552524F525F4150495F4E4F545F494D4F
:104D5C00504C454D454E5445440000004E52465F64
:104D6C004552524F525F464541545552455F4E4F46
:104D7C00545F454E41424C45440000004E52465F44
:104D8C004552524F525F494F5F50454E44494E4732
:104D9C00000000004E52465F4552524F525F445243
:104DAC00565F5457495F4552525F4F5645525255C4
:104DBC004E0000004E52465F4552524F525F4452D5
:104DCC00565F5457495F4552525F414E41434B0029
:104DDC004E52465F4552524F525F4452565F5457A3
:104DEC00495F4552525F444E41434B004E52465F21
:104DFC004552524F525F424C455F495053505F529F
:104E0C00585F504B545F5452554E434154454400E7
:104E1C004E52465F4552524F525F424C455F49508D
:104E2C0053505F4348414E4E454C5F414C524541B7
:104E3C0044595F4558495354530000004E52465F45
:104E4C004552524F525F424C455F495053505F4C54
:104E5C00494E4B5F444953434F4E4E454354454492
:104E6C00000000004E52465F4552524F525F424C7A
:104E7C00455F495053505F504545525F52454A4536
:104E8C00435445440000000000000000A84A030001
:104E9C0001000000B44A030002000000D44A0300E1
:104EAC0003000000F84A0300040000000C4B030050
:104EBC0005000000204B030006000000344B0300EB
:104ECC00070000004C4B030008000000644B03007B
:104EDC00090000007C4B03000A000000984B030003
:104EEC000B000000B04B03000C000000C84B03008B
:104EFC000D000000DC4B03000E000000F04B030023
:104F0C000F000000004C030010000000144C0300C4
:104F1C00110000002C4C0300120000003C4C03005C
:104F2C0013000000544C030080000000684C030088
:104F3C00810000008C4C030082000000A84C030090
:104F4C0083000000C44C030084000000E44C030008
:104F5C0085000000084D030086000000304D030062
:104F6C0090000000484D030091000000684D0300C4
:104F7C0092000000884D030000820000A04D030049
:104F8C0001820000C04D030002820000DC4D0300D2
:104F9C0000840000F84D0300018400001C4E030047
:104FAC0002840000484E030003840000704E03008E
:104FBC002E2E2F2E2E2F2E2E2F2E2E2F2E2E2F2E00
:104FCC002E2F6D6F64756C65732F6E7266782F68FB
:104FDC00616C2F6E72665F6770696F2E68000000DF
:104FEC00443A5C446576696365446F776E6C6F61B7
:104FFC00645F53444B31372E322E305C6E52463543
:10500C0053444B31373032643637346464655C4E0C
:10501C0052465C6E5246355F53444B5F31372E30EF
:10502C002E325F643637346464655C636F6D706F09
:10503C006E656E74735C626F617264735C626F61D7
:10504C007264732E630000001F0500001718000027
:10505C00636C6F636B000000443A5C446576696373
:10506C0065446F776E6C6F61645F53444B31372EC0
:10507C00322E305C6E52463553444B3137303264ED
:10508C003637346464655C4E52465C6E5246355F0E
:10509C0053444B5F31372E302E325F6436373464D5
:1050AC0064655C696E746567726174696F6E5C6E61
:1050BC007266785C6C65676163795C6E72665F645E
:1050CC0072765F636C6F636B2E6300002E2E2F2E37
:1050DC002E2F2E2E2F2E2E2F2E2E2F2E2E2F696E64
:1050EC00746567726174696F6E2F6E7266782F6E5D
:1050FC007266785F676C75652E680000434C4F4391
:10510C004B000000443A5C446576696365446F77F4
:10511C006E6C6F61645F53444B31372E322E305CB2
:10512C006E52463553444B31373032643637346423
:10513C0064655C4E52465C6E5246355F53444B5F21
:10514C0031372E302E325F643637346464655C6DD3
:10515C006F64756C65735C6E7266785C647269768C
:10516C006572735C7372635C6E7266785F636C6F8E
:10517C00636B2E63000000002E2E2F2E2E2F2E2E52
:10518C002F2E2E2F2E2E2F2E2E2F696E74656772BA
:10519C006174696F6E2F6E7266782F6E7266785FAF
:1051AC00676C75652E6800002E2E2F2E2E2F2E2E3E
:1051BC002F2E2E2F2E2E2F2E2E2F6D6F64756C658D
:1051CC00732F6E7266782F68616C2F6E72665F67D4
:1051DC0070696F2E680000004750494F544500001D
:1051EC00443A5C446576696365446F776E6C6F61B5
:1051FC00645F53444B31372E322E305C6E52463541
:10520C0053444B31373032643637346464655C4E0A
:10521C0052465C6E5246355F53444B5F31372E30ED
:10522C002E325F643637346464655C6D6F64756C04
:10523C0065735C6E7266785C647269766572735CB9
:10524C007372635C6E7266785F6770696F74652EDB
:10525C006300000050525300443A5C446576696325
:10526C0065446F776E6C6F61645F53444B31372EBE
:10527C00322E305C6E52463553444B3137303264EB
:10528C003637346464655C4E52465C6E5246355F0C
:10529C0053444B5F31372E302E325F6436373464D3
:1052AC0064655C6D6F64756C65735C6E7266785C5E
:1052BC00647269766572735C7372635C7072735C32
:1052CC006E7266785F7072732E6300002E2E2F2E16
:1052DC002E2F2E2E2F2E2E2F2E2E2F2E2E2F696E62
:1052EC00746567726174696F6E2F6E7266782F6E5B
:1052FC007266785F676C75652E6800002E2E2F2EF7
:10530C002E2F2E2E2F2E2E2F2E2E2F2E2E2F6D6F2C
:10531C0064756C65732F6E7266782F68616C2F6E76
:10532C0072665F6770696F2E6800000055415254B9
:10533C0000000000443A5C446576696365446F770D
:10534C006E6C6F61645F53444B31372E322E305C80
:10535C006E52463553444B313730326436373464F1
:10536C0064655C4E52465C6E5246355F53444B5FEF
:10537C0031372E302E325F643637346464655C6DA1
:10538C006F64756C65735C6E7266785C647269765A
:10539C006572735C7372635C6E7266785F75617252
:1053AC00742E6300A1DC02002E2E2F2E2E2F2E2EFB
:1053BC002F2E2E2F2E2E2F2E2E2F696E7465677288
:1053CC006174696F6E2F6E7266782F6E7266785F7D
:1053DC00676C75652E6800002E2E2F2E2E2F2E2E0C
:1053EC002F2E2E2F2E2E2F2E2E2F6D6F64756C655B
:1053FC00732F6E7266782F68616C2F6E72665F67A2
:10540C0070696F2E68000000554152544500000031
:10541C00443A5C446576696365446F776E6C6F6182
:10542C00645F53444B31372E322E305C6E5246350E
:10543C0053444B31373032643637346464655C4ED8
:10544C0052465C6E5246355F53444B5F31372E30BB
:10545C002E325F643637346464655C6D6F64756CD2
:10546C0065735C6E7266785C647269766572735C87
:10547C007372635C6E7266785F75617274652E63AD
:10548C000000000009E902002E2E2F2E2E2F2E2EAA
:10549C002F2E2E2F2E2E2F2E2E2F6D6F64756C65AA
:1054AC00732F6E7266782F68616C2F6E72665F67F1
:1054BC0070696F2E6800000088380020A838002022
:1054CC00D8380020170003000DEA02001800030072
:1054DC000DEA02005065726970686572616C5F500C
:1054EC00455200003C3A00209C390020040000008A
:1054FC002000000001000000443A5C4465766963BA
:10550C0065446F776E6C6F61645F53444B31372E1B
:10551C00322E305C6E52463553444B313730326448
:10552C003637346464655C4E52465C6E5246355F69
:10553C0053444B5F31372E302E325F643637346430
:10554C0064655C6578616D706C65735C536D6172DC
:10555C00744C6F636B5C626C655F6170705F7561DE
:10556C0072745F635C6D61696E2E6300436F6E6E67
:10557C00656374696E6720746F20746172676574FB
:10558C00202530327825303278253032782530326B
:10559C007825303278253032780000005363616E04
:1055AC002074696D6564206F75742E006170705F76
:1055BC00756172745F707574206661696C656420C6
:1055CC00666F7220696E6465782030782530347887
:1055DC002E0000004572726F72206F6363757272D9
:1055EC00656420696E204649464F206D6F64756C6A
:1055FC0065207573656420627920554152542E00E4
:10560C00446973636F7665727920636F6D706C6536
:10561C0074652E00436F6E6E656374656420746FE1
:10562C00206465766963652077697468204E6F72B3
:10563C0064696320554152542053657276696365E1
:10564C002E000000446973636F6E6E65637465644D
:10565C002E000000446973636F6E6E65637465643D
:10566C002E20636F6E6E5F68616E646C653A2030DD
:10567C007825782C20726561736F6E3A203078250E
:10568C0078000000436F6E6E656374696F6E205214
:10569C006571756573742074696D6564206F7574BC
:1056AC002E000000415454204D54552065786368F9
:1056BC00616E676520636F6D706C657465642E0038
:1056CC00426C65204E5553206D6178206461746185
:1056DC00206C656E6774682073657420746F20305D
:1056EC0078255828256429000800000006000000D1
:1056FC0005000000070000000000000000E0D701DA
:10570C00424C4520554152542063656E7472616C55
:10571C00206578616D706C6520737461727465645A
:10572C002E0D0A00424C4520554152542063656EA3
:10573C007472616C206578616D706C652073746136
:10574C00727465642E0000005465726D696E616C34
:10575C000000000052545400534547474552000086
:10576C00626C655F64625F64697363004E6F742082
:10577C00656E6F75676820737061636520666F7204
:10578C002073657276696365732E0000496E6372CF
:10579C006561736520424C455F44425F4449534305
:1057AC004F564552595F4D41585F53525620746FB6
:1057BC002062652061626C6520746F2073746F7257
:1057CC0065206D6F726520736572766963657321F0
:1057DC00000000004E6F7420656E6F756768207353
:1057EC007061636520666F722063686172616374B7
:1057FC006572697374696373206173736F63696134
:10580C007465642077697468207365727669636562
:10581C00203078253034582021000000496E637206
:10582C006561736520424C455F474154545F444267
:10583C005F4D41585F434841525320746F2062655D
:10584C002061626C6520746F2073746F7265206DBB
:10585C006F726520636861726163746572697374D9
:10586C0069637320666F722065616368207365726B
:10587C0076696365210000006E72665F626C655F1D
:10588C00676174740000000073645F626C655F672D
:10589C0061705F646174615F6C656E6774685F757D
:1058AC00706461746528292028726571756573743C
:1058BC0029206F6E20636F6E6E656374696F6E2046
:1058CC00307825782072657475726E656420257346
:1058DC002E000000546865207265717565737465DF
:1058EC00642054582F5258207061636B6574206C7F
:1058FC00656E67746820697320746F6F206C6F6EAF
:10590C00672062792025752F2575206F6374657467
:10591C00732E00005468652072657175657374652B
:10592C006420636F6D62696E6174696F6E206F665F
:10593C0020545820616E64205258207061636B654E
:10594C0074206C656E6774687320697320746F6F54
:10595C00206C6F6E67206279202575206D696372EB
:10596C006F7365636F6E64732E00000073645F6207
:10597C006C655F67617474635F65786368616E679B
:10598C00655F6D74755F7265717565737428292018
:10599C0072657475726E65642025732E00000000AC
:1059AC0073645F626C655F67617474735F65786361
:1059BC0068616E67655F6D74755F7265706C792870
:1059CC00292072657475726E65642025732E000033
:1059DC006E72665F626C655F6771000053442047AE
:1059EC004154542070726F6365647572652028256C
:1059FC006429206661696C6564206F6E20636F6E2C
:105A0C006E656374696F6E2068616E646C652025C9
:105A1C00642077697468206572726F723A203078EE
:105A2C00253038582E000000556E696D706C656D10
:105A3C00656E7465642047415454205265717565D8
:105A4C007374000000000000C9180300000000007F
:105A5C0000000000000000001F190300626C655F6D
:105A6C007363616E00000000443A5C4465766963C0
:105A7C0065446F776E6C6F61645F53444B31372EA6
:105A8C00322E305C6E52463553444B3137303264D3
:105A9C003637346464655C4E52465C6E5246355FF4
:105AAC0053444B5F31372E302E325F6436373464BB
:105ABC0064655C636F6D706F6E656E74735C626C45
:105ACC00655C6E72665F626C655F7363616E5C6E63
:105ADC0072665F626C655F7363616E2E63000000BB
:105AEC0073645F626C655F6761705F7363616E5F47
:105AFC0073746172742072657475726E6564203093
:105B0C0078257800626C655F6E75735F63000000CA
:105B1C009ECADC240EE5A9E093F3A3B50000406E09
:105B2C00436F6E74656E7420746F6F206C6F6E674C
:105B3C002E000000436F6E6E656374696F6E206893
:105B4C00616E646C6520696E76616C69642E000010
:105B5C002E2E2F2E2E2F2E2E2F2E2E2F2E2E2F2E54
:105B6C002E2F636F6D706F6E656E74732F6C696220
:105B7C007261726965732F6578706572696D656E97
:105B8C0074616C5F73656374696F6E5F7661727359
:105B9C002F6E72665F73656374696F6E5F6974658F
:105BAC00722E68006E72665F73646800443A5C44DF
:105BBC006576696365446F776E6C6F61645F53449F
:105BCC004B31372E322E305C6E52463553444B31AE
:105BDC00373032643637346464655C4E52465C6EE2
:105BEC005246355F53444B5F31372E302E325F6453
:105BFC003637346464655C636F6D706F6E656E749C
:105C0C00735C736F66746465766963655C636F6DF2
:105C1C006D6F6E5C6E72665F7364682E630000005D
:105C2C0001000007BC3F0300BC3F0300080000005C
:105C3C00BC3F0300C43F030008000000C43F030046
:105C4C00D43F0300080000002E2E2F2E2E2F2E2EB8
:105C5C002F2E2E2F2E2E2F2E2E2F636F6D706F6EDC
:105C6C00656E74732F6C69627261726965732F65EE
:105C7C0078706572696D656E74616C5F7365637461
:105C8C00696F6E5F766172732F6E72665F73656398
:105C9C0074696F6E5F697465722E68006E72665FF0
:105CAC007364685F626C650073645F626C655F63EC
:105CBC0066675F73657428292072657475726E65EA
:105CCC0064202573207768656E20617474656D702F
:105CDC0074696E6720746F2073657420424C455F45
:105CEC00434F4E4E5F4346475F4741502E000000E6
:105CFC0073645F626C655F6366675F7365742829A4
:105D0C002072657475726E656420257320776865E2
:105D1C006E20617474656D7074696E6720746F2089
:105D2C0073657420424C455F4741505F4346475F63
:105D3C00524F4C455F434F554E542E0073645F6277
:105D4C006C655F6366675F73657428292072657480
:105D5C0075726E6564202573207768656E2061749A
:105D6C0074656D7074696E6720746F207365742030
:105D7C00424C455F434F4E4E5F4346475F4741544D
:105D8C00542E000073645F626C655F6366675F73BB
:105D9C00657428292072657475726E65642025738C
:105DAC00207768656E20617474656D7074696E67B8
:105DBC0020746F2073657420424C455F434F4D4DEA
:105DCC004F4E5F4346475F56535F555549442E002F
:105DDC0073645F626C655F6366675F7365742829C3
:105DEC002072657475726E65642025732077686502
:105DFC006E20617474656D7074696E6720746F20A9
:105E0C0073657420424C455F47415454535F43467D
:105E1C00475F415454525F5441425F53495A452E97
:105E2C000000000073645F626C655F6366675F739C
:105E3C00657428292072657475726E6564202573EB
:105E4C00207768656E20617474656D7074696E6717
:105E5C0020746F2073657420424C455F4741545445
:105E6C00535F4346475F534552564943455F43484A
:105E7C00414E4745442E0000496E73756666696352
:105E8C0069656E742052414D20616C6C6F63617456
:105E9C00656420666F722074686520536F66744465
:105EAC0065766963652E00004368616E67652074D2
:105EBC0068652052414D207374617274206C6F635D
:105ECC006174696F6E2066726F6D20307825782052
:105EDC00746F20307825782E000000004D617869B1
:105EEC006D756D2052414D2073697A6520666F7215
:105EFC00206170706C69636174696F6E20697320C6
:105F0C00307825782E00000073645F626C655F65E5
:105F1C006E61626C6528292072657475726E656499
:105F2C002025732E00000000443A5C4465766963BA
:105F3C0065446F776E6C6F61645F53444B31372EE1
:105F4C00322E305C6E52463553444B31373032640E
:105F5C003637346464655C4E52465C6E5246355F2F
:105F6C0053444B5F31372E302E325F6436373464F6
:105F7C0064655C636F6D706F6E656E74735C736F6C
:105F8C0066746465766963655C636F6D6D6F6E5C7A
:105F9C006E72665F7364685F626C652E63000000EE
:105FAC00D43F03000C400300080000002E2E2F2EBF
:105FBC002E2F2E2E2F2E2E2F2E2E2F2E2E2F636F7A
:105FCC006D706F6E656E74732F6C6962726172693D
:105FDC0065732F6578706572696D656E74616C5F41
:105FEC0073656374696F6E5F766172732F6E726620
:105FFC005F73656374696F6E5F697465722E680098
:10600C006E72665F7364685F736F6300443A5C44DE
:10601C006576696365446F776E6C6F61645F53443A
:10602C004B31372E322E305C6E52463553444B3149
:10603C00373032643637346464655C4E52465C6E7D
:10604C005246355F53444B5F31372E302E325F64EE
:10605C003637346464655C636F6D706F6E656E7437
:10606C00735C736F66746465766963655C636F6D8E
:10607C006D6F6E5C6E72665F7364685F736F632EB8
:10608C0063000000DC3E0300E43E03000800000057
:10609C0043000000504F534958000000202020209E
:1060AC00202020202068282828282020202020207C
:1060BC0020202020202020202020202048101010DC
:1060CC0010101010101010101010101084848484F4
:1060DC0084848484848410101010101010818181A9
:1060EC008181810101010101010101010101010114
:1060FC0001010101010101101010101010828282A7
:10610C0082828202020202020202020202020202E3
:10611C0002020202020202101010102000070320DB
:10612C000417020108571040800000009C60030017
:10613C00A0610300B462030053756E004D6F6E00D6
:10614C0054756500576564005468750046726900A3
:10615C0053617400000000004A616E0046656200E5
:10616C004D617200417072004D6179004A756E008C
:10617C004A756C0041756700536570004F6374007D
:10618C004E6F76004465630000000000414D0050E6
:10619C004D000000D8620300D4620300D4620300F7
:1061AC00D4620300D4620300D4620300D4620300FF
:1061BC00D4620300D4620300D4620300FFFFFFFF2C
:1061CC00FFFFFFFFFFFFFFFFFFFF00001462030054
:1061DC004461030050620300646103009861030092
:1061EC00F8610300A862030004620300256D2F25EB
:1061FC00642F25790000000025612025622025658B
:10620C00202554202559000053756E646179004D8A
:10621C006F6E6461790054756573646179005765BC
:10622C00646E657364617900546875727364617926
:10623C0000467269646179005361747572646179A6
:10624C00000000004A616E756172790046656272E9
:10625C0075617279004D6172636800417072696C8E
:10626C00004D6179004A756E65004A756C79004184
:10627C0075677573740053657074656D6265720033
:10628C004F63746F626572004E6F76656D626572F6
:10629C0000446563656D62657200000025483A250F
:1062AC004D3A255300000000113503002D35030035
:1062BC003935030045350300613503006D350300A6
:1062CC007935030087350300000000002E00000024
:1062DC003031323334353637383961626364656650
:1062EC003031323334353637383941424344454600
:0762FC00286E756C6C29008F
:1063040000000000FF000000FF000000000000008B
:106314006C410300744103007C4103008441030089
:106324008C410300944103009C410300A4410300F9
:10633400AC410300B4410300BC410300C441030069
:10634400CC410300001001401100040000000000D3
:106354000020004000000000002000400000000079
:106364000090D003000000000000000000000000C6
:106374000000000000000000000000000000000019
:106384000000000000000000000000000000000009
:1063940000000000000000000000000000000000F9
:1063A40000000000000000000000000000000000E9
:106624000000000000000000000000000000FFFF68
:106634000000000000000000000000000000000056
:106644000000000000000000000000000000000046
:106654000000000000000000000000000000000036
:106664000000000000000000000000000000000026
:1069340000000000FFFF0000010000005C300020A8
:10694400F0540300A83F0300943F03001400000028
:1069540038610300386103003861030038610300C3
:046964003861030093
:040000032000637501
:00000001FF
